:020000040800F2
:1000000000040020C1010008716C0008716C000838
:10001000015A0008716C0008716C0008716C0008CE
:10002000716C0008716C0008716C0008118F000879
:10003000716C0008716C0008716C0008410B0108BC
:10004000716C000831D10008C1D2000811D300083A
:10005000716C0008716C000871CE0008C1CE0008F8
:1000600011CF000861CF0008B1CF0008C1C000085F
:1000700011C1000861C10008B1C1000801C2000837
:1000800051C20008A1C20008B1CB0008B1D40008D9
:1000900021D50008D1D5000881D6000801D000087C
:1000A000716C0008716C000811040108716C000883
:1000B000010701084107010881070108A1E70008BD
:1000C000E1E80008716C0008716C0008716C0008B0
:1000D000716C0008716C0008716C0008010C01085B
:1000E00091D0000881D10008D1D100085104010845
:1000F000716C0008716C0008716C0008F1C2000896
:10010000716C000811D80008C1070108716C000863
:10011000716C0008716C0008D1030108716C000853
:1001200041C3000891C30008E1C3000831C40008BE
:1001300081C40008716C000821D20008716C0008AD
:10014000716C0008716C0008716C0008C1FB00083C
:10015000D1C4000821C5000871C50008716C0008F1
:10016000716C0008716C0008716C0008716C0008FB
:1001700071D20008716C0008E1370008716C00084A
:10018000716C0008716C0008716C0008716C0008DB
:10019000716C0008716C0008716C0008716C0008CB
:1001A000716C0008716C0008716C0008716C0008BB
:1001B000716C0008716C0008716C0008716C0008AB
:1001C00072B62E4880F3098840F20000CCF200009D
:1001D0004EF63471CEF20001086040F20000C0F229
:1001E000F0004EF68851CEF2000108604FF000009A
:1001F000E1EE100A4EF63C71CEF2000108600620D6
:1002000080F31488BFF36F8F10F042FE4FF055302B
:100210001B491C4A91423CBF41F8040BFAE71A49BA
:10022000164A91423CBF41F8040BFAE71749184AB5
:10023000184B9A423EBF51F8040B42F8040BF8E702
:1002400000201549154A91423CBF41F8040BFAE7DA
:1002500006F0F6FC124C134DAC4203DA54F8041BC2
:100260008847F9E702F0FCF80F4C104DAC4203DA76
:1002700054F8041B8847F9E706F0F2BC0008002098
:1002800000000020000400200004002048E30108D2
:1002900000080020FC150020001600203851012025
:1002A000C0010008C0010008C0010008C00100082A
:1002B0002DE9F04F2DED108AC1F80CD0D0F80CD0FC
:1002C000BDEC108ABDE8F08F06F012FE07F068FE64
:1002D000002383F311882846A047002007F098FBED
:1002E00007F046FE06F0E4FD07F002FA06F000FE15
:1002F00007F056FE00DFFEE70000000000000000EF
:100300002DE9F843544B80461A68544882422DED3B
:10031000028B1BD052490B68DA0405D40A6842F4F8
:1003200080530B60012000E000204E4A4E491160CE
:1003300013684A4A934208D147490B6030B1484894
:10034000036823F48052026000E0FEE798ED018A22
:10035000B5EE408A0021F1EE10FAC8F81C10C8F87A
:100360001810C8F81410C8F81010C8F82810C8F8E9
:100370002410C8F8201029D0DFED3C7A28EE270A97
:1003800010EE100A01F038F8044618EE100A0D4677
:1003900001F032F80646B8F800000F4601F01AF8EE
:1003A0002BA3D3E9002301F0ADF902460B463046FA
:1003B000394600F0C3FE02460B462046294601F0AE
:1003C000A1F901F055FBA8F82C0001E0A8F82C10C9
:1003D00098ED028AB5EE408AF1EE10FA26D0B8F810
:1003E00000904FEA092000F0F5FF044618EE100ACD
:1003F0000D4601F001F816A3D3E9002301F058F8E7
:10040000064648460F4600F0E5FF02460B463046DA
:10041000394600F093FE02460B462046294601F07D
:1004200071F901F025FBA8F82E0002E00020A8F8E1
:100430002E00B8F800204FF47A73B2FBF3F1A8F85D
:100440003010BDEC028BBDE8F88300BFAFF3008035
:100450001F85EB51B81E194000160020CDB5E8B538
:100460003038024000300240C2A507F4000080434B
:100470002DE9F04F9BB083461992A94A1891A948DB
:100480001168814200D0FEE79E6AB3F80CC09F69F4
:100490009A8DD98D039603261C6A5D6A059706928C
:1004A00006FB0CF74FEA8C0206264FEA4C000B9134
:1004B0000E97052106FB0CF70F9207220294049574
:1004C0000D90119701FB0CF04FEACC0602FB0CF1EA
:1004D00000271D695C69D3F81CA010901291179633
:1004E0000197188EDDF80490814580F20A818E48CC
:1004F0009BF800601BF80C7010F80690C25DA144D8
:100500008419511994F8008194F8002201EB4808ED
:10051000CDF81C80DDF834801BF80860855DC719B4
:10052000A9180E9A97F800411BF8022097F800725C
:1005300001EB4405815C0895CC1981190F9E91F857
:10054000008191F8007204EB48081BF80640CDF8D2
:1005500024808218055D92F8006192F80022E91962
:1005600001EB460505EB0807DDF8408015971BF801
:1005700008700A950419C15D94F8005194F800427E
:10058000DDF81C808E1806EB4501119D089A1BF8BA
:1005900005508E18C719425D1696161997F8002156
:1005A00006EB42029044CDF85080129C97F80072FE
:1005B0001BF804604519845DE41995F8007195F8FD
:1005C0000052801904EB47044FF01C0804EB0907A4
:1005D00090F80061139708FB09AADDF81C800C94C1
:1005E0000AEB0209152705EB460490F8005207FBB9
:1005F0000890099FDDF820900A2606FB070A0F27BE
:1006000007FB09A04FF00308DDF8289008FB010064
:100610004FF0060A0AFB0900009015984FF03009C8
:1006200009FB00FADDF858902E2000FB09A0824655
:100630000598824413984FF0240909FB00AA1498E6
:100640004FF02A0909FB00AA0898DDF8249008FB5E
:1006500000F8062000FB0988DDF81C9008EB090073
:1006600007FB01010A9F0C98DDF8009006FB0718B4
:100670001C2606FB008115270B9807FB021205922A
:10068000A9F5003868B1029E049FCDF8108006EBF2
:100690000801CE1B46434FF4807296FBF2F00290A5
:1006A0008046069961B1039E08FB01F8C1F5807789
:1006B00006FB07894FF4807299FBF2F003908046A5
:1006C000199901FB08F7002F02DD0837381103E004
:1006D000083F102697FBF6F047F6BC72019E1349BF
:1006E000189FDDF85C809042A8BF1046DA897243FB
:1006F0008842A8BF0146013627F81210C34401966C
:10070000EFE61D615C61029D059C1D629C61039D7D
:10071000049CC3F81CA05C629D621BB0BDE8F08F16
:1007200000160020CDB5E8B5000800204480FFFF8A
:100730002DE9F04FA1B0C74C1F92C74A1E91116816
:10074000A14200D0FEE79F6A9A69998DDC8D0497DB
:100750009F89069207910F940322052106241D6AA2
:100760005E6A03957A4379437C43129214911594FF
:10077000072209210A24794305964FEA47084FEAE0
:1007800087097A434FEAC70A7C431E695D69D3F83B
:100790001CB01891CDF84480CDF84C901692CDF84D
:1007A0005CA01D94002102911A8E0299914280F260
:1007B0005981AA4A047812F80490A944C55D111918
:1007C00012F8058091F8004191F800A2464406EB2A
:1007D0004406119C0896045D5519165D95F800C1F4
:1007E00095F8005206EB0A0808EB4C0ADDF8488041
:1007F000CDF824A010F80810DDF84C80565C1419D0
:1008000006EB050A10F8085094F800C1565D94F8FC
:10081000004251180AEB4C0C361991F800A1149CB7
:1008200091F80012CDF828C006EB4A08065DCDF815
:100830002C80945DDDF85480551904EB010A95F87D
:10084000004195F800520AEB44010C9110F8081091
:100850009619545C641996F8005104EB45040D9404
:10086000169D96F80062DDF824A0DDF85C80A444B3
:10087000445DCDF86CC0155D5118AD1991F800615B
:1008800091F8001205EB460505EB0A060E9510F8E7
:1008900008501C961419565DDDF860A0711894F884
:1008A000006194F8004201EB460C08990CEB01063C
:1008B0001A9610F80A605519915D9219091995F860
:1008C000004192F8006195F8005201EB44012D249B
:1008D00001EB090804FB09BB10910899CDF864806D
:1008E0000BEB0C09DDF8288005EB460592F8006259
:1008F000242202FB019A152404FB08A9DDF824A098
:100900000C994FF01C0B0BFB0A994FF00A08DDF80D
:100910002CA008FB01994FF00F0B0E990BFB0A99C5
:100920004FF00308DDF834A008FB01994FF0060BE7
:100930000BFB0A99CDF80490DDF82CA00C994FF030
:100940004B0B51440BFB01F91B994FF0490A0AFB71
:10095000019B0699DDF868900BEB010A4FF03F0B05
:100960001C990BFB09AA4FF0450BDDF864900BFBBB
:1009700001AA4FF0370B0BFB09ABDDF824A00A9955
:1009800008FB0AF84FF00609DDF820A009FB0188F2
:100990000C99D0444FF00F09DDF82CA009FB018819
:1009A0000A21DDF8389001FB0A884FF01C0A0D99E6
:1009B0000AFB098804FB018A109C0F994FF02D094E
:1009C00009FB04A8DDF804A002FB0C820692AAF53C
:1009D0007A3971B1039C0599CDF8149004EB0902A2
:1009E000541A0F9A4FF48071544394FBF1F403941A
:1009F000A146079961B1049CC1F5807209FB01FC15
:100A000004FB02C94FF4807199FBF1F20492914604
:100A10001F9C04FB09F1002902DD10314C1103E099
:100A20001039202291FBF2F447F6BC718C42A8BF2A
:100A30000C46DA890299DDF874804A4308498C42F1
:100A4000A8BF21461E9C24F81210029A4044511C53
:100A5000A9E600BFCDB5E8B50016002000080020CB
:100A60004480FFFF05981E615D61039E069D049C06
:100A700058629D61C3F81CB01E629C62104621B092
:100A8000BDE8F08F2DE9F04F95B0994C1392994A3B
:100A900012911168A14200D0FEE75E6A1D6A9F6A4A
:100AA0009A69998DB3F82E800C964FF00009D3F80F
:100AB00010C05E69D3F81CB00195029709920A91A3
:100AC000CDF83480CDF80C908B4904780D190C5D6D
:100AD00095F8007295F8008106EB070A067ACDF8C2
:100AE0002CA08F198E5D97F8002202EB4805AC44CC
:100AF000057C97F80081CDF810C04A194D5D92F839
:100B0000009292F8002109EB040A0AEB480C90F8D5
:100B100018A090F82090CDF814C001EB0A0494F8C6
:100B2000007294F80041BF1907EB420801EB09027B
:100B3000CDF8188092F8006292F80021771907EB3F
:100B4000440606EB080C90F8288011F80A70079606
:100B500001EB0805CDF840C095F8004295F800512A
:100B6000E619059F06EB4204E619119690F83060ED
:100B700008948C1911F8097094F80022D219049F76
:100B800002EB4502BD180F9590F8385011F8089007
:100B900094F80041DDF82C808E5D4F1997F800A283
:100BA00097F800710AEB090C0CEB4404DDF818A06F
:100BB00011F805C000941C2505FB082944440A21AE
:100BC000DDF8148001FB0A9906EB4706DDF820A04A
:100BD0000F2707FB0899032101FB0A99DDF81CA0E8
:100BE0004FF0060808FB0A99DDF810A0152101FB5B
:100BF0000A99CB44DDF84490CDF82CB04FF02E0A82
:100C00000AFB09FADDF840904FF0300B0BFB09AA04
:100C10004FF0240B0BFB04A90F9C4FF02A0A0AFB90
:100C2000049B099CDDF81890DDF810A0A344059CF6
:100C300008FB09A8DDF820A04FF0030909FB048890
:100C4000079C07FB0A890A2707FB0498DDF8009038
:100C5000DDF82CA00C9F05FB098501FB02520199D0
:100C60000992AAF500328C180D99DDF82880E51B51
:100C70004D434FF4807195FBF1F40194019F44467C
:100C80007C43029FC8EB010507FB054595FBF1F18D
:100C90000291139C6143002902DD0831091103E030
:100CA0000839102791FBF7F147F6BC75134C129FDA
:100CB0000C92A942A8BF2946039DA142B8BF214674
:100CC00079530C354030C02D03957FF4FDAE099863
:100CD000019C029D9861C3F810C05E61C3F81CB00E
:100CE0001C625A629D62102015B0BDE8F08F00BFF3
:100CF000CDB5E8B500160020000800204480FFFFB5
:100D00002DE9F04FA1B084461F92BE4A1E91BE4805
:100D10001168814200D0FEE79E6A9F6905969E8910
:100D2000D98D01967000079703277E431190019893
:100D30009A8D0F9112960521019E08924843B200A8
:100D40001490019E01980199139206277E43072271
:100D5000C700514315961797019E019F1C6A5D6A53
:100D6000169109220A2156434F434FF0000804947C
:100D700006955C691D69D3F81CB018961D97CDF8CF
:100D80000C80188EDDF80C90814580F25A819F49C5
:100D90009CF80000DDF804900F181CF8096097F823
:100DA00000A297F80021085CA2448C198E5D94F88B
:100DB000008294F80041454405EB4207119D0997D4
:100DC0001CF805504A194D5D92F8007292F80081A6
:100DD0003F18129807EB44091CF80040CDF8289002
:100DE00008190C5D90F8007290F80001BF1907EB2C
:100DF0004809DDF84C80CDF82C901CF8089001EBE8
:100E00000902CDF8089092F8006292F80021771953
:100E1000149E1CF80690159E07EB400801EB090094
:100E2000CDF8308090F8005290F800012F1907EBB0
:100E300042081CF80670029DCDF83480CA194E5D38
:100E400092F80042A41904EB40050295DDF82C80CD
:100E5000169E92F80021CF5DA844CDF86C801CF856
:100E6000068011F80950DDF8609001EB080011F8D8
:100E7000088090F8004290F8000166190A9D06EB80
:100E80004204179A0E9466191C961CF802608C197D
:100E90008E5D94F8002294F80041D519099F05EB66
:100EA0004002D5191A951CF809504F194D5D97F855
:100EB000000297F80071404400EB44002D2100EB44
:100EC0000A0401FB0ABB1090099819940BEB020A63
:100ED00006EB470424210B9F01FB00A94FF01508E6
:100EE000DDF828A00D9808FB07964FF01C0B0BFBB4
:100EF0000A69DDF830800A2606FB009A0F27DDF824
:100F0000389007FB08AB4FF0030808FB09BADDF87F
:100F100008B0062000FB0BA9CDF80090DDF834A046
:100F2000DDF830B04FF04B090AEB0B0009FB00FA7B
:100F30001B984FF0490B0BFB00A9079809EB000A1F
:100F4000DDF868901C984FF03F0B0BFB09AA4FF09F
:100F5000450BDDF864900BFB00AA4FF0370B0BFB41
:100F600009ABDDF828A00B9808FB0AF84FF006093A
:100F7000DDF824A009FB00880D9808EB0A0907FB9F
:100F800000980C9FDDF83890029806FB07864FF01A
:100F90001C0A0AFB0968152707FB008610980F9F9B
:100FA0004FF02D0909FB006A01FB02A2DDF800A049
:100FB0000792AAF57A386FB10499069ECDF8188089
:100FC00001EB0800811B79434FF4807291FBF2F72B
:100FD0000497B846089860B1059908FB00F8C0F579
:100FE000807601FB06894FF4807299FBF2F7059732
:100FF000B8461F9800FB08F6002E09DD1036771161
:101000000AE000BF00160020CDB5E8B500080020BA
:10101000103E202196FBF1F7039ED8891049DDF898
:10102000748047F6BC729742A8BF17468F42A8BF8C
:10103000394670431E9F721C27F81010C444039257
:101040009FE65C61079C049A9C61059E069C1D615D
:10105000C3F81CB01A625C629E6221B0BDE8F08FDA
:101060004480FFFFAFF3008000000000000000009C
:101070004B1C012B98BF70472DE9F003911C9B0876
:10108000B1F80480B1F802900A8831F802CC8044AB
:10109000814402448444D9F80070D8F8006015688F
:1010A000DCF80040C9F80060C8F80070CCF80050C7
:1010B0001460D9F80470D8F804605568DCF804406E
:1010C000C9F80460C8F80470CCF8045054600831C2
:1010D000013BD5D1BDE8F00370474B1C012B98BFF5
:1010E00070472DE9F003911C9B08B1F80480B1F81A
:1010F00002900A8831F802CC00EB580800EB59093D
:1011000000EB520200EB5C0CD9F80070D8F80060DC
:101110001568DCF80040C9F80060C8F80070CCF829
:10112000005014600831013BDFD1BDE8F003704787
:1011300081F0004102E000BF83F0004330B54FEA88
:1011400041044FEA430594EA050F08BF90EA020FF5
:101150001FBF54EA000C55EA020C7FEA645C7FEA88
:10116000655C00F0E2804FEA5454D4EB5555B8BFAB
:101170006D420CDD2C4480EA020281EA030382EA1C
:10118000000083EA010180EA020281EA0303362DAE
:1011900088BF30BD11F0004F4FEA01314FF4801C81
:1011A0004CEA113102D0404261EB410113F0004F93
:1011B0004FEA03334CEA133302D0524263EB43034A
:1011C00094EA050F00F0A780A4F10104D5F1200EE8
:1011D0000DDB02FA0EFC22FA05F2801841F1000143
:1011E00003FA0EF2801843FA05F359410EE0A5F117
:1011F00020050EF1200E012A03FA0EFC28BF4CF048
:10120000020C43FA05F3C01851EBE37101F00045FD
:1012100007D54FF0000EDCF1000C7EEB00006EEB0A
:101220000101B1F5801F1BD3B1F5001F0CD3490894
:101230005FEA30004FEA3C0C04F101044FEA4452EB
:1012400012F5800F80F09A80BCF1004F08BF5FEA72
:10125000500C50F1000041EB045141EA050130BD52
:101260005FEA4C0C404141EB010111F4801FA4F1F5
:101270000104E9D191F0000F04BF01460020B1FA4A
:1012800081F308BF2033A3F10B03B3F120020CDA82
:101290000C3208DD02F1140CC2F10C0201FA0CF060
:1012A00021FA02F10CE002F11402D8BFC2F1200CC5
:1012B00001FA02F120FA0CFCDCBF41EA0C0190407B
:1012C000E41AA2BF01EB0451294330BD6FEA0404C4
:1012D0001F3C1CDA0C340EDC04F11404C4F12002AF
:1012E00020FA04F001FA02F340EA030021FA04F3C1
:1012F00045EA030130BDC4F10C04C4F1200220FA18
:1013000002F001FA04F340EA0300294630BD21FA55
:1013100004F0294630BD94F0000F83F4801306BF1B
:1013200081F480110134013D4EE77FEA645C18BF0F
:101330007FEA655C29D094EA050F08BF90EA020FA6
:1013400005D054EA000C04BF1946104630BD91EA9E
:10135000030F1EBF0021002030BD5FEA545C05D1A1
:101360004000494128BF41F0004130BD14F58004E0
:101370003CBF01F5801130BD01F0004545F0FE4154
:1013800041F470014FF0000030BD7FEA645C1ABF89
:10139000194610467FEA655C1CBF0B46024650EAC0
:1013A000013406BF52EA033591EA030F41F40021EC
:1013B00030BD00BF90F0000F04BF0021704730B572
:1013C0004FF4806404F132044FF000054FF0000147
:1013D00050E700BF90F0000F04BF0021704730B508
:1013E0004FF4806404F1320410F0004548BF4042DD
:1013F0004FF000013EE700BF42004FEAE2014FEA32
:1014000031014FEA02701FBF12F07F4393F07F4F0C
:1014100081F06051704732F07F4208BF704793F00F
:101420007F4F04BF41F40021704730B54FF4607422
:1014300001F0004521F000411CE700BF50EA010225
:1014400008BF704730B54FF000050AE050EA0102CE
:1014500008BF704730B511F0004502D5404261EB3E
:1014600041014FF4806404F132045FEA915C3FF47F
:10147000D8AE4FF003025FEADC0C18BF03325FEA1C
:10148000DC0C18BF033202EBDC02C2F1200300FACD
:1014900003FC20FA02F001FA03FE40EA0E0021FAF2
:1014A00002F11444BDE600BF00000000000000008F
:1014B00070B54FF0FF0C4CF4E06C1CEA11541DBFEA
:1014C0001CEA135594EA0C0F95EA0C0F00F0DEF8B5
:1014D0002C4481EA030621EA4C5123EA4C5350EA9A
:1014E000013518BF52EA033541F4801143F48013EB
:1014F00038D0A0FB02CE4FF00005E1FB02E506F07C
:101500000042E0FB03E54FF00006E1FB03569CF0D0
:10151000000F18BF4EF0010EA4F1FF04B6F5007FD6
:1015200064F5407404D25FEA4E0E6D4146EB060648
:1015300042EAC62141EA55514FEAC52040EA5E50D1
:101540004FEACE2EB4F1FD0C88BFBCF5E06F1ED87B
:10155000BEF1004F08BF5FEA500E50F1000041EBB2
:10156000045170BD06F0004646EA010140EA02005F
:1015700081EA0301B4EB5C04C2BFD4EB0C0541EA81
:10158000045170BD41F480114FF0000E013C00F396
:10159000AB8014F1360FDEBF002001F0004170BDBA
:1015A000C4F10004203C35DA0C341BDC04F11404D3
:1015B000C4F1200500FA05F320FA04F001FA05F25F
:1015C00040EA020001F0004221F0004110EBD3702C
:1015D00021FA04F642EB06015EEA430E08BF20EA58
:1015E000D37070BDC4F10C04C4F1200500FA04F3FB
:1015F00020FA05F001FA04F240EA020001F000418D
:1016000010EBD37041F100015EEA430E08BF20EAFF
:10161000D37070BDC4F1200500FA05F24EEA020E47
:1016200020FA04F301FA05F243EA020321FA04F076
:1016300001F0004121FA04F220EA020000EBD3702D
:101640005EEA430E08BF20EAD37070BD94F0000F2D
:101650000FD101F00046400041EB010111F4801F61
:1016600008BF013CF7D041EA060195F0000F18BF12
:10167000704703F00046520043EB030313F4801F4E
:1016800008BF013DF7D043EA0603704794EA0C0F08
:101690000CEA135518BF95EA0C0F0CD050EA41061E
:1016A00018BF52EA4306D1D181EA030101F000419B
:1016B0004FF0000070BD50EA410606BF10461946C3
:1016C00052EA430619D094EA0C0F02D150EA0136CF
:1016D00013D195EA0C0F05D152EA03361CBF104610
:1016E00019460AD181EA030101F0004141F0FE41AF
:1016F00041F470014FF0000070BD41F0FE4141F433
:10170000780170BD70B54FF0FF0C4CF4E06C1CEA32
:1017100011541DBF1CEA135594EA0C0F95EA0C0FE7
:1017200000F0A7F8A4EB050481EA030E52EA0335A2
:101730004FEA013100F088804FEA03334FF08055C3
:1017400045EA131343EA12634FEA022245EA1115F0
:1017500045EA10654FEA00260EF000419D4208BFA1
:10176000964244F1FD0404F5407402D25B084FEA4E
:101770003202B61A65EB03055B084FEA32024FF4FA
:1017800080104FF4002CB6EB020E75EB030E22BF57
:10179000B61A754640EA0C005B084FEA3202B6EB17
:1017A000020E75EB030E22BFB61A754640EA5C00C6
:1017B0005B084FEA3202B6EB020E75EB030E22BF56
:1017C000B61A754640EA9C005B084FEA3202B6EB57
:1017D000020E75EB030E22BFB61A754640EADC0016
:1017E00055EA060E18D04FEA051545EA16754FEA78
:1017F00006164FEAC30343EA52734FEAC2025FEA96
:101800001C1CC0D111F4801F0BD141EA00014FF024
:1018100000004FF0004CB6E711F4801F04BF0143F5
:101820000020B4F1FD0C88BFBCF5E06F3FF6AFAE11
:10183000B5EB030C04BFB6EB020C5FEA500C50F1A1
:10184000000041EB045170BD0EF0004E4EEA113124
:1018500014EB5C04C2BFD4EB0C0541EA045170BD2B
:1018600041F480114FF0000E013C90E645EA060E6F
:101870008DE60CEA135594EA0C0F08BF95EA0C0F9D
:101880003FF43BAF94EA0C0F0AD150EA01347FF4E5
:1018900034AF95EA0C0F7FF425AF104619462CE7BC
:1018A00095EA0C0F06D152EA03353FF4FDAE10461F
:1018B000194622E750EA410618BF52EA43067FF470
:1018C000C5AE50EA41047FF40DAF52EA43057FF400
:1018D000EBAE12E700000000000000000000000076
:1018E0004FF0FF3C06E000BF4FF0010C02E000BFEC
:1018F0004FF0010C4DF804CD4FEA410C7FEA6C5CCF
:101900004FEA430C18BF7FEA6C5C1BD001B050EA71
:10191000410C0CBF52EA430C91EA030F02BF90EA5C
:10192000020F0020704710F1000F91EA030F58BF1B
:10193000994208BF90422CBFD8176FEAE37040F07D
:10194000010070474FEA410C7FEA6C5C02D150EA1B
:10195000013C07D14FEA430C7FEA6C5CD6D152EAD6
:10196000033CD3D05DF8040B704700BF844610469B
:1019700062468C461946634600E000BF01B5FFF79A
:10198000B7FF002848BF10F1000F01BD4DF808ED6A
:10199000FFF7F4FF0CBF012000205DF808FB00BF3B
:1019A0004DF808EDFFF7EAFF34BF012000205DF895
:1019B00008FB00BF4DF808EDFFF7E0FF94BF0120E2
:1019C00000205DF808FB00BF4DF808EDFFF7CEFFE3
:1019D00094BF012000205DF808FB00BF4DF808ED22
:1019E000FFF7C4FF34BF012000205DF808FB00BFF3
:1019F0004FEA410C7FEA6C5C02D150EA013C0AD10B
:101A00004FEA430C7FEA6C5C02D152EA033C02D1FC
:101A10004FF0000070474FF00100704700000000D9
:101A20004FEA410212F5001215D211D56FF4787306
:101A3000B3EB625212D94FEAC12343F0004343EAA9
:101A4000505311F0004F23FA02F018BF4042704784
:101A50004FF00000704750EA013005D111F000400E
:101A600008BF6FF0004070474FF00000704700BFA4
:101A70004A0011D212F5001211D20DD56FF478730D
:101A8000B3EB62520ED44FEAC12343F0004343EA62
:101A9000505323FA02F070474FF00000704750EAAD
:101AA000013002D14FF0FF3070474FF00000704717
:101AB0004FEA4102B2F1E04324BFB3F5001CDCF170
:101AC000FE5C0DD901F0004C4FEAC0024CEA5070A8
:101AD000B2F1004F40EB830008BF20F001007047D7
:101AE00011F0804F21D113F13872BCBF01F00040DA
:101AF000704741F480114FEA5252C2F11802C2F10C
:101B0000200C10FA0CF320FA02F018BF40F001008C
:101B10004FEAC1234FEAD32303FA0CFC40EA0C003E
:101B200023FA02F34FEA4303CCE77FEA625307D17B
:101B300050EA01331EBF4FF0FE4040F440007047B2
:101B400001F0004040F0FE4040F40000704700BF4C
:101B500053B94AB9002908BF00281CBF4FF0FF3114
:101B60004FF0FF3000F074B9ADF1080C6DE904CE10
:101B700000F006F8DDF804E0DDE9022304B0704768
:101B80002DE9F047089E04468846002B4BD18A4237
:101B9000154667D9B2FA82F24AB1C2F1200701FABA
:101BA00002F320FA07F7954047EA030894404FEA0A
:101BB000154E230CB8FBFEF71FFA85FC0EFB1788A9
:101BC00043EA084307FB0CF1994209D9EB1807F1E6
:101BD000FF3080F01B81994240F21881023F2B4474
:101BE0005B1AA4B2B3FBFEF00EFB103344EA0344CD
:101BF00000FB0CFCA44509D92C1900F1FF3380F03F
:101C00000781A44540F2048102382C4440EA074091
:101C1000A4EB0C0400271EB1D4400023C6E9004306
:101C20003946BDE8F0878B4209D9002E00F0EB80E1
:101C30000027C6E9000138463946BDE8F087B3FA07
:101C400083F7002F47D18B4202D3824200F2FA8001
:101C5000841A61EB030301209846002EE0D0C6E908
:101C60000048DDE702B9FFDEB2FA82F2002A40F056
:101C70008F80491B4FEA154E1FFA85F80127B1FBEB
:101C8000FEFC230C0EFB1C1143EA014308FB0CF184
:101C9000994207D9EB180CF1FF3002D2994200F2B9
:101CA000CD808446591AA3B2B1FBFEF00EFB10148E
:101CB00043EA044408FB00F8A04507D92C1900F1B9
:101CC000FF3302D2A04500F2B6801846A4EB080408
:101CD00040EA0C409FE7C7F1200CBB4022FA0CFE03
:101CE0004EEA030E01FA07F420FA0CF521FA0CF380
:101CF0004FEA1E482543B3FBF8F92C0C08FB1933B7
:101D00001FFA8EFA44EA034309FB0AF49C4202FAE2
:101D100007F200FA07F10BD91EEB030309F1FF30BC
:101D200080F087809C4240F28480A9F102097344CC
:101D30001B1BADB2B3FBF8F008FB103345EA0344BC
:101D400000FB0AFAA24508D91EEB040400F1FF3398
:101D50006BD2A24569D90238744440EA0940A0FB1D
:101D60000289A4EB0A044C45C2464B4654D351D0D9
:101D7000002E69D0B1EB0A0564EB030404FA0CFCF5
:101D8000FD40FC404CEA0505C6E90054002747E742
:101D9000C2F1200320FA03F7954001FA02F021FA7C
:101DA00003F34FEA154E3843010CB3FBFEF71FFA5D
:101DB00085F80EFB173341EA034107FB08F38B421A
:101DC00004FA02F407D9691807F1FF3C2FD28B42BD
:101DD0002DD9023F2944CB1A81B2B3FBFEF00EFB92
:101DE000103341EA034100FB08F38B4207D969181D
:101DF00000F1FF3C17D28B4215D902382944C91A89
:101E000040EA07473BE73746304609E70746E7E63B
:101E10001846FBE64145ABD2B8EB020A69EB0E026D
:101E200001381346A4E76046E9E7184695E7674698
:101E3000D1E781467CE702382C4447E7ACF1020C3D
:101E40002B442FE7384608E73746E9E60000000054
:101E5000704700BF0000000000000000000000000C
:101E6000844641EA000313F003036DD1403A41D3A5
:101E700051F8043B40F8043B51F8043B40F8043B64
:101E800051F8043B40F8043B51F8043B40F8043B54
:101E900051F8043B40F8043B51F8043B40F8043B44
:101EA00051F8043B40F8043B51F8043B40F8043B34
:101EB00051F8043B40F8043B51F8043B40F8043B24
:101EC00051F8043B40F8043B51F8043B40F8043B14
:101ED00051F8043B40F8043B51F8043B40F8043B04
:101EE00051F8043B40F8043B51F8043B40F8043BF4
:101EF000403ABDD2303211D351F8043B40F8043B94
:101F000051F8043B40F8043B51F8043B40F8043BD3
:101F100051F8043B40F8043B103AEDD20C3205D3A3
:101F200051F8043B40F8043B043AF9D2043208D09B
:101F3000D2071CBF11F8013B00F8013B01D30B880D
:101F400003806046704700BF082A13D38B078DD0EB
:101F500010F003038AD0C3F10403D21ADB071CBFBD
:101F600011F8013B00F8013B80D331F8023B20F827
:101F7000023B7BE7043AD9D3013A11F8013B00F860
:101F8000013BF9D20B7803704B7843708B788370E8
:101F900060467047000000000000000000000000E4
:101FA000A2EB0300704700BF02780B78012A28BF1C
:101FB0009A42F5D16DE9044540EA0104CDE9026792
:101FC0006FF0000C4FEA447212B380EA010414F07F
:101FD000070F6AD100F0070420F0070004F00305A2
:101FE00021F007014FEAC505F0E8042314F0040FBF
:101FF000F1E804670CFA05F462EA040266EA0406F2
:102000000AD063EA0403624667EA0407664603E00F
:10201000F0E80423F1E8046782FA4CF582EA06044A
:10202000A4FA8CF46CBB83FA4CF583EA0705A5FA95
:102030008CF595B950E9022351E9026782FA4CF513
:1020400082EA0604A4FA8CF483FA4CF583EA0705C5
:10205000A5FA8CF52543DBD09CB92DBAB5FA85F4E9
:1020600024F0070427FA04F1DDE9026723FA04F3F8
:1020700003F0FF0001F0FF01FDE80445A0EB0100C3
:10208000704724BAB4FA84F424F0070426FA04F161
:10209000DDE9026722FA04F202F0FF0001F0FF011D
:1020A000FDE80445A0EB0100704714F0030F3CD19C
:1020B00010F0030428D150F8082B51F8083B82FA9D
:1020C0004CF582EA0305A5FA8CF55DB950F8042CAD
:1020D00051F8043C82FA4CF582EA0305A5FA8CF526
:1020E000002DE8D02DBAB5FA85F424F0070423FAC0
:1020F00004F122FA04F202F0FF0001F0FF01FDE812
:102100000445A0EB010070474FEAC40420F003002F
:1021100050F8082B21F0030151F8083B0CFA04F4A5
:1021200062EA040263EA0403C9E710F003041AD068
:10213000A1EB040120F00300E40750F8042B06D0C3
:102140000FD28B785FFAA2F4E41A06D12BB1CB78C8
:102150005FFAB2F4E41A00D11BB920465DF8104BC7
:10216000704701F1040150F8042BCC0721F0030162
:1021700051F8043B48D824D222F07F4482FA4CF52F
:1021800094EA1325A5FA8CF50AD165B951F8043BF8
:1021900084EA0204B4EB036F0ED150F8042BEBE792
:1021A0004FEA132355E035F07F454DD10878FDE81F
:1021B0000445C0F1000070474FEA126203F0FF03CC
:1021C00047E002EA1C4482FA4CF594EA1345A5FA6A
:1021D0008CF50AD165B951F8043B84EA0204B4EBEA
:1021E000034F0CD150F8042BEBE74FEA134330E0D8
:1021F00015EA1C4528D10B884FEA124229E04FEA24
:10220000124203EA1C4324E002F0FF0482FA4CF578
:1022100094EA1365A5FA8CF50AD165B951F8043B27
:1022200084EA0204B4EB032F09D150F8042BEBE746
:102230004FEA13630DE015F0FF0F05D10B684FEA6D
:10224000122223F07F4304E04FF00000FDE8044534
:10225000704712BA1BBA82FA4CF482EA0304A4FA59
:102260008CF5B5FA85F402FA04F203FA04F34FEAA6
:102270001260FDE80445A0EB136070470000000009
:1022800090F800F06DE9024520F007016FF0000CB6
:1022900010F0070491F820F040F049804FF000045E
:1022A0006FF00700D1E9002391F840F000F1080039
:1022B00082FA4CF2A4FA8CF283FA4CF3A2FA8CF371
:1022C0004BBBD1E9022382FA4CF200F10800A4FAD8
:1022D0008CF283FA4CF3A2FA8CF3E3B9D1E904232C
:1022E00082FA4CF200F10800A4FA8CF283FA4CF363
:1022F000A2FA8CF37BB9D1E9062301F1200182FA1D
:102300004CF200F10800A4FA8CF283FA4CF3A2FA22
:102310008CF3002BC6D0002A04BF04301A4612BA30
:10232000B2FA82F2FDE8024500EBD2007047D1E933
:10233000002304F00305C4F100004FEAC50514F0C2
:10234000040F91F840F00CFA05F562EA05021CBF93
:1023500063EA050362464FF00004A9E700000000AD
:1023600001F0FF01102A2BDB10F0070F08D010F846
:10237000013B013A8B422DD010F0070F42B3F6D14A
:10238000F0B441EA012141EA014122F007047FF063
:1023900000070023F0E80256083C85EA010586EABA
:1023A000010685FA47F5A3FA87F586FA47F6A5FAF6
:1023B00087F68EB9EED1F0BC01F0FF0102F0070202
:1023C00032B110F8013B013A83EA010313B1F8D1AD
:1023D0000020704701387047002D06BF354603388E
:1023E000073815F0010F07D1013015F4807F02BFC7
:1023F000013015F4C03F0130F0BC0138704700BF18
:1024000070B5124C124D23682A6884B00646ADF8A8
:1024100006101B680F49039220460522984723683F
:1024200002221B680DF10601204698472368BDF87B
:1024300006201B68314620469847039A2B689A422B
:1024400001D104B070BD00F053F800BF84500120EA
:10245000000B0020108501080000000000000000B3
:1024600000B5194B83B01B68019306F0B1FD04F071
:1024700017FC03F06DFA154A1549164804F060F987
:102480001549164808F044FC04F062F8144801F0BD
:102490002FFF03F035FD02F08BFB02F061FF03F02C
:1024A000C7F903F0ADFF03F01BFF00F039FF00F0A8
:1024B000A7F902F09DFA04F0A3FB01F059FE642095
:1024C00005F02EFAFBE700BF000B0020040B0020F4
:1024D0000C0B002004160020200B0020845001204B
:1024E000D1250008000000000000000000000000EE
:1024F00000B5084B83B01A680192019A1B689A4292
:1025000005D1054803B05DF804EB04F031BCFFF7DA
:10251000EFFF00BF000B0020208501080000000035
:1025200030B5284D9FED287A2B6883B000F5806088
:1025300001934FF0FF314FF4807340F2C112F0EC81
:10254000017AF4EEC77AF1EE10FAC8BF19B203F1BE
:102550000103C8BFB0EE677A9342F0D18CB26FF43A
:102560009F716318022B0FD96FF4BF72A318022B4F
:1025700021D96FF4DE73E1180229019A2B6811D971
:102580009A420DD103B030BD00F062FC0028EBD1BF
:1025900000F01EFF019A2B689A4208BF012005D067
:1025A000FFF7A6FF9A4208BF0020F9D103B0BDE8AB
:1025B000304000F065BC00F04BFC0028D9D1012070
:1025C000E6E700BF000B002000401C4600000000B2
:1025D0002DE9F04F684E694F33683A8883B0019314
:1025E000002900F09380DFF89C91DFF8A081DFF8EC
:1025F000A4E1DFF89CC1DFED627A002504E0043538
:10260000ADB2A94240F2B58030F9153007EE103A6C
:102610009400B8EEC77A09EB040A00EB45038AED93
:10262000007AB3F902A007EE10AAB8EEC77A08EB59
:10263000040A8AED007AB3F904A007EE10AAB8EEF6
:10264000C77A0EEB040A8AED007AB3F9063007EE7A
:10265000103A531C9BB2B8EEC77A02329B00644416
:1026600092B284ED007A09EB030B08EB030A0EEB40
:102670000304B2F5006F6344CBED007ACAED007A33
:10268000C4ED007AC3ED007AB9D33A803D493E4C9F
:102690004FF4806000F094F83C494FF4806000F003
:1026A0008FF83B494FF4806000F08AF839494FF4C5
:1026B000806000F085F84FF480623749314811F0AE
:1026C00077FE4FF480623549304811F071FE4FF4C7
:1026D000806233492E4811F06BFE4FF4806231491D
:1026E0002C4811F065FE2378082B19D80133DBB292
:1026F00001993268237091424FF000033B8036D13C
:10270000264803B0BDE8F04FFFF70ABFB2F5006FEF
:10271000BCD2019A33689A4229D103B0BDE8F08F48
:10272000202383F3118805F023FC04F0C1FB04F09F
:102730008FFC1D488368002B16DD04F0B1FF04F008
:10274000D7FB05F02DFC194B1A689A4207D09969FE
:1027500093688A689A4202D2154804F009FB002364
:1027600083F311880123C3E705F0FAFCE5E7FFF7DF
:10277000BFFE3A80CDE700BF000B002012D600203C
:102780000000000010A6002010D6002010760020C7
:10279000104600201016002010C6002010960020C1
:1027A00010660020103600202C0B00205042012023
:1027B000408501080000000000000000000000004B
:1027C00000B50D4B83B01A680192B0F5806F019A85
:1027D0001B6804D09A420CD103B05DF804FB9A4206
:1027E00007D106480123002203B05DF804EB11F085
:1027F0005FBDFFF77DFE00BF000B00205085010884
:1028000010B50A4C0A4B22680A4884B040F6781189
:10281000039200220092412205F02AF8039A2368CD
:102820009A4201D104B010BDFFF762FE000B0020F8
:102830004129000818D60020000000000000000018
:1028400010B5114C82B02368019300F0D9FD48B156
:1028500000F0D6FD0128019A23680ED09A4210D1CB
:1028600002B010BD019A23689A4208BF012008D126
:1028700002B0BDE8104000F0ABBD9A4208BF002096
:10288000F6D0FFF735FE00BF000B0020000000006F
:1028900084B02DE9F0432DED048BA3B02EAC244F72
:1028A000DFF8909084E80F009FED1F9B2146802267
:1028B0006846FFF7D5FA3B6821934FF0000810AC4B
:1028C00018AE0025B1EE008A54F8040BFEF782FD25
:1028D000B0EE491AF0EE691A41EC100B10F030F826
:1028E00042464B4651EC100BFEF7E2FDFFF7E0F8D5
:1028F00007EE900AF4EEC87AF1EE10FAC8BF01357F
:10290000B442E1D1219A3B68022DCCBF00200120C6
:102910009A4206D123B0BDEC048BBDE8F04304B06D
:102920007047FFF7E5FD00BF000000403333E3BF11
:10293000000B0020000059400000000000000000D3
:102940002DE9F04FDFF86CB3D34BDBF81820D349F7
:10295000D348DFF864932DED028BC1B091611B6801
:10296000D0493F9303F05CFF9FEDC98B4FF0000A05
:102970000746D0461FAD80222946384603F0B8FFEF
:1029800000F0F6FC20B100F00BFD002840F079814A
:1029900000F0EEFC002800F09E8000F001FD002811
:1029A00040F09980C04E99F80040002C00F09E80C5
:1029B000702223A96846FFF753FA95E80F00FFF746
:1029C00067FF0446002840F0B88002F079F82046FE
:1029D00002F006FF204602F0E3FE3198FEF7FAFC13
:1029E000B0EE481AF0EE681A41EC100B0FF0A8FF99
:1029F0000022AE4B51EC100BFEF75AFDFFF758F8D2
:102A000007EE100AF0EE0C7AB4EEE77AF1EE10FA67
:102A100040F3A5803498FEF7DDFCB0EE481AF0EEE6
:102A2000681A41EC100B0FF08BFF00229F4B51EC0A
:102A3000100BFEF73DFDFFF73BF807EE100AF1EE35
:102A4000047AB4EEE77AF1EE10FA40F38880BAF136
:102A5000000F40F08480002E00F3DC8140F0E6811E
:102A60002F9C3698309B359AC0EBC030C4EBC434F1
:102A7000C3EB4404C2EB400202F24C4004F24C446B
:102A800000B224B203F024FA204603F009FAC82069
:102A900004F046FF202383F3118805F069FA04F05F
:102AA00007FADBF828301D9304F022FA05F078FAD3
:102AB000DBF800305B4508D0DBF818209B68926893
:102AC0009A4202D27A4804F053F9002383F3118822
:102AD0004FF001084FE700F04BFC002800F0C980E0
:102AE00099F800400026002C7FF462AF4FF0FF30D1
:102AF00000F06EFC012002F053FE204603F0E8F9DE
:102B0000204603F0CDF92246214620460A2302F052
:102B10002FFE224621460A23012002F029FE2246EA
:102B200021460A23022002F023FE0A2322462146E0
:102B30000320A04602F01CFE1DE7002003F0C8F9A8
:102B4000002003F0ADF9012002F04AFE012002F05E
:102B500027FE00221146022001F06AFF0BE734989D
:102B6000FEF738FCB0EE481AF0EE681A41EC100B94
:102B70000FF0E6FE00224D4B51EC100BFEF798FCD7
:102B8000FEF796FF07EE100AF1EE067AB4EEE77A4A
:102B9000F1EE10FA40F3CD80B8F1000F40F08E80D6
:102BA000BAF1000F00F015813198FEF713FCB0EE7A
:102BB000481AF0EE681A41EC100B0FF0C1FE00222B
:102BC0003A4B51EC100BFEF773FCFEF771FF07EE6A
:102BD000100AF1EE027AB4EEE77AF1EE10FA40F361
:102BE000138180222946384603F082FE4FF0000808
:102BF000202383F3118805F0BBF904F059F9DBF8C1
:102C0000284004F075F905F0CBF9DBF800305B459E
:102C100008D0DBF818209B6892689A4202D22448B8
:102C200004F0A6F8002383F311881C9BA4EB030A8D
:102C30001FFA8AFABAF5FA6F8CBF4FF0000A4FF00C
:102C4000010A2F9C369A309B3598C2EBC232C4EBF6
:102C5000C434C3EB4404C0EB420004F24C4400F221
:102C60004C4024B200B203F033F9204603F018F9C7
:102C700081E600F095FB00283FF432AF4FF49676E2
:102C800091E600F035FBC0F5A07006B28BE600BF00
:102C9000000000403333E3BF000B002070850108C3
:102CA0000416002060850108D4FEFFFF0000594093
:102CB000808501085042012014D600203198FEF78B
:102CC00089FBB0EE481AF0EE681A41EC100B0FF0D9
:102CD00037FE80222946384603F00AFE202383F37C
:102CE000118805F045F904F0E3F8DBF8284004F01A
:102CF000FFF805F055F9DBF800305B4508D0DBF84C
:102D000018209B6892689A4202D24E4804F030F82C
:102D10004FF0000888F311881D9BE41AA4B240F21A
:102D2000DC539C4269D84FF00108BAF1000F88D0FB
:102D30005EE73198FEF74EFBB0EE481AF0EE681AE7
:102D400041EC100B0FF0FCFD00223F4B51EC100B3F
:102D5000FEF7AEFBFEF7ACFE07EE100AF1EE027ACC
:102D6000B4EEE77AF1EE10FA39DDB8F1000FB0D128
:102D7000BAF1000F7FF435AF2D2003F0A9F840F22F
:102D80004C4003F08DF84FF4FA7004F0C9FD202395
:102D900083F3118805F0ECF804F08AF8DBF82830AA
:102DA0001C9304F0A5F805F0FBF8DBF800305B4558
:102DB00008D0DBF818209B6892689A4202D221481A
:102DC00003F0D6FF4FF0000888F311884FF0010A96
:102DD000D1E540F24C4003F07BF82D20D1E7802272
:102DE0002946384603F084FDB8F1000F7FF476AF32
:102DF000BAF1000F3FF425AFFAE6FFF721FDBAF173
:102E0000000F3FF41EAFF3E680222946384603F058
:102E10006FFDEDE62D2003F05BF840F24C4003F02F
:102E20003FF84FF4C87004F07BFD33E640F24C40AD
:102E300003F04EF82D2003F033F84FF4C87004F07F
:102E40006FFD27E680850108000059400000000062
:102E500000B5074B07491A68087883B00192019AB8
:102E60001B689A4202D103B05DF804FBFFF740FBF8
:102E7000000B002014D6002000000000000000001D
:102E800000B5074B07491A68087083B00192019A90
:102E90001B689A4202D103B05DF804FBFFF728FBE0
:102EA000000B002014D600200000000000000000ED
:102EB00080B5274C274AA3692749996186B0022328
:102EC00020251668009314224FF420730021CDE9C9
:102ED00001553020059601F0EBFF01F0F1FE0020D6
:102EE00001F026FF1D4E1E4F01F08AFE002002F069
:102EF00067FA00227F215D2002F092FAB04613E0CB
:102F000004F0CEFB03F0F4FF05F04AF82368A34277
:102F100007D0A2699B6892689A4202D2384603F0B1
:102F200027FF002383F3118801F042FF01F0A8FE80
:102F300085F3118805F01CF803F0BAFF04F088F857
:102F4000B368002BDCDC404605F00AF9D8E700BF87
:102F500050420120000B0020908501083C0B00200E
:102F6000B085010800000000000000000000000023
:102F70002DE9F04F8C4B83B01B6801930023421E58
:102F800000F27F24ADF8023012F8011FA2420B4478
:102F9000FAD1864ADFF81C92DFF81CA299F800C02B
:102FA0009AF800B0A2FB03235B0A0022154603F146
:102FB0001404ADF80220904640F27A21BDF8026078
:102FC000B1423FD3BDF80260B6B2865DA642BDF8FD
:102FD000026040F29880064476799E4280F09180AB
:102FE000BDF80220BDF802600136B6B2012592B2EA
:102FF000ADF80260AC46BDF80260B1422BD2BDF81C
:103000000260B6F5207F63D2002A00F0A980BDF8E7
:1030100002604FF0000B4FF42076BDF80270B7F558
:10302000207F5FD837464FF00108A7EB020EBEF1B4
:10303000270F43DCADF80260BDF80260B1424FF0EB
:103040000102BFD2002A40F0AC80ADF80220BDF8EA
:103050000260B142D3D3BDF80260B14260D3BDF883
:103060000260B6B2865D9E42BDF8026050D2064450
:103070007679A642BDF802604AD9BDF802700137E0
:10308000BFB2ADF80270BDF80270B7F5207FB6B2DE
:1030900058D2002EB8D0BDF80270B7F5207F57D3B4
:1030A000BDF80270B7F5207F1CD83746A7EB020E9B
:1030B0004FF00108BEF1270FC346BBDDB8F1000F8A
:1030C0006CD1002D67D1BB18394A5B10138010E01A
:1030D000BDF80260B6F5207F2AD3BDF80260B6F5D0
:1030E000207F2AD9324A0023138089F800308AF8D9
:1030F00000302D4B019A1B689A424AD103B0BDE8BB
:10310000F08FBDF802600136B6B2ADF8026055E747
:103110000136B6B2ADF80260BDF80260B1429ED28F
:10312000BDF80260B6F5207FFFF46EAFBDF8026017
:10313000BDF80260B6F5207FD4D8002AD2D000278F
:103140003E4672E7BDF80270B7F5207F10D2E6B1B7
:103150005AB901259446A8462A46AB46374664E745
:10316000BDF80230BDF80230BCE74FF0010B54E768
:10317000BDF80270B7F5207FB4D84FF00108C34600
:103180003746002E7FF451AFD7E74FF00108C34612
:10319000CEE7FFF7ADF989F800C094E78AF800B0F0
:1031A0008FE7002227E700BF000B0020CDCCCCCC5E
:1031B000480B002090DF002091DF0020000000007D
:1031C0002DE9F047454A464B926946499161ADF574
:1031D000227D01AE1B68A19330464FF4207200217E
:1031E00011F08EFFDFF800A1DFF800914FF0010829
:1031F0000027484604F07CFF01F0B2FDDAF80040F9
:103200000546002C3FD0012C34D100242A5D2B1917
:10321000D100587801F0380102F0F80301EB5012A8
:10322000C3EB82039BB21AB2002AC8BF9C46C4F308
:103230004E0E4FF00003D8BFBC46194618460A226E
:1032400006F80EC002F094FA002319460A22012063
:1032500002F08EFA002319460A22022002F088FAB0
:103260000023023419460A22032002F081FAB4F541
:10327000A06FCBD13046FFF77BFEB8F1000F27D10E
:1032800088F00108B5E715F804C0C4F34E0E00231A
:103290002CF0070C1A4618460A2106F80EC002F058
:1032A00067FA00231A460A21012002F061FA00237E
:1032B0001A460A21022002F05BFA002302341A4661
:1032C0000A21032002F054FAB4F5A06FDBD1D1E754
:1032D0004FF420713046FFF793F8D1E750420120B8
:1032E000000B0020A0850108380B00203C0B0020BB
:1032F00000B5074B07491A68088883B00192019A04
:103300001B689A4202D103B05DF804FBFFF7F0F8A6
:10331000000B0020480B002000000000000000000F
:1033200030B50E4C0E4B22680E4885B00025039236
:1033300040F678114022009504F09AFA0A4B009565
:1033400040220A484FF45E7104F092FA039A23680F
:103350009A4201D105B030BDFFF7CAF8000B00203A
:10336000C131000810E30020B12E000898DF0020D2
:1033700000B5094B09491A68087883B000300192FA
:10338000019A1B6818BF01209A4202D103B05DF870
:1033900004FBFFF7ADF800BF000B002090DF00201A
:1033A00000B5094B09491A68087883B000300192CA
:1033B000019A1B6818BF01209A4202D103B05DF840
:1033C00004FBFFF795F800BF000B002091DF002001
:1033D00000B5074B07491A68086083B00192019A4B
:1033E0001B689A4202D103B05DF804FBFFF780F836
:1033F000000B0020380B002000000000000000003F
:1034000000B5074B07491A68086883B00192019A12
:103410001B689A4202D103B05DF804FBFFF768F81D
:10342000000B0020380B002000000000000000000E
:1034300030B54368174D1A68296883B00446019176
:1034400012B304220270DA681B68520811469847CA
:103450002378042B18D0202383F3118804F0B8FDBF
:1034600003F066FD04F10800002104F049FB03F0BD
:103470007FFD04F0C5FD002383F31188019A2B68BA
:103480009A4204D103B030BD02232370E3E7FFF773
:103490002FF800BF000B002000000000000000001B
:1034A00070B5194D82B02B68019311F00C0F0C46CA
:1034B000064622D114F0200109D0019A2B689A42C5
:1034C0001FD1304602B0BDE87040FFF7B1BFE30640
:1034D0000DD57268136853B1019C2868844210D1DD
:1034E000D2683046520802B0BDE870401847019AD1
:1034F0002B689A4205D102B070BD044803F038FC35
:10350000D8E7FEF7F5FF00BF000B0020E0850108BB
:1035100070B5194D82B02B68019311F00C0F0C4659
:10352000064622D114F0200109D0019A2B689A4254
:103530001FD1304602B0BDE87040FFF779BFE30607
:103540000DD57268136853B1019C2868844210D16C
:10355000D2683046520802B0BDE870401847019A60
:103560002B689A4205D102B070BD044803F000FCFC
:10357000D8E7FEF7BDFF00BF000B0020E085010883
:1035800030B50F4D0F4C2A680F4B83B02046019287
:103590004FF6FF721A8000F013FC0C4B01992A6859
:1035A0000B480C4D2562636203F1240591420A4BDE
:1035B0002363C4E90A5001D103B030BDFEF798FF80
:1035C000000B0020A0EC002088EC002048A9010896
:1035D0001E010100003C0040460001000000000008
:1035E00070B52C4D03782A6882B0012B04460192F5
:1035F00024D06368E26A5989236B22F4F04223F4F1
:10360000F043090544BF42F4205243F42053C4E977
:103610000B23236A00221A606268236A52891A60A7
:10362000236A03225A60226A136843F0400313603E
:10363000019A2B689A422BD102B070BD164EB0424F
:103640000AD0D4E9083212680C339360A26A236A64
:1036500012680C339360CCE70346104A406A0A2193
:1036600008F0E6FF80B9B06A0B4B0D4A0A2108F05A
:10367000DFFF28B90B4A136C43F400431364E0E7FF
:10368000094803F075FBF5E7074803F071FBEAE72B
:10369000FEF72EFF000B0020A0EC002011350008E3
:1036A000A134000800380240C08501080000000075
:1036B00070B5456A174C2D68266882B00196EB609C
:1036C000436A1B685960456AC36A2D6843F4806386
:1036D0002B60836A1B68DA60836A1B685960826AA0
:1036E000036B126843F480631360436A1A681368BB
:1036F00043F001031360836A1A68136843F00103FF
:103700001360019A23689A4201D102B070BDFEF79E
:10371000EFFE00BF000B00200000000000000000D2
:1037200030B5104D81682B680F4A83B001930B6848
:1037300023F001030B608168946A03E0936A1B1B0A
:10374000C72B09D8086810F00100F7D1019A2B683F
:103750009A4204D103B030BD4FF0FF30F6E7FEF7D8
:10376000C7FE00BF000B00205042012000000000F7
:1037700030B5184D83B02B68019311F00C0F04463F
:103780000AD00378032B13D00622636822709A684C
:103790001AB100212046904763685B688BB101999C
:1037A0002A68914213D1204603B0BDE83040184743
:1037B000FFF7B6FF0622636822709A68002AE8D1F4
:1037C000EBE7019A2B689A4201D103B030BDFEF7B6
:1037D0008FFE00BF000B0020000000000000000072
:1037E000F0B5284D83B02B68019304F089FB03F0FA
:1037F000DFFB254B1E69F20715D55A69234C42F0B1
:1038000001025A612778BB1F012B2AD90522636860
:1038100022701B680BB120469847042F27D0022F37
:1038200025D003232370B30710D5174A174C5369CB
:1038300043F0020353612378032B1DD063689B6818
:103840000622227013B101211048984703F0D8FBDB
:10385000019A2B689A4213D103B0BDE8F04005F0FD
:1038600077BB019A2B689A420AD103B0F0BD0223BC
:103870002370B307EAD5D8E72046FFF751FFDDE70D
:10388000FEF736FE000B0020000005508CEC0020F7
:1038900030B50B4D0B4C2B6883B02046019300F0E4
:1038A0002FF9019A2B680848084D094921619A426D
:1038B000C4E9025001D103B030BDFEF719FE00BFCC
:1038C000000B00208CEC00209CA901080000055092
:1038D0001655020200000000000000000000000079
:1038E0002DE9F0412F4C0578266882B0012D019614
:1038F00006D0019A23689A4252D102B0BDE8F08105
:10390000294DA842F5D10E4690461F46274AE86841
:103910002B460C2108F08CFE002839D1D5E9023263
:10392000126828339360EB681A68042151611B68A0
:10393000C3F80C80EB681A6817611B68B6085E60F4
:103940002B694FB343F480232B61E968184A096857
:103950000B60EB6819680B6843F001030B60536B55
:1039600043F0010353630B214E2008F041FBD5E9DE
:103970000113DA6842F00102DA60DA6842F002020A
:10398000DA60CA6822F4804222F001021A60B0E7CD
:10399000084803F0EDF9C1E723F480232B61D4E755
:1039A000FEF7A6FD000B00208CEC0020713700080C
:1039B00000380240F085010800000000000000000F
:1039C00030B5184C0378226883B0022B019205D0E1
:1039D000019A23689A4223D103B030BD124B98421A
:1039E0000546F5D18168114A0B6823F4804323F022
:1039F00001030B608168CB6823F00F03CB60536B2E
:103A000023F0010353634E2008F01AFB019A236848
:103A10009A4205D1E86803B0BDE8304008F070BEB6
:103A2000FEF766FD000B00208CEC00200038024001
:103A300000B50F4B0278196883B0022A01910ED1AC
:103A400081680A6842F002020A6081680A6842F4EA
:103A500080420A6081680A6842F001020A60019AA5
:103A60001B689A4202D103B05DF804FBFEF740FDEB
:103A7000000B00200000000000000000000000001B
:103A800000B50F4B0278196883B0022A01910ED15C
:103A900081680A6822F002020A6081680A6842F4BA
:103AA00080420A6081680A6842F001020A60019A55
:103AB0001B689A4202D103B05DF804FBFEF718FDC3
:103AC000000B0020000000000000000000000000CB
:103AD00000B5074B83B01A680192019A1B689A429D
:103AE00004D103B05DF804EBFFF7D2BEFEF700FD92
:103AF000000B00200000000000000000000000009B
:103B000000B5084B83B01A68019201220270019A35
:103B10001B6800219A42416002D103B05DF804FBAA
:103B2000FEF7E6FC000B0020000000000000000093
:103B30002DE9F043254D83B02C680194DDF82890E1
:103B40000F4616469846044618B111B1204B9A42CA
:103B50002FD9204803F00CF9202383F3118804F0B7
:103B600007FA03F0A5F92378012B02D0194803F0D6
:103B7000FFF84246314620464B466760FFF7B0FEED
:103B80000223237003F0B4F904F00AFA124B1A6806
:103B90009A4204D0996993688A689A420FD30023A5
:103BA00083F31188019A2B689A420CD103B0BDE8C7
:103BB000F0839307CDD1B8F1000FCDD1C9E7074805
:103BC00003F0D6F8EBE7FEF793FC00BF000B0020F4
:103BD000FCFF0300208601085042012010860108E6
:103BE00030B51C4D83B02B680193044658B3202395
:103BF00083F3118804F0BCF903F05AF92378022BFF
:103C000002D0154803F0B4F82046FFF7D9FE01238F
:103C1000237003F06DF904F0C3F9104B1A689A424F
:103C200004D0996993688A689A4208D3002383F381
:103C30001188019A2B689A4209D103B030BD084817
:103C400003F096F8F2E7044803F092F8CFE7FEF7A6
:103C50004FFC00BF000B00203086010850420120BD
:103C600010860108000000000000000000000000B5
:103C700030B51C4D83B02B680193044658B3202304
:103C800083F3118804F074F903F012F92378022BFE
:103C900002D0154803F06CF82046FFF7C9FE042354
:103CA000237003F025F904F07BF9104B1A689A424F
:103CB00004D0996993688A689A4208D3002383F3F1
:103CC0001188019A2B689A4209D103B030BD084887
:103CD00003F04EF8F2E7044803F04AF8CFE7FEF7A6
:103CE00007FC00BF000B0020408601085042012065
:103CF0001086010800000000000000000000000025
:103D000030B51C4D83B02B680193044658B3202373
:103D100083F3118804F02CF903F0CAF82378022BFE
:103D200002D0154803F024F82046FFF7A9FE03232C
:103D3000237003F0DDF804F033F9104B1A689A424F
:103D400004D0996993688A689A4208D3002383F360
:103D50001188019A2B689A4209D103B030BD0848F6
:103D600003F006F8F2E7044803F002F8CFE7FEF7A5
:103D7000BFFB00BF000B00206086010850420120FD
:103D80001086010800000000000000000000000094
:103D900000B5074B83B01A680192019A1B689A42DA
:103DA00004D103B05DF804EBFFF7EABBFEF7A0FB1C
:103DB000000B0020000000000000000000000000D8
:103DC00000B50A4B83B01A68019201220270019972
:103DD0001A6800239142C0E9013305D10C3003B0C9
:103DE0005DF804EB04F0FCB9FEF782FB000B002049
:103DF00070B51E4D82B02B6801930E46044670B319
:103E000069B3202383F3118804F0B2F803F050F86B
:103E10002378013B012B02D9154802F0A9FF204667
:103E20006660FFF7DDFB0223237003F061F804F006
:103E3000B7F8104B1A689A4204D0996993688A6857
:103E40009A4208D3002383F31188019A2B689A427F
:103E500009D102B070BD084802F08AFFF2E70448B9
:103E600002F086FFCDE7FEF743FB00BF000B00200A
:103E70008086010850420120708601080000000081
:103E80002DE9F041214D82B02C6801940E469046F8
:103E90001F46044600B171BB1D4802F069FF202394
:103EA00083F3118804F064F803F002F82378022BFE
:103EB00002D0174802F05CFF03203B4642463146E1
:103EC00020702046FFF7F4FB03F012F804F068F8C6
:103ED000104B1A689A4204D0996993688A689A428A
:103EE0000ED3002383F31188019A2B689A420BD1D9
:103EF00002B0BDE8F081002BCED0002ACFD1CBE7B5
:103F0000054802F035FFECE7FEF7F2FA000B00205F
:103F100090860108504201207086010800000000D0
:103F200000B5084B83B01A680192019A1B689A4247
:103F300005D1054803B05DF804EB02F019BFFEF7A8
:103F4000D7FA00BF000B0020B08601080000000077
:103F500070B51849184C0A78236882B001934FF461
:103F6000B47303FB00F562B1019A23689A421FD132
:103F700012481349B1FBF5F102B0BDE8704005F0FD
:103F800087BC1048104A01260E70802141830F49DA
:103F90000F4805F00DFB019A23689A4208D10748A3
:103FA0000749B1FBF5F102B0BDE8704005F0D8BC9F
:103FB000FEF79EFAF8EC0020000B002004500120D0
:103FC00000BD0105000C0240C0860108E8EC00209D
:103FD000A04C0120000000000000000000000000D4
:103FE000F0B51A4D1A4C2E78276883B00197174602
:103FF00066B1019A23689A4226D116481649B1FB48
:10400000F7F103B0BDE8F04005F042BC134EDFF815
:1040100054C0736002464FF0010E80200B4685F8B5
:1040200000E03146ACF81A000D4805F0C1FA019ADB
:1040300023689A4208D107480749B1FBF7F103B05A
:10404000BDE8F04005F08CBCFEF752FAF8EC002019
:10405000000B00200450012000BD0105E8EC002009
:10406000A04C0120000C02400000000000000000F5
:10407000F0B5114C83B02368019305460F480E46F6
:10408000174605F0A5FC0E4805F022FB33462A46EC
:104090000C490B4805F054FA019A23689A4208D15A
:1040A00006480949B1FBF7F103B0BDE8F04005F05F
:1040B0002FBCFEF71DFA00BF000B002004500120AA
:1040C000A04C0120E8EC002000BD0105000000002C
:1040D00010B50C4C0C4B22680C4882B00192802227
:1040E0001A8305F075FC0A4805F0F2FA019A236874
:1040F000084900209A42087001D102B010BDFEF7B5
:10410000F7F900BF000B0020000C02400450012012
:10411000A04C0120F8EC002000000000000000008E
:1041200010B50C4C0C4B22680C4882B001928022D6
:104130001A8305F075FC0A4805F07AFA019A23689B
:10414000084900209A42087001D102B010BDFEF764
:10415000CFF900BF000B0020000C024004500120EA
:10416000A04C0120F8EC002000000000000000003E
:1041700070B5154D154A164B2968164E9E6082B0D3
:1041800000244FF400601080019194701146124891
:104190005C6001221A60DC6005F08AF90F4B104E5A
:1041A00010485C60202219469A60DC601E6005F0B1
:1041B00027FB019A2B689A4204D102B0BDE87040F7
:1041C000FFF7AEBFFEF794F9000B0020E4EC0020EF
:1041D000E8EC0020213F0008A04C0120D4EC002096
:1041E00000BD010504500120000000000000000097
:1041F0002DE9F04F394A3A4B126883B001240192FD
:104200001C70002963D04FF00008364CC246C346EC
:10421000C1464746C446434647F6FF7E1DE0AB45D0
:10422000A8BFAB46024432F9026CB2F90450B44262
:10423000B8BF3446B645A8BFB6464D4545DCA8458F
:10424000A8BFA846B2F90220BA420EDC0433924558
:104250009BB2A8BF924699420CD95D1C6A0030F906
:1042600015506545DBDDAC46DCE704339BB2994273
:104270001746F2D8A4EB0E04ACEB0B0CA7EB0A0725
:10428000A9EB0808A4B21FFA8CFCBFB21FFA88F889
:10429000154A12491480019C0968144BA2F802C007
:1042A0009780B0F8F8C4B0F8FA64A2F80680B0F8C5
:1042B000FC54B0F8FE24A3F800C08C425E809D80C0
:1042C000DA8008D103B0BDE8F08FA946BAE7884686
:1042D0000F468C46DCE7FEF70BF900BF000B002011
:1042E000F9EC00200080FFFF04ED0020FCEC002032
:1042F00070B53F4B3F4C1A78236882B0012A019376
:1043000005D0019A23689A4270D102B070BD3A4933
:104310003A4B4D6C45F480354D644E6A002546F4A9
:1043200080364E624D621D61DD60196A21F0010127
:104330001962996921F003019961996941F00101BC
:104340009961996921F0F0019961196A21F00A01D6
:104350001962996921F00C019961996821F0700145
:104360009960996841F050019960996821F4803111
:1043700021F007019960996841F007019960196877
:1043800021F440711960DA629D625A61196A21F064
:1043900010011962996921F440719961996921F0BC
:1043A000807121F4E0419961996941F4C0419961BA
:1043B000196A21F0A00119629A639A6942F40062B5
:1043C0009A611A6A22F480621A621A6A42F0110231
:1043D0001A621A6842F001021A6020B10090684621
:1043E00000F076F98DE7064B0093F8E7FEF780F8CA
:1043F0008C4F0120000B002000380240004001409B
:10440000F141000800000000000000000000000072
:1044100070B5114C82B0236801930E4615462023D7
:1044200083F3118803F0D4FD02F082FD0B4B0C489E
:10443000C3E9006503F094FE02F09AFD03F0E0FD8D
:10444000002383F31188019A23689A4201D102B0B4
:1044500070BDFEF74DF800BF000B002020020120C8
:104460000CED002000000000000000000000000033
:1044700070B5114C82B0236801930E461546202377
:1044800083F3118803F0A4FD02F052FD0B4B0C489E
:10449000C3E9006503F064FE02F06AFD03F0B0FDBD
:1044A000002383F31188019A23689A4201D102B054
:1044B00070BDFEF71DF800BF000B002004000120B6
:1044C0000CED0020000000000000000000000000D3
:1044D0002DE9F04F624B63499A69634B916185B056
:1044E0001B6803935E4B9B6993F821305B0700F1D7
:1044F000AD805E4803F0FCFD5C4803F0F9FD584BCD
:104500009B6993F8212012F0040240F09F80584DDF
:1045100058482B6801680446406805EB830304EBA8
:10452000810103F50279430001F10808019343D0AA
:10453000DFF850B1504BDFF85CA1012018F81250A1
:1045400018F8006019F8121019F8004005F0550C21
:10455000770806F0550613F80CC09E5D01F0550E65
:104560004CEA061649084FEA540C01F0550104F0D4
:1045700055040CF0550C6D0813F80EE0595C1C5DE9
:1045800013F80CC00BF8126005F0550507F055073D
:1045900041EA0C114EEA041E0AF812E05D5D0AF8C9
:1045A0000010DF5D0199013245EA071591420BF8D1
:1045B000005000F10200C1D1304B31493148324D39
:1045C0000422FBF755FF314B314932480422FBF7F7
:1045D0004FFF314B314932480422FBF749FF314B41
:1045E000314932480422FBF743FFDFF8D4C0286882
:1045F0009CF80070224A264900EBC71302F14006DE
:1046000014881C8054885C804C889C80043231F86B
:10461000044BDC80964203F10803F1D1092F11D13C
:10462000234B00221B688CF800204FF42071984720
:104630002B68204A204993420B6006BF1F4B2B601A
:104640002A604FE701378CF800704BE7064B039A5E
:104650001B689A4202D105B0BDE8F08FFDF748FF14
:104660005042012090890108000B00200CED002031
:1046700020020120040001204C0B0020DCFD002062
:1046800098F20020D8F20020CC0B002044FE00203D
:10469000ACFE0020ECFE002010FE00209AF200206C
:1046A000D9F2002078FE0020AEFE0020EDFE0020B2
:1046B000ECFF0020D8F30020D00B0020D8F8002019
:1046C000D8FD0020000000000000000000000000F5
:1046D0002DE9F04F494A0168494B116085B000212E
:1046E0000E461B684748039303F0A2FC4FF4AF61EA
:1046F000454B009641224548454DDFF84891454CD1
:10470000DFF844A1444F03F0B3F8444B444A186027
:10471000136BC5F804A043F480534FF002184FF414
:104720007A5B13632846C5E90298A5F800B0FBF749
:10473000E7FD2046C4E901A9C4F80C80A4F800B044
:10474000FBF7DEFD05F13400C5E90EA9C5F8408090
:10475000A5F834B0FBF7D4FD324DC4F8408004F125
:104760003400C4E90EA9A4F834B0FBF7C9FD314602
:1047700040F20C42384610F0C3FCDFF8D0902A4AD1
:104780006E604FF400634FF080082E812A606B81C9
:10479000264CC5F80C80C7F80894FFF7F9FA2946AB
:1047A0002348244DFFF724FB07F5027307F10802A5
:1047B0004FF480711E48FFF763FB314620464FF4EB
:1047C000037210F09DFC1C4B1C4AC4F8089208347C
:1047D0001A611946C3E900641948C3E9028505F066
:1047E0000FFB074B039A1B689A4205D1144805B08A
:1047F000BDE8F04F05F04CBBFDF77AFEECFF002062
:10480000000B00200CED0020D144000820ED00201A
:10481000DCFD002044FE00202002012018ED0020D5
:104820000038024010020120114400080400012059
:10483000A0EC002071440008F0FF00202C030800C9
:104840008C4F0120000020410000FA45EFBEADDE94
:1048500010B50B4C0B48236882B0019303F0A8FD00
:10486000094803F085FF019A23689A4205D105485B
:1048700002B0BDE8104003F0D3BDFDF739FE00BF24
:10488000000B0020E00B0020D80B002000000000EF
:1048900030B50F4C83B0236801930D4608B1FFF784
:1048A00057FB4FF47A700B4900FB05F000F2E7303C
:1048B000A1FB0030800903F033F8019A23689A4283
:1048C00004D103B0BDE83040FFF72ABCFDF710FE6D
:1048D000000B0020D34D621000000000000000001B
:1048E0002DE9F0432DED028BDFF8FC80344BD8F836
:1048F000182034491B68344DDFED348A9FED348A2B
:10490000344E354F916183B00193202383F3118896
:1049100003F02EFB02F0CCFA304803F099F828603F
:1049200002F0E6FA03F03CFBD8F80030434508D02B
:10493000D8F818209B6892689A4202D2284802F060
:1049400017FA4FF0000989F311882B681A8972BB96
:1049500030E0D3E9001202EB890393ED007A31F8DD
:104960001900C8EE877A09F10109FCEEE77A17EE23
:10497000903A9CB22146FFF78BFF07EE904AF8EE83
:10498000E77A4FF47A7367EE887AFCEEE77A17EEEF
:10499000902A90B203FB00F000F2E730A7FB003052
:1049A000800902F0BDFF2B681A894A4502DD327882
:1049B000002ACED100230B48337003F059FEA4E740
:1049C000000B0020A08901083006012000007A4475
:1049D0006666A63FD40B0020D34D62102C06012042
:1049E000B0890108D80B00205042012000000000CF
:1049F00010B50A4C0A4B22680A4884B04FF4FC7187
:104A0000039200220092402202F032FF039A2368B0
:104A10009A4201D104B010BDFDF76AFD000B0020E1
:104A2000E1480008380601200000000000000000F6
:104A300030B51E4C85B0236803930F2815D00E287F
:104A400015D81B4A00EB400002EB800219480368AE
:104A500099B963B103992368174D012499422C70C9
:104A600008BF114617D0FDF743FD002AEED1039A87
:104A700023689A42F7D105B030BD02290E4D04BF1C
:104A80000021297063B1039923680120994228709D
:104A9000E9D10848114605B0BDE8304003F090B8B0
:104AA0000192FFF7D5FE019AEDE700BF000B002051
:104AB000C08E01082C060120D40B0020000000004D
:104AC00000B5084B08491A6883B000200192019A8A
:104AD0001B6808709A4202D103B05DF804FBFDF731
:104AE00007FD00BF000B0020D40B002000000000D9
:104AF00000B5074B07491A68087083B00192019A04
:104B00001B689A4202D103B05DF804FBFDF7F0FC8C
:104B1000000B002030080120000000000000000011
:104B200000B5064B83B01A680192019A1B689A423D
:104B300002D103B05DF804FBFDF7DAFC000B0020A6
:104B400000B5064B83B01A680192019A1B689A421D
:104B500002D103B05DF804FBFDF7CAFC000B002096
:104B600010B5104C104B226882B0019201221A70CD
:104B7000202383F3118803F02BFA02F0D9F90B48B4
:104B800003F04EFD02F0F4F903F03AFA002383F348
:104B90001188019A23689A4201D102B010BDFDF735
:104BA000A7FC00BF000B00203C080120F40B0020F4
:104BB00030B50E4D0E4C2B6883B00193FEF788FF85
:104BC000206808B10FF0D4FF4FF496400FF0C8FFF3
:104BD00001992A682060B0FA80F35B099142C3F121
:104BE000000001D103B030BDFDF782FC000B0020B6
:104BF0003408012000000000000000000000000058
:104C000030B5174D174C2B78226885B0012B0392D5
:104C100020D000F03DFC144B1B78ABB9B0F5964F9B
:104C200015D8124A124B12681B68124900920246AC
:104C30001148FEF77DFF01232B700020039A2368A3
:104C40009A420BD105B030BDB0F5165FE9D94FF0EF
:104C5000FF30F3E70848FEF7C3FFDAE7FDF748FC4B
:104C600032080120000B0020330801203808012001
:104C700034080120009C01088CEC0020000000009A
:104C800010B50B4C0B48236882B0019303F090FBE6
:104C9000094803F06DFD019A23689A4205D1054841
:104CA00002B0BDE8104003F0BBBBFDF721FC00BF24
:104CB000000B0020FC0B0020F40B00200000000083
:104CC00030B5154D154C164B2268286883B00192FB
:104CD00001221A7008B10FF04BFF4FF416500FF07D
:104CE0003FFF286098B10F4D286808B10FF040FFD2
:104CF0004FF416500FF034FFB0FA80F35B092860D0
:104D00005842019A23689A4204D103B030BD4FF053
:104D1000FF30F6E7FDF7ECFB34080120000B002024
:104D200033080120380801200000000000000000C6
:104D300000B5074B07491A68087083B00192019AC1
:104D40001B689A4202D103B05DF804FBFDF7D0FB6B
:104D5000000B0020310801200000000000000000CE
:104D600000B50D4A0D4B1278196883B0019142B11C
:104D70000B4AD26812681268120302D4094A1068FA
:104D800001E0094A1068019A1B689A4202D103B0F7
:104D90005DF804FBFDF7ACFB33080120000B00209D
:104DA0008CEC0020380801203408012000000000AD
:104DB00000B50E4A0E4B1278196883B001914AB1C2
:104DC000019A1B689A420FD10A4803B05DF804EBC0
:104DD000FEF796BF019A1B689A4205D1054803B0B9
:104DE0005DF804EBFEF744BFFDF782FB31080120BC
:104DF000000B00208CEC00200000000000000000F0
:104E000070B5274D82B02B6801930646012203211D
:104E10006E2000F005FC044630B1019A2B689A42DE
:104E200020463AD102B070BD32464E216E2000F0CD
:104E3000F7FB04460028F0D1442E07D00246B721E4
:104E40006E2000F0EDFBB8B10446E6E70122B72181
:104E50006E2000F0E5FB0028F6D1224603216E20EB
:104E600000F0DEFB0028EFD1032211216E2000F0BC
:104E7000D7FB78B10446D0E7224603216E2000F02C
:104E8000CFFB0028E0D10A2211216E2000F0C8FBE0
:104E90000028D9D1034B1E71BFE7FDF729FB00BFE6
:104EA000000B00204008012000000000000000006E
:104EB0002DE9F04F8FB0DFF80084DDF860C0D8F83E
:104EC00000400D940CF1FF355C1EB3F5207F9DF87A
:104ED00064909DF868B00C44154400F21282BCF551
:104EE000F07F00F20E82B1F5207F0E4600F21282B2
:104EF000B2F5F07F174600F21082A14280F00482E2
:104F0000B4F5207F00F20082AA4280F00082B5F55D
:104F1000F07F00F2FC81B9F1400F824600F0B081D1
:104F2000B9F1800F23D0B9F1200F00F09C8100234C
:104F3000CDE90033BBF1400F2FD0BBF1800F00F063
:104F4000CB81BBF1200F00F0B9810023CDE9023302
:104F5000002203216E2000F063FBA0B30D9AD8F865
:104F600000309A4240F0E2810FB0BDE8F08F9A071E
:104F700040F0D681CC4A8C085900661CA2FB010186
:104F8000A2FB030204EB930406EBD2030093BBF1F4
:104F9000400F06EBD1030193CFD11CF0010F40F07D
:104FA000C281C14B7D084FEA4C026F1CA3FB021269
:104FB000A3FB0C1307EB9303029307EB920305EBA0
:104FC0005C050393C4E702465B216E2000F028FBDA
:104FD0000028C3D15046FFF713FF0028BED1024678
:104FE00003216E2000F01CFB0028B7D1C6F3072375
:104FF0001A4608216E20049300F012FB0028ADD160
:10500000F3B21A4609216E20059300F009FB00282F
:10501000A4D1C7F307231A460A216E20069300F095
:10502000FFFA00289AD1FBB21A460B216E20079393
:1050300000F0F6FA002891D1C4F307231A460C2198
:105040006E20089300F0ECFA002887D1E3B21A46EC
:105050000D216E20099300F0E3FA00287FF47EAF63
:10506000C5F307231A460E216E200A9300F0D8FAE2
:1050700000287FF473AFEBB21A460F216E200B931A
:1050800000F0CEFA00287FF469AF049A35216E2033
:1050900000F0C6FA00287FF461AF059A36216E2031
:1050A00000F0BEFA00287FF459AF089A37216E202D
:1050B00000F0B6FA00287FF451AF099A38216E202B
:1050C00000F0AEFA00287FF449AF069A39216E202D
:1050D00000F0A6FA00287FF441AF079A3A216E202B
:1050E00000F09EFA00287FF439AF0A9A3B216E2027
:1050F00000F096FA00287FF431AF0B9A3C216E2025
:1051000000F08EFA00287FF429AF009B3D21C3F305
:1051100007226E2000F084FA00287FF41FAF9DF86C
:1051200000203E216E2000F07BFA00287FF416AFAD
:10513000019B3F21C3F307226E2000F071FA002883
:105140007FF40CAF9DF8042040216E2000F068FA37
:1051500000287FF403AF029B4121C3F307226E2096
:1051600000F05EFA00287FF4F9AE9DF80820422195
:105170006E2000F055FA00287FF4F0AE039B432127
:10518000C3F307226E2000F04BFA00287FF4E6AE4E
:105190009DF80C2044216E2000F042FA00287FF494
:1051A000DDAE012203216E2000F03AFA00287FF4E0
:1051B000D5AE4A4693216E2000F032FA00287FF4E3
:1051C000CDAE5A4694216E2000F02AFA00287FF4D2
:1051D000C5AE012203216E2000F022FA00287FF4E0
:1051E000BDAE0134A31B07EE103ADFED307AB8EE06
:1051F000477ABAF1440F77EEC77A00F09980B0EEA3
:10520000006AF2EE006AE7EE066A77EEA77AB0EE81
:10521000667A67EE877ADFED266A87EEA67AFCEE7D
:10522000C77ACDED007A009B9521C3F307226E204B
:1052300000F0F6F900287FF491AE9DF80020962149
:105240006E2000F0EDF900287FF488AE194B01358F
:10525000EF1BA41B5F801C8083F804A083F80590DB
:1052600083F806B07AE610495A00A1FB030306EB67
:105270005303A1FB0212009306EB5203019359E67C
:10528000D9074DD4084A74085900661CA2FB0101D5
:10529000A2FB030204EB530406EB9203009306EB1C
:1052A0009103019346E600BFABAAAAAA00002244DC
:1052B0000000A34440080120000B0020244A4FEACC
:1052C0004C03A2FB0C1CA2FB032307EB530307EBCD
:1052D0005C02029203933BE61CF0030F23D11C4BAC
:1052E000BD084FEA4C026F1CA3FB0212A3FB0C1378
:1052F00007EBD303029307EBD20305EB9C05039363
:1053000026E66FF0070029E66FF0030026E66FF04F
:10531000040023E66FF0010020E66FF002001DE6B6
:105320006FF005001AE66FF0060017E6FDF7E0F8EB
:10533000F2EE006A37EE267ADFED066A67EE277A2C
:1053400087EEA67AFCEEC77ACDED007A6BE700BF58
:10535000ABAAAAAA0000244400000000000000003C
:1053600010B5114C86B02368059300F0E9F80F4999
:105370000F4804F005FE012200210D4804F098FEBC
:1053800020237822CDE901330092A023B422F0211A
:105390000220FFF78DFD059A23689A4201D106B0DD
:1053A00010BDFDF7A5F800BF000B0020109C010800
:1053B0006850012000000000000000000000000014
:1053C00030B5164C83B023680193054600230222B2
:1053D00003216E208DF8033000F022F928B1019AE4
:1053E00023689A4218D103B030BD0DF103020421A5
:1053F0006E2000F0C5F80028F1D19DF80320012DA2
:105400000CBF02F0FB0242F0040204216E208DF872
:10541000032000F005F9E2E7FDF76AF8000B002031
:10542000F0B51A4C83B005462368019300200E4660
:105430001746FFF7C5FF28B1019A23689A4222D187
:1054400003B0F0BD024603216E2000F0E9F8002809
:10545000F2D12A4623216E2000F0E2F80028EBD199
:10546000324624216E2000F0DBF80028E4D1019AB6
:1054700023689A4207D13A4625216E2003B0BDE841
:10548000F04000F0CDB8FDF733F800BF000B00206E
:1054900010B50A4B0A4A1988146858881B7982B0DB
:1054A000442B019400FB01F00199136818BF4000E0
:1054B000994201D102B010BDFDF71AF84008012051
:1054C000000B0020000000000000000000000000B1
:1054D00070B5164E16483368154D82B005224FF44C
:1054E0008071019309F07CF820246B6983F4807348
:1054F0006B61012002F014FA631E13F0FF04F4D173
:105500004FF4807140F206222983094809F068F8B7
:10551000019A33689A4206D10649074802B0BDE8AD
:10552000704004F0E5BAFCF7E3FF00BF000B002079
:1055300000040240509C0108D04C012000000000F3
:1055400000B50C4A0C4B1278196883B0012A0191FE
:10555000019A1B6804D09A4209D103B05DF804FB9C
:105560009A4204D103B05DF804EBFFF7B1BFFCF73A
:10557000BFFF00BFD04C0120000B00200000000046
:105580002DE9F041224C234E88B0002335688DF878
:105590001830804620468DF814101746079504F001
:1055A000BFFB2378012B0CD00420012306AACDE9F0
:1055B00001300092414605AA204604F041FB054611
:1055C00068B9134804F0CCFB9DF818303B700020FC
:1055D000079A33689A4218D108B0BDE8F081204696
:1055E00004F016FB23780C4A052B106004D0084801
:1055F00004F0B6FB68B2EBE7204604F0C1FA23786A
:10560000012BF4D1FFF764FFF1E7FCF771FF00BF56
:10561000D04C0120000B00204808012000000000B1
:10562000F0B5214C214E89B0336807930746002519
:1056300020468DF818108DF819208DF8145004F0BC
:105640006FFB2378012B0CD0042205AB019502924D
:1056500000933946022306AA204604F0F1FA0546D3
:1056600048B9114804F07CFB0020079A33689A423D
:1056700017D109B0F0BD204604F0CAFA23780C4ACD
:10568000052B106004D0084804F06AFB68B2ECE710
:10569000204604F075FA2378012BF4D1FFF718FFA8
:1056A000F1E7FCF725FF00BFD04C0120000B0020E4
:1056B0004808012000000000000000000000000079
:1056C00070B5294D82B02B6801930E46032841D84E
:1056D000DFE800F01A120A02012922D9234A53698D
:1056E00083F40063536116E0012926D91F4A5369E8
:1056F00083F4806353610EE0012918D91B4A536972
:1057000083F04003536106E001291CD9174A53690D
:1057100083F020035361019A2B689A4218D102B09A
:1057200070BD124B4FF4006229B15A83F3E70F4B5F
:1057300040220029F9D11A83EDE70C4B4FF4806227
:105740000029F8D0F1E7094B20220029F3D0ECE73B
:10575000FCF7CEFE0024E0B231460134FFF7B0FF83
:10576000042CF8D1D7E700BF000B0020000C02404A
:1057700070B5094D094E2C6882B000EB40000194D1
:10578000315434180198296862708842A37001D19D
:1057900002B070BDFCF7ACFE000B00204C080120ED
:1057A00000B50D4B83B01A68019201280BD90B4943
:1057B0004A6982F004024A61019A1B689A4209D13F
:1057C00003B05DF804FB054A042108B95183F3E7EF
:1057D0001183F1E7FCF78CFE000B0020000402406F
:1057E00000B50E4B83B01A68019201280BD90C4901
:1057F0004A6982F480424A61019A1B689A420AD13E
:1058000003B05DF804FB064A4FF4804108B95183A8
:10581000F2E71183F0E7FCF76BFE00BF000B0020FE
:10582000000C02400000000000000000000000002A
:10583000F0B50D4F0D4C3B6883B0002501932E460B
:10584000E8B200210135FFF73BFF042D267066709A
:10585000A67004F10304F3D1019A3B689A4201D186
:1058600003B0F0BDFCF744FE000B00204C08012003
:1058700030B5094B094D044607CB83B02B68019323
:10588000206001982B6861609842A26001D103B04A
:1058900030BDFCF72DFE00BF4C080120000B00209E
:1058A0002DE9F043254E83B034680194042A9DF815
:1058B0002890144605460F46984639D9B9F1000F8D
:1058C00014BF00224FF08052640002EB0863013CD9
:1058D0001C4405F00F0527F01F07202383F31188D0
:1058E00002F046FB3D4301F0E3FA154B1035DD6055
:1058F0001C6101F0FDFA02F053FB124B1A689A4248
:1059000004D0996993688A689A420DD3002383F37F
:105910001188BFF36F8FBFF34F8F019A33689A429C
:105920000AD103B0BDE8F083074801F021FAEDE7A2
:10593000064801F01DFAC1E7FCF7DAFD000B002074
:1059400090ED00E050420120E09C0108C09C01085D
:1059500030B5224D224C2B68224A85B003936368F0
:1059600043F004036360536A43F48033536220239B
:1059700083F3118802F0FCFA01F09AFA17221A4B0D
:10598000E260236101F0B4FA02F00AFB174B1A68D7
:105990009A4204D0996993688A689A4218D3002081
:1059A00080F31188BFF36F8FBFF34F8F03231D2246
:1059B00000904FF00051FFF773FF094A536843F01E
:1059C00001035360039A2B689A4205D105B030BD9C
:1059D000074801F0CDF9E2E7FCF78AFD000B002053
:1059E00090ED00E000ED00E00900001050420120C1
:1059F000E09C010800000000000000000000000022
:105A000070B51A4D1A4C1B4E0FCD0FC49EB02A68AC
:105A1000336822801D93EFF30981682203A8FCF705
:105A20001FFA154B9D6AAA0714D4EB0708D5124B31
:105A300008995B6B114A00910D4880210FF0B0FB73
:105A40001D9A33689A420FD109481EB0BDE87040D4
:105A500001F08EB9099A5B6B0092A4F11000084A1C
:105A600080210FF09DFBE0E7FCF742FDA49C0108BC
:105A700058080120000B002000ED00E0809C010888
:105A8000609C010800000000000000000000000011
:105A900000B51F4B0278196883B00191E2B11D4A2D
:105AA0004FF4005111834278EAB11A4A4FF4805101
:105AB00011838278F2B1174A4FF480411183C27882
:105AC000FAB9144A4FF400415183019A1B689A4273
:105AD0001CD103B05DF804FB0E4A4FF40051518312
