:020000040800F2
:1000000000040020C1010008B13F0008B13F000812
:1000100051310008B13F0008B13F0008B13F00086E
:10002000B13F0008B13F0008B13F0008D1610008AE
:10003000B13F0008B13F0008B13F000871CB000894
:10004000B13F0008A19A0008319C0008819C00087B
:10005000B13F0008B13F0008E1970008319800085F
:1000600081980008D198000821990008318A000879
:10007000818A0008D18A0008218B0008718B000852
:10008000C18B0008118C000821950008219E0008F2
:10009000919E0008419F0008F19F00087199000897
:1000A000B13F0008B13F0008D1C50008B13F0008CA
:1000B00031C7000871C70008B1C70008B1AD00081A
:1000C000F1AE0008B13F0008B13F0008B13F0008A1
:1000D000B13F0008B13F0008B13F000831CC000833
:1000E000019A0008F19A0008419B000811C6000817
:1000F000B13F0008B13F0008B13F0008618C000823
:10010000B13F000881A10008F1C70008B13F000815
:10011000B13F0008B13F000891C50008B13F000899
:10012000B18C0008018D0008518D0008A18D0008D8
:10013000F18D0008B13F0008919B0008B13F000815
:10014000B13F0008B13F0008B13F0008D1C100082D
:10015000418E0008918E0008E18E0008B13F000832
:10016000B13F0008B13F0008B13F0008B13F0008AF
:10017000E19B0008B13F0008811F0008B13F000863
:10018000B13F0008B13F0008B13F0008B13F00088F
:10019000B13F0008B13F0008B13F0008B13F00087F
:1001A000B13F0008B13F0008B13F0008B13F00086F
:1001B000B13F0008B13F0008B13F0008B13F00085F
:1001C00072B62E4880F3098840F20000CCF200009D
:1001D0004EF63471CEF20001086040F20000C0F229
:1001E000F0004EF68851CEF2000108604FF000009A
:1001F000E1EE100A4EF63C71CEF2000108600620D6
:1002000080F31488BFF36F8F0CF05AFE4FF0553017
:100210001B491C4A91423CBF41F8040BFAE71A49BA
:10022000164A91423CBF41F8040BFAE71749184AB5
:10023000184B9A423EBF51F8040B42F8040BF8E702
:1002400000201549154A91423CBF41F8040BFAE7DA
:1002500003F096FE124C134DAC4203DA54F8041B23
:100260008847F9E701F074F90F4C104DAC4203DAFE
:1002700054F8041B8847F9E703F092BE00080020F9
:10028000000000200004002000040020681B01087A
:10029000000800202C12002030120020903900208D
:1002A000C0010008C0010008C0010008C00100082A
:1002B0002DE9F04F2DED108AC1F80CD0D0F80CD0FC
:1002C000BDEC108ABDE8F08F03F0B2FF04F0E8FF48
:1002D000002383F311882846A047002004F080FD06
:1002E00004F0C6FF03F084FF04F0A2FB03F0A0FFBC
:1002F00004F0D6FF00DFFEE7000000000000000071
:1003000081F0004102E000BF83F0004330B54FEAC6
:1003100041044FEA430594EA050F08BF90EA020F33
:100320001FBF54EA000C55EA020C7FEA645C7FEAC6
:10033000655C00F0E2804FEA5454D4EB5555B8BFE9
:100340006D420CDD2C4480EA020281EA030382EA5A
:10035000000083EA010180EA020281EA0303362DEC
:1003600088BF30BD11F0004F4FEA01314FF4801CBF
:100370004CEA113102D0404261EB410113F0004FD1
:100380004FEA03334CEA133302D0524263EB430388
:1003900094EA050F00F0A780A4F10104D5F1200E26
:1003A0000DDB02FA0EFC22FA05F2801841F1000181
:1003B00003FA0EF2801843FA05F359410EE0A5F155
:1003C00020050EF1200E012A03FA0EFC28BF4CF086
:1003D000020C43FA05F3C01851EBE37101F000453C
:1003E00007D54FF0000EDCF1000C7EEB00006EEB49
:1003F0000101B1F5801F1BD3B1F5001F0CD34908D3
:100400005FEA30004FEA3C0C04F101044FEA445229
:1004100012F5800F80F09A80BCF1004F08BF5FEAB0
:10042000500C50F1000041EB045141EA050130BD90
:100430005FEA4C0C404141EB010111F4801FA4F133
:100440000104E9D191F0000F04BF01460020B1FA88
:1004500081F308BF2033A3F10B03B3F120020CDAC0
:100460000C3208DD02F1140CC2F10C0201FA0CF09E
:1004700021FA02F10CE002F11402D8BFC2F1200C03
:1004800001FA02F120FA0CFCDCBF41EA0C019040B9
:10049000E41AA2BF01EB0451294330BD6FEA040402
:1004A0001F3C1CDA0C340EDC04F11404C4F12002ED
:1004B00020FA04F001FA02F340EA030021FA04F3FF
:1004C00045EA030130BDC4F10C04C4F1200220FA56
:1004D00002F001FA04F340EA0300294630BD21FA94
:1004E00004F0294630BD94F0000F83F4801306BF5A
:1004F00081F480110134013D4EE77FEA645C18BF4E
:100500007FEA655C29D094EA050F08BF90EA020FE4
:1005100005D054EA000C04BF1946104630BD91EADC
:10052000030F1EBF0021002030BD5FEA545C05D1DF
:100530004000494128BF41F0004130BD14F580041E
:100540003CBF01F5801130BD01F0004545F0FE4192
:1005500041F470014FF0000030BD7FEA645C1ABFC7
:10056000194610467FEA655C1CBF0B46024650EAFE
:10057000013406BF52EA033591EA030F41F400212A
:1005800030BD00BF90F0000F04BF0021704730B5B0
:100590004FF4806404F132044FF000054FF0000185
:1005A00050E700BF90F0000F04BF0021704730B546
:1005B0004FF4806404F1320410F0004548BF40421B
:1005C0004FF000013EE700BF42004FEAE2014FEA70
:1005D00031014FEA02701FBF12F07F4393F07F4F4B
:1005E00081F06051704732F07F4208BF704793F04E
:1005F0007F4F04BF41F40021704730B54FF4607461
:1006000001F0004521F000411CE700BF50EA010263
:1006100008BF704730B54FF000050AE050EA01020C
:1006200008BF704730B511F0004502D5404261EB7C
:1006300041014FF4806404F132045FEA915C3FF4BD
:10064000D8AE4FF003025FEADC0C18BF03325FEA5A
:10065000DC0C18BF033202EBDC02C2F1200300FA0B
:1006600003FC20FA02F001FA03FE40EA0E0021FA30
:1006700002F11444BDE600BF0000000000000000CD
:1006800070B54FF0FF0C4CF4E06C1CEA11541DBF28
:100690001CEA135594EA0C0F95EA0C0F00F0DEF8F3
:1006A0002C4481EA030621EA4C5123EA4C5350EAD8
:1006B000013518BF52EA033541F4801143F4801329
:1006C00038D0A0FB02CE4FF00005E1FB02E506F0BA
:1006D0000042E0FB03E54FF00006E1FB03569CF00F
:1006E000000F18BF4EF0010EA4F1FF04B6F5007F15
:1006F00064F5407404D25FEA4E0E6D4146EB060687
:1007000042EAC62141EA55514FEAC52040EA5E500F
:100710004FEACE2EB4F1FD0C88BFBCF5E06F1ED8B9
:10072000BEF1004F08BF5FEA500E50F1000041EBF0
:10073000045170BD06F0004646EA010140EA02009D
:1007400081EA0301B4EB5C04C2BFD4EB0C0541EABF
:10075000045170BD41F480114FF0000E013C00F3D4
:10076000AB8014F1360FDEBF002001F0004170BDF8
:10077000C4F10004203C35DA0C341BDC04F1140411
:10078000C4F1200500FA05F320FA04F001FA05F29D
:1007900040EA020001F0004221F0004110EBD3706A
:1007A00021FA04F642EB06015EEA430E08BF20EA96
:1007B000D37070BDC4F10C04C4F1200500FA04F339
:1007C00020FA05F001FA04F240EA020001F00041CB
:1007D00010EBD37041F100015EEA430E08BF20EA3E
:1007E000D37070BDC4F1200500FA05F24EEA020E86
:1007F00020FA04F301FA05F243EA020321FA04F0B5
:1008000001F0004121FA04F220EA020000EBD3706B
:100810005EEA430E08BF20EAD37070BD94F0000F6B
:100820000FD101F00046400041EB010111F4801F9F
:1008300008BF013CF7D041EA060195F0000F18BF50
:10084000704703F00046520043EB030313F4801F8C
:1008500008BF013DF7D043EA0603704794EA0C0F46
:100860000CEA135518BF95EA0C0F0CD050EA41065C
:1008700018BF52EA4306D1D181EA030101F00041D9
:100880004FF0000070BD50EA410606BF1046194601
:1008900052EA430619D094EA0C0F02D150EA01360D
:1008A00013D195EA0C0F05D152EA03361CBF10464E
:1008B00019460AD181EA030101F0004141F0FE41ED
:1008C00041F470014FF0000070BD41F0FE4141F471
:1008D000780170BD70B54FF0FF0C4CF4E06C1CEA71
:1008E00011541DBF1CEA135594EA0C0F95EA0C0F26
:1008F00000F0A7F8A4EB050481EA030E52EA0335E1
:100900004FEA013100F088804FEA03334FF0805501
:1009100045EA131343EA12634FEA022245EA11152E
:1009200045EA10654FEA00260EF000419D4208BFDF
:10093000964244F1FD0404F5407402D25B084FEA8C
:100940003202B61A65EB03055B084FEA32024FF438
:1009500080104FF4002CB6EB020E75EB030E22BF95
:10096000B61A754640EA0C005B084FEA3202B6EB55
:10097000020E75EB030E22BFB61A754640EA5C0004
:100980005B084FEA3202B6EB020E75EB030E22BF94
:10099000B61A754640EA9C005B084FEA3202B6EB95
:1009A000020E75EB030E22BFB61A754640EADC0054
:1009B00055EA060E18D04FEA051545EA16754FEAB6
:1009C00006164FEAC30343EA52734FEAC2025FEAD4
:1009D0001C1CC0D111F4801F0BD141EA00014FF063
:1009E00000004FF0004CB6E711F4801F04BF014334
:1009F0000020B4F1FD0C88BFBCF5E06F3FF6AFAE50
:100A0000B5EB030C04BFB6EB020C5FEA500C50F1DF
:100A1000000041EB045170BD0EF0004E4EEA113162
:100A200014EB5C04C2BFD4EB0C0541EA045170BD69
:100A300041F480114FF0000E013C90E645EA060EAD
:100A40008DE60CEA135594EA0C0F08BF95EA0C0FDB
:100A50003FF43BAF94EA0C0F0AD150EA01347FF423
:100A600034AF95EA0C0F7FF425AF104619462CE7FA
:100A700095EA0C0F06D152EA03353FF4FDAE10465D
:100A8000194622E750EA410618BF52EA43067FF4AE
:100A9000C5AE50EA41047FF40DAF52EA43057FF43E
:100AA000EBAE12E7000000000000000000000000B4
:100AB0004FEA410212F5001215D211D56FF4787386
:100AC000B3EB625212D94FEAC12343F0004343EA29
:100AD000505311F0004F23FA02F018BF4042704704
:100AE0004FF00000704750EA013005D111F000408E
:100AF00008BF6FF0004070474FF00000704700BF24
:100B000053B94AB9002908BF00281CBF4FF0FF3174
:100B10004FF0FF3000F074B9ADF1080C6DE904CE70
:100B200000F006F8DDF804E0DDE9022304B07047C8
:100B30002DE9F047089E04468846002B4BD18A4297
:100B4000154667D9B2FA82F24AB1C2F1200701FA1A
:100B500002F320FA07F7954047EA030894404FEA6A
:100B6000154E230CB8FBFEF71FFA85FC0EFB178809
:100B700043EA084307FB0CF1994209D9EB1807F146
:100B8000FF3080F01B81994240F21881023F2B44D4
:100B90005B1AA4B2B3FBFEF00EFB103344EA03442D
:100BA00000FB0CFCA44509D92C1900F1FF3380F09F
:100BB0000781A44540F2048102382C4440EA0740F2
:100BC000A4EB0C0400271EB1D4400023C6E9004367
:100BD0003946BDE8F0878B4209D9002E00F0EB8042
:100BE0000027C6E9000138463946BDE8F087B3FA68
:100BF00083F7002F47D18B4202D3824200F2FA8062
:100C0000841A61EB030301209846002EE0D0C6E968
:100C10000048DDE702B9FFDEB2FA82F2002A40F0B6
:100C20008F80491B4FEA154E1FFA85F80127B1FB4B
:100C3000FEFC230C0EFB1C1143EA014308FB0CF1E4
:100C4000994207D9EB180CF1FF3002D2994200F219
:100C5000CD808446591AA3B2B1FBFEF00EFB1014EE
:100C600043EA044408FB00F8A04507D92C1900F119
:100C7000FF3302D2A04500F2B6801846A4EB080468
:100C800040EA0C409FE7C7F1200CBB4022FA0CFE63
:100C90004EEA030E01FA07F420FA0CF521FA0CF3E0
:100CA0004FEA1E482543B3FBF8F92C0C08FB193317
:100CB0001FFA8EFA44EA034309FB0AF49C4202FA43
:100CC00007F200FA07F10BD91EEB030309F1FF301D
:100CD00080F087809C4240F28480A9F1020973442D
:100CE0001B1BADB2B3FBF8F008FB103345EA03441D
:100CF00000FB0AFAA24508D91EEB040400F1FF33F9
:100D00006BD2A24569D90238744440EA0940A0FB7D
:100D10000289A4EB0A044C45C2464B4654D351D039
:100D2000002E69D0B1EB0A0564EB030404FA0CFC55
:100D3000FD40FC404CEA0505C6E90054002747E7A2
:100D4000C2F1200320FA03F7954001FA02F021FADC
:100D500003F34FEA154E3843010CB3FBFEF71FFABD
:100D600085F80EFB173341EA034107FB08F38B427A
:100D700004FA02F407D9691807F1FF3C2FD28B421D
:100D80002DD9023F2944CB1A81B2B3FBFEF00EFBF2
:100D9000103341EA034100FB08F38B4207D969187D
:100DA00000F1FF3C17D28B4215D902382944C91AE9
:100DB00040EA07473BE73746304609E70746E7E69C
:100DC0001846FBE64145ABD2B8EB020A69EB0E02CE
:100DD00001381346A4E76046E9E7184695E76746F9
:100DE000D1E781467CE702382C4447E7ACF1020C9E
:100DF0002B442FE7384608E73746E9E600000000B5
:100E0000704700BF0000000000000000000000006C
:100E1000844641EA000313F003036DD1403A41D305
:100E200051F8043B40F8043B51F8043B40F8043BC4
:100E300051F8043B40F8043B51F8043B40F8043BB4
:100E400051F8043B40F8043B51F8043B40F8043BA4
:100E500051F8043B40F8043B51F8043B40F8043B94
:100E600051F8043B40F8043B51F8043B40F8043B84
:100E700051F8043B40F8043B51F8043B40F8043B74
:100E800051F8043B40F8043B51F8043B40F8043B64
:100E900051F8043B40F8043B51F8043B40F8043B54
:100EA000403ABDD2303211D351F8043B40F8043BF4
:100EB00051F8043B40F8043B51F8043B40F8043B34
:100EC00051F8043B40F8043B103AEDD20C3205D304
:100ED00051F8043B40F8043B043AF9D2043208D0FC
:100EE000D2071CBF11F8013B00F8013B01D30B886E
:100EF00003806046704700BF082A13D38B078DD04C
:100F000010F003038AD0C3F10403D21ADB071CBF1D
:100F100011F8013B00F8013B80D331F8023B20F887
:100F2000023B7BE7043AD9D3013A11F8013B00F8C0
:100F3000013BF9D20B7803704B7843708B78837048
:100F40006046704700000000000000000000000044
:100F5000A2EB0300704700BF02780B78012A28BF7C
:100F60009A42F5D16DE9044540EA0104CDE90267F2
:100F70006FF0000C4FEA447212B380EA010414F0DF
:100F8000070F6AD100F0070420F0070004F0030502
:100F900021F007014FEAC505F0E8042314F0040F1F
:100FA000F1E804670CFA05F462EA040266EA040652
:100FB0000AD063EA0403624667EA0407664603E070
:100FC000F0E80423F1E8046782FA4CF582EA0604AB
:100FD000A4FA8CF46CBB83FA4CF583EA0705A5FAF6
:100FE0008CF595B950E9022351E9026782FA4CF574
:100FF00082EA0604A4FA8CF483FA4CF583EA070526
:10100000A5FA8CF52543DBD09CB92DBAB5FA85F449
:1010100024F0070427FA04F1DDE9026723FA04F358
:1010200003F0FF0001F0FF01FDE80445A0EB010023
:10103000704724BAB4FA84F424F0070426FA04F1C1
:10104000DDE9026722FA04F202F0FF0001F0FF017D
:10105000FDE80445A0EB0100704714F0030F3CD1FC
:1010600010F0030428D150F8082B51F8083B82FAFD
:101070004CF582EA0305A5FA8CF55DB950F8042C0D
:1010800051F8043C82FA4CF582EA0305A5FA8CF586
:10109000002DE8D02DBAB5FA85F424F0070423FA20
:1010A00004F122FA04F202F0FF0001F0FF01FDE872
:1010B0000445A0EB010070474FEAC40420F0030090
:1010C00050F8082B21F0030151F8083B0CFA04F406
:1010D00062EA040263EA0403C9E710F003041AD0C9
:1010E000A1EB040120F00300E40750F8042B06D024
:1010F0000FD28B785FFAA2F4E41A06D12BB1CB7829
:101100005FFAB2F4E41A00D11BB920465DF8104B27
:10111000704701F1040150F8042BCC0721F00301C2
:1011200051F8043B48D824D222F07F4482FA4CF58F
:1011300094EA1325A5FA8CF50AD165B951F8043B58
:1011400084EA0204B4EB036F0ED150F8042BEBE7F2
:101150004FEA132355E035F07F454DD10878FDE87F
:101160000445C0F1000070474FEA126203F0FF032C
:1011700047E002EA1C4482FA4CF594EA1345A5FACA
:101180008CF50AD165B951F8043B84EA0204B4EB4A
:10119000034F0CD150F8042BEBE74FEA134330E038
:1011A00015EA1C4528D10B884FEA124229E04FEA84
:1011B000124203EA1C4324E002F0FF0482FA4CF5D9
:1011C00094EA1365A5FA8CF50AD165B951F8043B88
:1011D00084EA0204B4EB032F09D150F8042BEBE7A7
:1011E0004FEA13630DE015F0FF0F05D10B684FEACE
:1011F000122223F07F4304E04FF00000FDE8044595
:10120000704712BA1BBA82FA4CF482EA0304A4FAB9
:101210008CF5B5FA85F402FA04F203FA04F34FEA06
:101220001260FDE80445A0EB136070470000000069
:1012300090F800F06DE9024520F007016FF0000C16
:1012400010F0070491F820F040F049804FF00004BE
:101250006FF00700D1E9002391F840F000F1080099
:1012600082FA4CF2A4FA8CF283FA4CF3A2FA8CF3D1
:101270004BBBD1E9022382FA4CF200F10800A4FA38
:101280008CF283FA4CF3A2FA8CF3E3B9D1E904238C
:1012900082FA4CF200F10800A4FA8CF283FA4CF3C3
:1012A000A2FA8CF37BB9D1E9062301F1200182FA7D
:1012B0004CF200F10800A4FA8CF283FA4CF3A2FA83
:1012C0008CF3002BC6D0002A04BF04301A4612BA91
:1012D000B2FA82F2FDE8024500EBD2007047D1E994
:1012E000002304F00305C4F100004FEAC50514F023
:1012F000040F91F840F00CFA05F562EA05021CBFF4
:1013000063EA050362464FF00004A9E7000000000D
:1013100001F0FF01102A2BDB10F0070F08D010F8A6
:10132000013B013A8B422DD010F0070F42B3F6D1AA
:10133000F0B441EA012141EA014122F007047FF0C3
:1013400000070023F0E80256083C85EA010586EA1A
:10135000010685FA47F5A3FA87F586FA47F6A5FA56
:1013600087F68EB9EED1F0BC01F0FF0102F0070262
:1013700032B110F8013B013A83EA010313B1F8D10D
:101380000020704701387047002D06BF35460338EE
:10139000073815F0010F07D1013015F4807F02BF27
:1013A000013015F4C03F0130F0BC0138704700BF78
:1013B0004FF0FF3C06E000BF4FF0010C02E000BF21
:1013C0004FF0010C4DF804CD4FEA410C7FEA6C5C04
:1013D0004FEA430C18BF7FEA6C5C1BD001B050EAA7
:1013E000410C0CBF52EA430C91EA030F02BF90EA92
:1013F000020F0020704710F1000F91EA030F58BF51
:10140000994208BF90422CBFD8176FEAE37040F0B2
:10141000010070474FEA410C7FEA6C5C02D150EA50
:10142000013C07D14FEA430C7FEA6C5CD6D152EA0B
:10143000033CD3D05DF8040B704700BF84461046D0
:1014400062468C461946634600E000BF01B5FFF7CF
:10145000B7FF002848BF10F1000F01BD4DF808ED9F
:10146000FFF7F4FF0CBF012000205DF808FB00BF70
:101470004DF808EDFFF7EAFF34BF012000205DF8CA
:1014800008FB00BF4DF808EDFFF7E0FF94BF012017
:1014900000205DF808FB00BF4DF808EDFFF7CEFF18
:1014A00094BF012000205DF808FB00BF4DF808ED57
:1014B000FFF7C4FF34BF012000205DF808FB00BF28
:1014C0004FEA410C7FEA6C5C02D150EA013C0AD140
:1014D0004FEA430C7FEA6C5C02D152EA033C02D132
:1014E0004FF0000070474FF001007047000000000F
:1014F00070B5124C124D23682A6884B00646ADF8C8
:1015000006101B680F49039220460522984723685E
:1015100002221B680DF10601204698472368BDF89A
:1015200006201B68314620469847039A2B689A424A
:1015300001D104B070BD00F043F800BFE4380020D2
:101540000008002020090108000000000000000041
:1015500000B5124B83B01B68019304F099FE02F0B2
:101560003FFD01F09DFD0E490E4806F0B1F902F075
:101570000FFB02F06DF801F023F801F0F9FB0A4AC5
:101580000A490B4802F0FCFB02F052FA00F010FC92
:10159000642003F065FB00F02BF8F9E70008002059
:1015A00020080020E4380020040800200C08002057
:1015B00030120020000000000000000000000000C9
:1015C00000B5084B83B01A680192019A1B689A42D1
:1015D00005D1054803B05DF804EB02F069BDFFF7E3
:1015E000EFFF00BF000800203009010800000000E4
:1015F00010B50A4C0A4B22680A4884B040F67811AC
:10160000039200220092402203F0D2FA039A236848
:101610009A4201D104B010BDFFF7D2FF00080020AC
:101620009116000840120020000000000000000099
:1016300010B5134C82B02368019300F029FC0128F7
:101640000CD000F025FC48B100F022FC0228019AE1
:1016500023680ED09A4210D102B010BD019A2368BF
:101660009A4208BF022008D102B0BDE8104000F045
:10167000F7BB9A4208BF0120F6D0FFF7A1FF00BFD9
:101680000008002000000000000000000000000032
:101690002DE9F041904C914EA369914A9A61A4B012
:1016A000336890499048239302F0DAFB0023ADF8A9
:1016B0000430074602932022029382F3118803F03C
:1016C000D7FD02F095FDA56A02F0B2FD03F0E8FD3A
:1016D0002368A34205D0A2699B6892689A42C0F031
:1016E0009C80002383F31188802203A9384602F0EE
:1016F0001FFC00F085FB002844D100F099FB002876
:1017000040D113AA0DF16C0C52F8041B029B6245E8
:101710000B440293F8D1029B0D9A002BB8BF0733FC
:10172000DB10B2F5616F02933FD8109BB3F5616F88
:1017300077D803A93846802202F0FAFB139C1A9846
:10174000149B199AC0EBC030C4EBC434C3EB4404FF
:10175000C2EB400202F24C4004F24C4400B224B20C
:1017600001F05EFF204601F043FF05F10A01284623
:1017700003F0B6FA239A33689A4240F0AB8024B063
:10178000BDE8F08100F0FCFAC0F5A07000B2ADF841
:101790000400BDF804301BB2002BB8BF5B42092B1C
:1017A000AFDC0023ADF80430ABE700283BDBC0DD45
:1017B0004E48DFF8408101F033FF40F24C4001F029
:1017C00017FFD8F80020AB1A9BB2ADF80630002AFC
:1017D0005ED0BDF80630B3F5FA6FC6D9202383F387
:1017E000118803F045FD02F003FDA76A02F020FD19
:1017F00003F056FD2368A34207D0A2699B68926854
:101800009A4202D23A4802F053FC002383F3118833
:10181000C8F80070FFF70CFFA7E7354802F048FC56
:101820005FE7002885DADFF8C4800A2740F24C40E1
:1018300001F0F6FE404601F0DBFE013FF6D1DFF895
:10184000B480D8F800704FB1EF1BBFB2ADF806708E
:10185000BDF80630B3F5FA6F87D9BFE7202383F3CD
:10186000118803F005FD02F0C3FCA76A02F0E0FC5A
:1018700003F016FD2368A34204D0A2699B68926816
:101880009A421FD3002383F31188C8F80070DBE766
:10189000202383F3118803F0EBFC02F0A9FCA76A74
:1018A00002F0C6FC03F0FCFC2368A34204D0A2694A
:1018B0009B6892689A4209D3002383F31188C8F881
:1018C000007086E70A4802F0F3FBDBE7084802F005
:1018D000EFFBF1E7FFF774FEB02A002000080020BC
:1018E000600901085009010830120020B4FBFFFF15
:1018F000700901083C1200200000000000000000F8
:1019000080B5234C234AA36923491668996186B0A0
:10191000022320250A220021009305964FF420730C
:10192000CDE9015530201D4E1D4F00F0C9FF00F0DC
:10193000CFFE002000F004FFB04600F069FE13E087
:1019400003F04EF802F074FC03F0AAFC2368A342F3
:1019500007D0A2699B6892689A4202D2384602F088
:10196000A7FB002383F3118800F02AFF00F090FE0C
:1019700085F3118803F07CFC02F03AFC02F008FDCC
:10198000B368002BDCDC404603F04AFDD8E700BF1B
:10199000B02A00200008002080090108300800203B
:1019A000A009010800000000000000000000000085
:1019B0002DE9F04FA24C83B0236801930022431E0F
:1019C00000F27F25ADF8022013F8011F9D420A4462
:1019D000FAD19C4B90F88012A3FB0223A1F1510293
:1019E000262A4FEA5323984A00F2098101211170F7
:1019F0000022DFF868E2DFF85CC2ADF8022015468D
:101A0000904640F27A2103F114060127BDF8022026
:101A1000914241D3BDF8022092B2825CB242BDF83D
:101A2000022040F2D680024452799A4280F0CF8060
:101A3000BDF80250BDF802208CF80070013292B25D
:101A4000ADF80220BDF802209142ADB23AD2BDF805
:101A50000220B2F5207F74D3BDF80220B2F5207FBA
:101A600080F08F80BDF80220B2F5207F00F28F80D9
:101A7000002D00F08C804FF0000A5246A946AAEBD8
:101A8000090BBBF1270F52DCADF80220BDF8022094
:101A900091424FF00105BDD2002D63D1ADF8025047
:101AA000BDF8022091420DD2BDF80220B2F5207F90
:101AB00080F0B980DFF8A491BDF80230BDF80230A3
:101AC00067E00025BDF802209142C0F09080BDF88B
:101AD000022092B2825C9A42BDF802207ED2024479
:101AE0005279B242BDF8022078D9BDF802908EF842
:101AF000007009F101091FFA89F9ADF80290BDF8EB
:101B000002A0BAF5207F92B2F1467BD2D2B1BDF8E5
:101B100002A0BAF5207F1DD2E5B98CF8005001254E
:101B2000A9469246AAEB090BBBF1270FACDD551B6A
:101B300009EB0A034549464AA8B25B1008801380A6
:101B40002EE0F146002DB7D0BDF802208EF80080BF
:101B50004FF42072BDF802A0BAF5207F19D8924642
:101B6000A9468CE7BDF802209142AAD2BDF8022016
:101B7000B2F5207F9ED3BDF80220B2F5207F57D367
:101B80000025BDF80220B2F5207F7FF671AFDFF8A7
:101B9000CC902E4A2F49108800230B7089F8003012
:101BA00007EE900ADFED2C6A019A2368F8EEE77AD7
:101BB00086EEA77AF3EE097AB4EE677AF1EE10FAC0
:101BC000C8BF3E209A4238D103B0BDE8F08FBDF8BF
:101BD0000220013292B2ADF8022017E7013292B230
:101BE000ADF80220BDF802209142BFF470AFBDF8FD
:101BF0000220B2F5207FA4D3BDF8022032E70021F5
:101C00001170F5E6BDF802A0BAF5207F07D3BDF844
:101C100002A0BAF5207FBCD8002AA0D128E7002A6C
:101C20007FF47AAF1EE7BDF80220B2F5207FA8D27C
:101C3000BDF80230DFF82490ABE7FFF7C1FC00BF2E
:101C400000080020CDCCCCCCB81B0020C21B00204B
:101C50003C080020C01B00200040C444C61B0020DC
:101C60002DE9F04F2DED028B3C4A3D4B92693D49E9
:101C70009161ADF5237D01AC1B68A19320464FF423
:101C8000207200210BF044FCDFF8E880364FDFF8CB
:101C9000E890364E9FED368A0125304603F088FBEA
:101CA00000F066FDD8F80030012B834641D0022BAE
:101CB00023D083B12046FFF77BFE388038B107EE92
:101CC000900AF8EEE77A88EE277A89ED007A75B9FE
:101CD00085F00105E1E71BF80320C3F34E01023351
:101CE00022F00702B3F5A06F6254F4D1E2E74FF49B
:101CF00020712046FFF7FCFBEAE74FF0000A1BF8D3
:101D00000A300BEB0A02DB00527803F0380303EBD6
:101D10005213CAF34E029B000120A3540AF1020A97
:101D200001F01EF9002001F03BF9BAF5A06FE6D1F1
:101D3000C0E74FF0000A1BF80A30CAF34E0223F046
:101D400007030120A3540AF1020A01F029F9002037
:101D500001F006F9BAF5A06FEDD1ABE7B02A00208B
:101D60000008002090090108C41B00203008002052
:101D70000040C4442C080020BC1B002000000000D0
:101D800000B5074B07491A68088883B00192019A89
:101D90001B689A4202D103B05DF804FBFFF710FC08
:101DA000000800203C0800200000000000000000A7
:101DB00030B50E4C0E4B22680E4885B000250392BC
:101DC0004FF4AF614022009502F0F2FE0A4B0095FD
:101DD00040220A484FF41E7102F0EAFE039A23687B
:101DE0009A4201D105B030BDFFF7EAFB00080020A0
:101DF000611C0008401E002001190008C81B0020BB
:101E000000B5074B07491A68087883B00192019A18
:101E10001B689A4202D103B05DF804FBFFF7D0FBC8
:101E200000080020C01B002000000000000000008F
:101E300000B5074B07491A68087883B00192019AE8
:101E40001B689A4202D103B05DF804FBFFF7B8FBB0
:101E500000080020C61B0020000000000000000059
:101E600000B5074B07491A68086083B00192019AD0
:101E70001B689A4202D103B05DF804FBFFF7A0FB98
:101E8000000800202C0800200000000000000000D6
:101E900000B5074B07491A68086883B00192019A98
:101EA0001B689A4202D103B05DF804FBFFF788FB80
:101EB000000800202C0800200000000000000000A6
:101EC00030B5104D81682B680F4A83B001930B68C1
:101ED00023F001030B608168946A03E0936A1B1B83
:101EE000C72B09D8086810F00100F7D1019A2B68B8
:101EF0009A4204D103B030BD4FF0FF30F6E7FFF750
:101F00005FFB00BF00080020B02A00200000000096
:101F100030B5184D83B02B68019311F00C0F0446B7
:101F20000AD00378032B13D00622636822709A68C4
:101F30001AB100212046904763685B688BB1019914
:101F40002A68914213D1204603B0BDE830401847BB
:101F5000FFF7B6FF0622636822709A68002AE8D16C
:101F6000EBE7019A2B689A4201D103B030BDFFF72D
:101F700027FB00BF00080020000000000000000058
:101F8000F0B5284D83B02B68019303F039F902F0C6
:101F9000AFF9254B1E69F20715D55A69234C42F05B
:101FA00001025A612778BB1F012B2AD905226368D9
:101FB00022701B680BB120469847042F27D0022FB0
:101FC00025D003232370B30710D5174A174C536944
:101FD00043F0020353612378032B1DD063689B6891
:101FE0000622227013B101211048984702F0A8F987
:101FF000019A2B689A4213D103B0BDE8F04004F077
:1020000007B9019A2B689A420AD103B0F0BD0223A6
:102010002370B307EAD5D8E72046FFF751FFDDE785
:10202000FFF7CEFA0008002000000550B82300207A
:1020300030B50B4D0B4C2B6883B02046019300F05C
:102040002FF9019A2B680848084D094921619A42E5
:10205000C4E9025001D103B030BDFFF7B1FA00BFAF
:1020600000080020B8230020CC150108000005500E
:1020700016550202000000000000000000000000F1
:102080002DE9F0412F4C0578266882B0012D01968C
:1020900006D0019A23689A4252D102B0BDE8F0817D
:1020A000294DA842F5D10E4690461F46274AE868BA
:1020B0002B460C2106F074FF002839D1D5E90232F5
:1020C000126828339360EB681A68042151611B6819
:1020D000C3F80C80EB681A6817611B68B6085E606D
:1020E0002B694FB343F480232B61E968184A0968D0
:1020F0000B60EB6819680B6843F001030B60536BCE
:1021000043F0010353630B214E2006F029FCD5E96F
:102110000113DA6842F00102DA60DA6842F0020282
:10212000DA60CA6822F4804222F001021A60B0E745
:10213000084801F0BDFFC1E723F480232B61D4E7F9
:10214000FFF73EFA00080020B8230020111F000806
:1021500000380240B0090108000000000000000043
:1021600030B5184C0378226883B0022B019205D059
:10217000019A23689A4223D103B030BD124B984292
:102180000546F5D18168114A0B6823F4804323F09A
:1021900001030B608168CB6823F00F03CB60536BA6
:1021A00023F0010353634E2006F002FC019A2368DA
:1021B0009A4205D1E86803B0BDE8304006F058BF48
:1021C000FFF7FEF900080020B82300200038024085
:1021D00000B50F4B0278196883B0022A01910ED125
:1021E00081680A6842F002020A6081680A6842F463
:1021F00080420A6081680A6842F001020A60019A1E
:102200001B689A4202D103B05DF804FBFFF7D8F9CE
:102210000008002000000000000000000000000096
:1022200000B50F4B0278196883B0022A01910ED1D4
:1022300081680A6822F002020A6081680A6842F432
:1022400080420A6081680A6842F001020A60019ACD
:102250001B689A4202D103B05DF804FBFFF7B0F9A6
:102260000008002000000000000000000000000046
:1022700000B5074B83B01A680192019A1B689A4215
:1022800004D103B05DF804EBFFF7D2BEFFF798F975
:102290000008002000000000000000000000000016
:1022A00000B5084B83B01A68019201220270019AAE
:1022B0001B6800219A42416002D103B05DF804FB23
:1022C000FFF77EF900080020000000000000000079
:1022D0002DE9F043254D83B02C680194DDF828905A
:1022E0000F4616469846044618B111B1204B9A4243
:1022F0002FD9204801F0DCFE202383F3118802F05F
:10230000B7FF01F075FF2378012B02D0194801F0C7
:10231000CFFE4246314620464B466760FFF7B0FE8F
:102320000223237001F084FF02F0BAFF124B1A68F7
:102330009A4204D0996993688A689A420FD300231D
:1023400083F31188019A2B689A420CD103B0BDE83F
:10235000F0839307CDD1B8F1000FCDD1C9E707487D
:1023600001F0A6FEEBE7FFF72BF900BF0008002005
:10237000FCFF0300E0090108B02A0020D009010891
:1023800030B51C4D83B02B680193044658B320230D
:1023900083F3118802F06CFF01F02AFF2378022BEF
:1023A00002D0154801F084FE2046FFF7D9FE012334
:1023B000237001F03DFF02F073FF104B1A689A4240
:1023C00004D0996993688A689A4208D3002383F3FA
:1023D0001188019A2B689A4209D103B030BD084890
:1023E00001F066FEF2E7044801F062FECFE7FFF776
:1023F000E7F800BF00080020F0090108B02A00201B
:10240000D0090108000000000000000000000000EA
:1024100030B51C4D83B02B680193044658B320237C
:1024200083F3118802F024FF01F0E2FE2378022BEF
:1024300002D0154801F03CFE2046FFF7C9FE0423F8
:10244000237001F0F5FE02F02BFF104B1A689A4240
:1024500004D0996993688A689A4208D3002383F369
:102460001188019A2B689A4209D103B030BD0848FF
:1024700001F01EFEF2E7044801F01AFECFE7FFF775
:102480009FF800BF00080020000A0108B02A0020C1
:10249000D00901080000000000000000000000005A
:1024A00030B51C4D83B02B680193044658B32023EC
:1024B00083F3118802F0DCFE01F09AFE2378022BF0
:1024C00002D0154801F0F4FD2046FFF7A9FE0323D2
:1024D000237001F0ADFE02F0E3FE104B1A689A4241
:1024E00004D0996993688A689A4208D3002383F3D9
:1024F0001188019A2B689A4209D103B030BD08486F
:1025000001F0D6FDF2E7044801F0D2FDCFE7FFF776
:1025100057F800BF00080020200A0108B02A002058
:10252000D0090108000000000000000000000000C9
:1025300000B5064B83B01A680192019A1B689A4253
:1025400002D103B05DF804FBFFF73AF80008002061
:1025500000B5064B83B01A680192019A1B689A4233
:1025600002D103B05DF804FBFFF72AF80008002051
:1025700010B5104C104B226882B0019201221A70E3
:10258000202383F3118802F0A3FE01F071FE0B48B3
:1025900003F0A6F901F08CFE02F0B2FE002383F3F3
:1025A0001188019A23689A4201D102B010BDFFF749
:1025B00007F800BF00080020D823002040080020B2
:1025C00030B50E4D0E4C2B6883B00193FFF750FED3
:1025D000206808B10AF0D4FC4FF496400AF0C8FC19
:1025E00001992A682060B0FA80F35B099142C3F137
:1025F000000001D103B030BDFEF7E2FF000800206B
:10260000D0230020000000000000000000000000B7
:1026100030B5174D174C2B78226885B0012B0392EB
:1026200020D000F0D5FB144B1B78ABB9B0F5964F1A
:1026300015D8124A124B12681B68124900920246C2
:102640001148FFF745FE01232B700020039A2368F1
:102650009A420BD105B030BDB0F5165FE9D94FF005
:10266000FF30F3E70848FFF78BFEDAE7FEF7A8FF35
:10267000CD23002000080020CE230020D4230020FA
:10268000D0230020300A0108B823002000000000F9
:1026900010B50B4C0B48236882B0019302F0E8FFA1
:1026A000094803F0C5F9019A23689A4205D1054803
:1026B00002B0BDE8104003F013B8FEF781FF00BF81
:1026C000000800204808002040080020000000000A
:1026D00030B5154D154C164B2268286883B0019211
:1026E00001221A7008B10AF04BFC4FF416500AF0A0
:1026F0003FFC286098B10F4D286808B10AF040FCF3
:102700004FF416500AF034FCB0FA80F35B092860ED
:102710005842019A23689A4204D103B030BD4FF069
:10272000FF30F6E7FEF74CFFD02300200008002022
:10273000CE230020D4230020000000000000000071
:1027400000B5074B07491A68087083B00192019AD7
:102750001B689A4202D103B05DF804FBFEF730FF1C
:1027600000080020CC230020000000000000000032
:1027700000B50D4A0D4B1278196883B0019142B132
:102780000B4AD26812681268120302D4094A106810
:1027900001E0094A1068019A1B689A4202D103B00D
:1027A0005DF804FBFEF70CFFCE230020000800209C
:1027B000B8230020D4230020D023002000000000F4
:1027C00000B50E4A0E4B1278196883B001914AB1D8
:1027D000019A1B689A420FD10A4803B05DF804EBD6
:1027E000FFF75EBE019A1B689A4205D1054803B007
:1027F0005DF804EBFFF70CBEFEF7E2FECC230020F1
:1028000000080020B82300200000000000000000A5
:1028100070B5274D82B02B68019306460122032133
:102820006E2000F04DFB044630B1019A2B689A42AD
:1028300020463AD102B070BD32464E216E2000F0E3
:102840003FFB04460028F0D1442E07D00246B721B2
:102850006E2000F035FBB8B10446E6E70122B7214F
:102860006E2000F02DFB0028F6D1224603216E20B9
:1028700000F026FB0028EFD1032211216E2000F08A
:102880001FFB78B10446D0E7224603216E2000F0FA
:1028900017FB0028E0D10A2211216E2000F010FB66
:1028A0000028D9D1034B1E71BFE7FEF789FE00BF98
:1028B00000080020DC2300200000000000000000D1
:1028C0002DE9F04F8FB0DFF80084DDF860C0D8F854
:1028D00000400D940CF1FF355C1EB3F5207F9DF890
:1028E00064909DF868B00C44154400F21282BCF567
:1028F000F07F00F20E82B1F5207F0E4600F21282C8
:10290000B2F5F07F174600F21082A14280F00482F7
:10291000B4F5207F00F20082AA4280F00082B5F573
:10292000F07F00F2FC81B9F1400F824600F0B081E7
:10293000B9F1800F23D0B9F1200F00F09C81002362
:10294000CDE90033BBF1400F2FD0BBF1800F00F079
:10295000CB81BBF1200F00F0B9810023CDE9023318
:10296000002203216E2000F0ABFAA0B30D9AD8F834
:1029700000309A4240F0E2810FB0BDE8F08F9A0734
:1029800040F0D681CC4A8C085900661CA2FB01019C
:10299000A2FB030204EB930406EBD2030093BBF10A
:1029A000400F06EBD1030193CFD11CF0010F40F093
:1029B000C281C14B7D084FEA4C026F1CA3FB02127F
:1029C000A3FB0C1307EB9303029307EB920305EBB6
:1029D0005C050393C4E702465B216E2000F070FAA9
:1029E0000028C3D15046FFF713FF0028BED102468E
:1029F00003216E2000F064FA0028B7D1C6F3072344
:102A00001A4608216E20049300F05AFA0028ADD12E
:102A1000F3B21A4609216E20059300F051FA0028FE
:102A2000A4D1C7F307231A460A216E20069300F0AB
:102A300047FA00289AD1FBB21A460B216E20079361
:102A400000F03EFA002891D1C4F307231A460C2166
:102A50006E20089300F034FA002887D1E3B21A46BA
:102A60000D216E20099300F02BFA00287FF47EAF31
:102A7000C5F307231A460E216E200A9300F020FAB0
:102A800000287FF473AFEBB21A460F216E200B9330
:102A900000F016FA00287FF469AF049A35216E2001
:102AA00000F00EFA00287FF461AF059A36216E20FF
:102AB00000F006FA00287FF459AF089A37216E20FB
:102AC00000F0FEF900287FF451AF099A38216E20FA
:102AD00000F0F6F900287FF449AF069A39216E20FC
:102AE00000F0EEF900287FF441AF079A3A216E20FA
:102AF00000F0E6F900287FF439AF0A9A3B216E20F6
:102B000000F0DEF900287FF431AF0B9A3C216E20F3
:102B100000F0D6F900287FF429AF009B3D21C3F3D4
:102B200007226E2000F0CCF900287FF41FAF9DF83B
:102B300000203E216E2000F0C3F900287FF416AF7C
:102B4000019B3F21C3F307226E2000F0B9F9002852
:102B50007FF40CAF9DF8042040216E2000F0B0F906
:102B600000287FF403AF029B4121C3F307226E20AC
:102B700000F0A6F900287FF4F9AE9DF80820422164
:102B80006E2000F09DF900287FF4F0AE039B4321F6
:102B9000C3F307226E2000F093F900287FF4E6AE1D
:102BA0009DF80C2044216E2000F08AF900287FF463
:102BB000DDAE012203216E2000F082F900287FF4AF
:102BC000D5AE4A4693216E2000F07AF900287FF4B2
:102BD000CDAE5A4694216E2000F072F900287FF4A1
:102BE000C5AE012203216E2000F06AF900287FF4AF
:102BF000BDAE0134A31B07EE103ADFED307AB8EE1C
:102C0000477ABAF1440F77EEC77A00F09980B0EEB8
:102C1000006AF2EE006AE7EE066A77EEA77AB0EE97
:102C2000667A67EE877ADFED266A87EEA67AFCEE93
:102C3000C77ACDED007A009B9521C3F307226E2061
:102C400000F03EF900287FF491AE9DF80020962117
:102C50006E2000F035F900287FF488AE194B01355D
:102C6000EF1BA41B5F801C8083F804A083F80590F1
:102C700083F806B07AE610495A00A1FB030306EB7D
:102C80005303A1FB0212009306EB5203019359E692
:102C9000D9074DD4084A74085900661CA2FB0101EB
:102CA000A2FB030204EB530406EB9203009306EB32
:102CB0009103019346E600BFABAAAAAA00002244F2
:102CC0000000A344DC23002000080020244A4FEA2F
:102CD0004C03A2FB0C1CA2FB032307EB530307EBE3
:102CE0005C02029203933BE61CF0030F23D11C4BC2
:102CF000BD084FEA4C026F1CA3FB0212A3FB0C138E
:102D000007EBD303029307EBD20305EB9C05039378
:102D100026E66FF0070029E66FF0030026E66FF065
:102D2000040023E66FF0010020E66FF002001DE6CC
:102D30006FF005001AE66FF0060017E6FEF740FC9C
:102D4000F2EE006A37EE267ADFED066A67EE277A42
:102D500087EEA67AFCEEC77ACDED007A6BE700BF6E
:102D6000ABAAAAAA00002444000000000000000052
:102D700010B5114C86B02368059300F081F80F4917
:102D80000F4803F03DFF012200210D4803F0D0FF62
:102D900020237822CDE901330092A023B422F02130
:102DA0000220FFF78DFD059A23689A4201D106B0F3
:102DB00010BDFEF705FC00BF00080020400A010816
:102DC000C8380020000000000000000000000000E3
:102DD00010B50A4B0A4A1988146858881B7982B0C2
:102DE000442B019400FB01F00199136818BF4000C7
:102DF000994201D102B010BDFEF7E2FBDC230020B6
:102E0000000800200000000000000000000000009A
:102E100070B5164E16483368154D82B005224FF432
:102E20008071019307F0E4FE20246B6983F48073C2
:102E30006B61012001F014FF631E13F0FF04F4D155
:102E40004FF4807140F206222983094807F0D0FE32
:102E5000019A33689A4206D10649074802B0BDE894
:102E6000704003F015BDFEF7ABFB00BF000800206B
:102E700000040240800A01083035002000000000F4
:102E800000B50C4A0C4B1278196883B0012A0191E5
:102E9000019A1B6804D09A4209D103B05DF804FB83
:102EA0009A4204D103B05DF804EBFFF7B1BFFEF71F
:102EB00087FB00BF30350020000800200000000024
:102EC000F0B5214C214E89B03368079307460025A1
:102ED00020468DF818108DF819208DF8145003F045
:102EE000EFFD2378012B0CD0042205AB0195029253
:102EF00000933946022306AA204603F071FD0546D9
:102F000048B9114803F0FCFD0020079A33689A4243
:102F100017D109B0F0BD204603F04AFD23780C4AD2
:102F2000052B106004D0084803F0EAFD68B2ECE716
:102F3000204603F0F5FC2378012BF4D1FFF768FF5E
:102F4000F1E7FEF73DFB00BF303500200008002010
:102F5000E42300200000000000000000000000004A
:102F600000B50D4B83B01A68019201280BD90B49AB
:102F70004A6982F004024A61019A1B689A4209D1A7
:102F800003B05DF804FB054A042108B95183F3E757
:102F90001183F1E7FEF714FB000800200004024053
:102FA00000B50E4B83B01A68019201280BD90C4969
:102FB0004A6982F480424A61019A1B689A420AD1A6
:102FC00003B05DF804FB064A4FF4804108B9518311
:102FD000F2E71183F0E7FEF7F3FA00BF00080020E4
:102FE000000C024000000000000000000000000093
:102FF0002DE9F043254E83B034680194042A9DF8EE
:103000002890144605460F46984639D9B9F1000F65
:1030100014BF00224FF08052640002EB0863013CB1
:103020001C4405F00F0527F01F07202383F31188A8
:1030300002F01EF93D4301F0DBF8154B1035DD6061
:103040001C6101F0F5F802F02BF9124B1A689A4254
:1030500004D0996993688A689A420DD3002383F358
:103060001188BFF36F8FBFF34F8F019A33689A4275
:103070000AD103B0BDE8F083074801F019F8EDE785
:10308000064801F015F8C1E7FEF79AFA000800209B
:1030900090ED00E0B02A0020100B0108F00A0108B2
:1030A00030B5224D224C2B68224A85B003936368C9
:1030B00043F004036360536A43F480335362202374
:1030C00083F3118802F0D4F801F092F817221A4B1A
:1030D000E260236101F0ACF802F0E2F8174B1A68E5
:1030E0009A4204D0996993688A689A4218D300205A
:1030F00080F31188BFF36F8FBFF34F8F03231D221F
:1031000000904FF00051FFF773FF094A536843F0F6
:1031100001035360039A2B689A4205D105B030BD74
:10312000074800F0C5FFE2E7FEF74AFA0008002072
:1031300090ED00E000ED00E009000010B02A002052
:10314000100B01080000000000000000000000005B
:1031500070B51A4D1A4C1B4E0FCD0FC49EB02A6885
:10316000336822801D93EFF30981682203A8FDF7DD
:103170004FFE154B9D6AAA0714D4EB0708D5124BD6
:1031800008995B6B114A00910D4880210AF010FAF2
:103190001D9A33689A420FD109481EB0BDE87040AD
:1031A00000F086BF099A5B6B0092A4F11000084AF8
:1031B00080210AF0FDF9E0E7FEF702FAD40A0108DF
:1031C000E82300200008002000ED00E0B00A01081C
:1031D000900A01080000000000000000000000004C
:1031E00000B51F4B0278196883B00191E2B11D4A06
:1031F0004FF4005111834278EAB11A4A4FF48051DA
:1032000011838278F2B1174A4FF480411183C2785A
:10321000FAB9144A4FF400415183019A1B689A424B
:103220001CD103B05DF804FB0E4A4FF400515183EA
:103230004278002AE1D10B4A4FF4805151838278C1
:10324000002AE0D1074A4FF480415183C278002A16
:10325000DFD0044A4FF400411183DEE7FEF7B0F9F6
:1032600000080020001002400000000000000000E4
:1032700000B51F4B0278196883B00191E2B11D4A75
:103280004FF4007111834278EAB11A4A4FF4807109
:1032900011838278F2B1174A4FF400611183C2782A
:1032A000FAB9144A4FF480615183019A1B689A421B
:1032B0001CD103B05DF804FB0E4A4FF4007151833A
:1032C0004278002AE1D10B4A4FF480715183827811
:1032D000002AE0D1074A4FF400615183C278002AE6
:1032E000DFD0044A4FF480611183DEE7FEF768F90E
:1032F0000008002000100240000000000000000054
:1033000030B50C4A0C4B116883B04FF40055019155
:103310004FF480544FF400414FF480405D835C8350
:103320005883598301991368994201D103B030BD84
:10333000FEF746F9000800200010024000000000DF
:1033400030B50C4A0C4B116883B04FF400750191F5
:103350004FF480744FF480614FF400605D835C83B0
:103360005883598301991368994201D103B030BD44
:10337000FEF726F9000800200010024000000000BF
:1033800010B50B4C0B48236882B0992200210193A1
:1033900003F0CEFC019A23689A4206D10548002129
:1033A00002B0BDE8104003F0ABBDFEF709F900BF65
:1033B00000080020903800200000000000000000FD
:1033C00010B50B4C0B48236882B099220021019361
:1033D00003F0AEFC019A23689A4206D10548002109
:1033E00002B0BDE8104003F08BBDFEF7E9F800BF66
:1033F00000080020AC3800200000000000000000A1
:1034000000B5084B83B01A680192019A1B689A4272
:1034100006D10548002103B05DF804EB03F0D8BCE9
:10342000FEF7CEF8000800209038002000000000D1
:1034300000B5084B83B01A680192019A1B689A4242
:1034400006D10548002103B05DF804EB03F0C0BCD1
:10345000FEF7B6F800080020AC380020000000009D
:1034600070B51A4C1A4E2378326882B0022B019242
:10347000A26811D165781748013505F0070500EB02
:103480008500904763686570013B6360019A33680B
:103490009A4219D102B070BD012B08D0019933684E
:1034A000994211D10C4802B0BDE8704010476578D0
:1034B0000848013D05F0070500EB8500904763686B
:1034C000657001336360E1E7FEF77AF8802400203D
:1034D00000080020B00B0108A00B0108000000004C
:1034E00070B51A4C1A4E2378326882B0012B0192C3
:1034F000A26811D165781748013505F0070500EB82
:10350000850090476368657001336360019A336892
:103510009A4219D102B070BD022B08D001993368CC
:10352000994211D10C4802B0BDE87040104765784F
:103530000848013D05F0070500EB850090476368EA
:103540006570013B6360E1E7FEF73AF8682400200C
:1035500000080020B00B0108A00B010800000000CB
:1035600030B51F4D85B02B68039340F24C43994210
:10357000044626DCA3F69803994211DB4B00002B8E
:1035800029D10370036998474FF47A71039A2B6825
:103590009A421ED1606905B0BDE8304003F080BB9F
:1035A000104B02225B42227040F2892293420E4964
:1035B00091FBF3F189B207DC0191E3689847019927
:1035C000E4E7012303702D210191236998470199B4
:1035D000DCE7FDF7F5FFE4DD01220270E4E700BF60
:1035E0000008002068F7FFFFA0860100000000002F
:1035F00000B5084B83B01A680192019A1B689A4281
:1036000006D10146044803B05DF804EBFFF7A8BFFC
:10361000FDF7D6FF0008002068240020000000000D
:1036200000B5084B83B01A680192019A1B689A4250
:1036300006D10146044803B05DF804EBFFF790BFE4
:10364000FDF7BEFF000800208024002000000000DD
:1036500070B51D4E1D4A1E4B30681E491E4C9160B0
:1036600082B00021D46001901C4C1D481D4D9D600E
:10367000117051705160106154611B481B4A1C4D00
:10368000D8601C48197059705960C3E90425FFF7C8
:10369000A7FD1848FFF7ECFD1749204603F0B0FAE4
:1036A000204603F0E5FB2846144903F0A9FA019AE5
:1036B00033689A4205D1284602B0BDE8704003F055
:1036C000D7BBFDF77DFF00BF00080020802400204D
:1036D00068240020E1310008813300089038002080
:1036E0000134000871320008C13300083134000889
:1036F000AC380020A00B0108600B0108200B01086A
:103700000A490B4B09680B4A82B0202001914021E5
:1037100058834FF4806559834FF400644FF4804020
:1037200004215D835C8358835183FEE700080020F9
:10373000000C0240000402400000000000000000F5
:1037400010B51E491E4A0B78106882B0013B0190EB
:10375000072B0AD8DFE803F012151C1F26290F04D7
:1037600018480824012304830B70019913689942B7
:1037700021D102B010BD08230B70F6E702230B70B5
:10378000F3E711484FF48054032304830B70ECE7F4
:1037900004230B70E9E70C484FF4804405230483AD
:1037A0000B70E2E706230B70DFE7064804240723CB
:1037B00004830B70D9E7FDF703FF00BF1828002032
:1037C0000008002000100240000402400000000039
:1037D00030B50C4B0C4918680C4A83B04FF4804547
:1037E00001904FF480504883042408204D83548373
:1037F0005083019A1B689A4201D103B030BDFDF796
:10380000DFFE00BF0008002000040240001002405C
:103810002DE9F04F4E4B4F4A9B694F499961A5B036
:1038200007AE05AD80231768009331462A46002471
:103830000CA84A4B2397CDE90766CDE90555CDE99C
:1038400009440B9400F0B4FA0CA9454A4548434C8E
:10385000454DDFF83481DFF834B1DFF834A100F0F2
:10386000CFFA04F11C0604F16007A146504601F0AE
:103870009FFD2A682B69226063602A6A2B6BA26015
:10388000E3606A686B69226163616A6A6B6BA2615B
:10389000E361AA68AB6922626362AA6AAB6BA26247
:1038A000E362EA68EB6922636363EA6AEB6B2F49C0
:1038B000A263E36351F8043F0A6AB142A3EB020337
:1038C0000B64F7D1802249460CA800F0F1FA98F871
:1038D0000030002BCAD09BF8003033B3012BC5D188
:1038E000DFF8B0C02248614650F8042B51F8043F7D
:1038F000B84213440B60F7D11E4A13780133DBB290
:10390000642B1370B2D11C495CF8043F1B4A82FB44
:103910000302DB17C3EB621341F8043B184B9C45D1
:10392000F2D1002388F80030A0E71946202212487F
:10393000039309F0EDFD039B12481946202209F07C
:10394000E7FD0C49039B0B7001228BF800208DE7EB
:10395000B02A002000080020D00B01081C25002000
:103960005009010830120020B8240020182500203A
:103970005C250020F92400207C2500201F85EB51C8
:1039800018250020FC240020F8240020FA24002020
:103990005C080020F8240020000000000000000067
:1039A00070B502691E4D52882B6882B006460C46DF
:1039B0001C4801939200002109F0AAFD33695B883D
:1039C0005BB1184AA11E002331F8020F42F8040B24
:1039D0003069408801339842F6D8202383F3118858
:1039E00001F076FC00F044FC00F0D2FC0E48836845
:1039F000002B0FDD00F05CFC01F082FC002383F360
:103A00001188019A2B68094901209A42087004D153
:103A100002B070BD01F004FDECE7FDF7D1FD00BF81
:103A200000080020B82400205C080020182800208E
:103A300070B51F4D1F4C2E78236884B0012E039360
:103A400005D0039A23689A422FD104B070BD00219B
:103A5000284602F035FD284602F0F2FD334628469E
:103A6000154A164902F0ACFD1549164803F0C8F88E
:103A70004FF496720021134803F05AF900211148BF
:103A800003F03EFA0F4803F0F3F931464FF4827227
:103A90000C4803F04DF90023009340220A4B0B48D9
:103AA0004FF41E7101F084F8CBE7FDF789FD00BFEC
:103AB0000C3200200008002098240020E00B0108B0
:103AC000100C01087438002011380008A0250020CF
:103AD00000B50F4B83B01868019002290CD0032960
:103AE0000CD001290B4818BF0020019A1B689A428C
:103AF0000BD103B05DF804FB0748F6E7032A96BF35
:103B00000648002000EBC200EFE7FDF759FD00BFBB
:103B100000080020300D0108D00C0108E00D01085C
:103B200070B5154C82B02368019302291CD10D4653
:103B30000646202383F3118801F0CAFB00F098FBAE
:103B400030460E4A012104F063FB29460C4A3046F8
:103B500004F05EFB0B4804F05BF900F0A9FB01F0F8
:103B6000CFFB002383F31188019A23689A4201D185
:103B700002B070BDFDF724FD00080020500C0108C4
:103B8000800C01081C28002000000000000000003C
:103B900030B5134D134C2B68134883B0019304F0D8
:103BA000AFF81249104804F0DBF8226D936B23F450
:103BB000002393634FF47A7001F052F820460C49C9
:103BC00004F0D6FA226D936B43F400239363019AB9
:103BD0002B689A4201D103B030BDFDF7F1FC00BF64
:103BE00000080020703500201C280020B00C0108BF
:103BF000C00C0108000000000000000000000000F0
:103C000000B5084B83B01A680192019A1B689A426A
:103C100005D1054803B05DF804EB01F029BDFDF7BF
:103C2000CFFC00BF00080020680800200000000052
:103C300000B5084B83B01A680192019A1B689A423A
:103C400005D1054803B05DF804EB01F049BDFDF76F
:103C5000B7FC00BF0008002068080020000000003A
:103C600070B50D4C82B0236801930D1E06460DDD24
:103C7000284602F045FA18B90C2333604FF0FF30A4
:103C8000019A23689A4205D102B070BD034800F042
:103C90000FFAEDE7FDF794FC00080020000E010884
:103CA00000B5064B83B01A680192019A1B689A42CC
:103CB00002D103B05DF804FBFDF782FC0008002090
:103CC00000B5074B83B01A680192019A1B689A42AB
:103CD00004D103B05DF804EB01F0CABCFDF770FC41
:103CE00000080020000000000000000000000000AC
:103CF00000B5074B83B01A680192019A1B689A427B
:103D000004D103B05DF804EB01F0EABCFDF758FC08
:103D1000000800200000000000000000000000007B
:103D200000B5074B83B01A680192019A1B689A424A
:103D300004D103B05DF804EB01F0FABDFDF740FCDF
:103D4000000800200000000000000000000000004B
:103D500000B5074B83B01A680192019A1B689A421A
:103D600004D103B05DF804EB01F062BEFDF728FC5E
:103D7000000800200000000000000000000000001B
:103D800010B5084B82B01C68019400240460019CAB
:103D90001B689C42C0E9011201D102B010BDFDF7C1
:103DA0000FFC00BF00080020000000000000000021
:103DB0002DE9F0430E4D83B02C68019404469946DA
:103DC0000F46164610304C220021DDF8288009F0FD
:103DD0009FFBC4F80090019A2B68E6609A42C4E900
:103DE000018702D103B0BDE8F083FDF7E9FB00BF16
:103DF000000800200000000000000000000000009B
:103E0000F0B5144E83B001F11003174632680192E9
:103E10000446412218460D46002109F079FB394637
:103E2000402209F00DFC6068FFF74AFF236803B1E8
:103E3000AB652560A068FFF773FF019A33689A426B
:103E400005D1606803B0BDE8F040FFF751BFFDF752
:103E5000B7FB00BF000800200000000000000000C9
:103E6000F0B5124F83B006463B68406801930D469B
:103E7000FFF726FF346814B912E0A46D84B104F191
:103E800010012846FDF768F80028F6D17068FFF7A2
:103E90002FFF019A3B689A42204605D103B0F0BD3E
:103EA000B068FFF755FFE5E7FDF78AFB0008002043
:103EB000F0B51C4E436883B00546934230680190CC
:103EC00006D20020019A33689A4229D103B0F0BD8E
:103ED00014460F46A868FFF7F3FE224639462868C5
:103EE000FCF796FF012385F85130E868FFF718FFCB
:103EF0006C6D84B123681868FFF7E2FE23689D604B
:103F000023685868FFF70CFF23681868FFF7F0FE76
:103F10006468002CEED1A868FFF7EAFE0120D1E723
:103F2000FDF74EFB0008002000000000000000002C
:103F3000F0B50F4D83B004462B68806801930E46A0
:103F40001746FFF7BDFEE068FFF702FF3A4630462E
:103F50002168FCF75DFF019A2B689A4205D1A068A1
:103F600003B0BDE8F040FFF7C3BEFDF729FB00BF7B
:103F70000008002000000000000000000000000019
:103F800000B5064B83B01A680192019A1B689A42E9
:103F900002D103B05DF804FBFDF712FB000800201E
:103FA000024B82B01B680193FEE700BF00080020AF
:103FB00000B5044B04481B6883B0019300F078F807
:103FC000FEE700BF00080020100E010800000000FE
:103FD000024B82B01B680193FEE700BF000800207F
:103FE000F0B5294E294B3268294885B00024039248
:103FF0009C60D968274A4FF6FF0529400A43DA60DA
:10400000C2682549254D42F08072C2600A6842F0BC
:1040100001020A6010202022D87783F8222000F0C5
:10402000DFFA00F045FA01F073F802F041F802F00F
:10403000AFF801F0C5F800F0FBF9402105F5886004
:1040400000F01EFD0127164BC36180F82070A861A7
:1040500000F0A6F884F3118862B6AB69114A9A6140
:104060004FF4C4713A46104B009405F59D6000F082
:104070009FFD039A33680D4981619A4201D105B0D1
:10408000F0BDFDF79DFA00BF0008002000ED00E044
:10409000F0ED00E00003FA05001000E0B02A002077
:1040A00000040020B00F0108D13F0008300E0108C5
:1040B00000B5054B83B01B680193044672B6FFF749
:1040C0001FFB024BDC62FEE700080020B02A002044
:1040D0002DE9F047DFF890A0224DDAF8003082B0E9
:1040E000019300F055F9AB6993F8232012B1013A1E
:1040F00083F823205A6ADFF8748001325A6200F094
:1041000047F9AB6AEA6901334245AB6220D0936854
:10411000013B9360EC69A668D6B94FF0200923688B
:10412000E768E660C3F804802368EB6100F0C0F83C
:1041300001F0E6F886F311882069B84789F3118801
:1041400001F0C6F800F094F8EC69A368002BE6D003
:10415000019ADAF800309A4202D102B0BDE8F08745
:10416000FDF72EFAB02A002000080020CC2A0020FB
:1041700010B5094C094A236882B00193516853680D
:104180005B1A9842FBD8019A23689A4201D102B087
:1041900010BDFDF715FA00BF00080020001000E078
:1041A00000B50E4A0E4B116B186883B0019009B927
:1041B000526B4AB1019A1B689A420CD1094803B06C
:1041C0005DF804EBFFF774BF019A1B689A4202D1B5
:1041D00003B05DF804FBFDF7F3F900BFB02A00203F
:1041E00000080020400E0108000000000000000050
:1041F00030B50B4C0B4D236B2A6883B001920BB981
:10420000636B13B10848FFF753FF019A2B68012134
:104210009A42616301D103B030BDFDF7D1F900BF0F
:10422000B02A002000080020700E010800000000E5
:1042300030B50C4C0C4D236B2A6883B0019253B9F6
:10424000636B002B07DD019A2B6800219A426163A2
:1042500005D103B030BD0548FFF72AFFF3E7FDF7AE
:10426000AFF900BFB02A002000080020900E01081E
:1042700030B50B4C0B4D236B2A6883B0002B019299
:1042800001DD636B13B10848FFF712FF019A2B6839
:1042900001219A42616301D103B030BDFDF790F96D
:1042A000B02A002000080020800E01080000000055
:1042B00030B50C4C0C4D236B2A6883B0002B019257
:1042C0000ADD636B002B07DD019A2B6800219A42FF
:1042D000616305D103B030BD0448FFF7E9FEF3E7A1
:1042E000FDF76EF9B02A002000080020A00E01089A
:1042F00030B50F4D83B02B680193202383F31188D1
:104300000C4C236B002B01DB626B1AB10A48FFF7E0
:10431000CFFE236B01332363002383F31188019ABB
:104320002B689A4201D103B030BDFDF749F900BFB7
:1043300000080020B02A0020500E010800000000F4
:1043400030B50F4D83B02B680193202383F3118880
:104350000C4C236B002B01DD626B1AB10A48FFF78E
:10436000A7FE236B013B2363002383F31188019A8B
:104370002B689A4201D103B030BDFDF721F900BF8F
:1043800000080020B02A0020600E01080000000094
:1043900000B50F4A0F4B116B186883B000290190CC
:1043A00009DB526B002A06DD019A1B689A420CD188
:1043B00003B05DF804FB019A1B689A4205D10648D8
:1043C00003B05DF804EBFFF773BEFDF7F9F800BF2B
:1043D000B02A002000080020B00E010800000000F4
:1043E00000B50E4A0E4B116B186883B0019049B9A5
:1043F000526B002A06DD019A1B689A420CD103B069
:104400005DF804FB019A1B689A4205D1054803B088
:104410005DF804EBFFF74CBEFDF7D2F8B02A0020A0
:1044200000080020C00E010800000000000000008D
:1044300010B5084A084B116882B0402401910199D7
:10444000126818199142C3E90E4001D102B010BDA3
:10445000FDF7B6F800080020B02A00200000000098
:1044600010B51149114B0A6882B00192DA6B9C6A4F
:104470001460DA6B9C695460DA6B846A9460DA6B5E
:1044800090F820001073DA6B03F5886010328242D6
:1044900028BF03F14002DA63019A0B689A4201D106
:1044A00002B010BDFDF78CF800080020B02A0020F3
:1044B00010B50B4A0B4B116882B04FF0FF340191DD
:1044C00000219962019811685C6203F11C02884224
:1044D000C3E9072201D102B010BDFDF771F800BF9A
:1044E00000080020B02A00200000000000000000AA
:1044F0002DE9F041184E82B00546306801900C4617
:1045000017469846FFF744FF05B3FFB1F4B1C5E97C
:1045100003781248C3699A68944204D91B68A41AA4
:104520009A68A242FAD32B605A686A6015605D608F
:10453000AC609968019D3268091B95424FF0FF34C9
:104540009960446206D102B0BDE8F0810448FFF7EB
:10455000AFFDDCE7FDF734F800080020B02A0020AA
:10456000D00E010800000000000000000000000064
:1045700030B5164D83B004462B680193FFF708FF52
:10458000ECB1E368BBB12268A06893680199034469
:104590009360D4E900231A6020682B680C4A656890
:1045A000456099424FF000054FF0FF30E5605062E2
:1045B00009D103B030BD0748FFF77AFDE3E70548AE
:1045C000FFF776FDDDE7FCF7FBFF00BF00080020EA
:1045D000B02A0020E00E01080000000000000000EA
:1045E00000B50A4A0A4B11681B6083B00020019194
:1045F000019912685B609142C3E90433986002D16B
:1046000003B05DF804FBFCF7DBFF00BF00080020EF
:10461000B02A0020000000000000000000000000A0
:1046200030B5164D83B004462B680193FFF7B0FEFA
:10463000ECB194F82030B3B10F2B14D00022A16854
:104640000F4B84F820201B689A688A42FBD22360B3
:104650005A686260146001992A685C609142204641
:1046600009D103B030BD0748FFF722FDE6E7054852
:10467000FFF71EFDDDE7FCF7A3FF00BF00080020E9
:10468000B02A0020F00E0108000000000000000029
:1046900070B5204D82B02B6801930446202383F32C
:1046A000118800F015FEFFF7E3FD94F82030072B8A
:1046B00011D8DFE803F0161010230A04100AA66AC6
:1046C000FFF766FEB3680133B360D4E900231A60D4
:1046D000D4E900325A604FF0FF33A3622046FFF75F
:1046E0009FFFFFF7E5FD00F00BFE002383F3118829
:1046F000019A2B689A420BD102B070BDA36A0022C6
:104700001A604FF0FF33A3622046FFF789FFE8E706
:10471000FCF756FF00080020000000000000000029
:10472000F0B5194E194C336883B007460193FFF773
:1047300057FEA569236885F82070142285F8232088
:104740001A68226001215460284683F82010A36172
:10475000FFF786FE2946A06900F06AFDEFF30983A2
:10476000EA69643B9A4202D90948FFF7A1FC019A21
:1047700033689A4206D1A069294603B0BDE8F040EB
:10478000FBF796BDFCF71CFF00080020B02A0020B4
:10479000000F010800000000000000000000000001
:1047A000F0B5154C87B0236805930E460746FFF712
:1047B00017FE731C18D0114D114AAB69314668467B
:1047C000FFF796FE3846FFF7ABFFFFF7E1FD039BCF
:1047D00013B16846FFF7CCFE059A2368A9699A428F
:1047E000886A06D107B0F0BD3846FFF799FF034D40
:1047F000F2E7FCF7E5FE00BF00080020B02A002029
:1048000091460008000000000000000000000000C9
:10481000F0B51E4D1E4E2B6883B0044601930F4623
:10482000FFF7DEFDB069A7628368A2689A421DD9CE
:10483000FFF7F6FE0123074684F82030B461FFF746
:104840000FFE3946204600F0F3FCEFF30983FA69C6
:10485000643B9A4214D8019A2B689A4214D1394683
:10486000204603B0BDE8F040FBF722BD019A2B685B
:104870009A4209D1204603B0BDE8F040FFF7D0BE10
:104880000448FFF715FCE6E7FCF79AFE0008002055
:10489000B02A0020000F0108000000000000000006
:1048A00010B50E490E4B8A69086892F823101C68EF
:1048B0008068926882B0019449B9904234BF002068
:1048C0000120019A1B689A4206D102B010BD9042A5
:1048D00094BF00200120F4E7FCF772FEB02A00200C
:1048E00000080020000000000000000000000000A0
:1048F00070B5184C184E2368A5691A682260546078
:10490000012283F8202082B01422316885F8232008
:104910002846A3610191FFF783FE2846FFF7A0FD1B
:104920002946A06900F084FCEFF30983EA69643B3F
:104930009A4202D90948FFF7BBFB019A33689A42B1
:1049400006D1A069294602B0BDE87040FBF7B0BCB3
:10495000FCF736FEB02A002000080020000F0108F6
:1049600070B51C4D1C4E2A68AC6913682B60012180
:1049700082B05D60002082F82010AA613268A168D0
:1049800084F82000019200E01B689A688A42FBD8F4
:1049900023605A686260204614605C60FFF760FD27
:1049A0002146A86900F044FCEFF30983E269643B07
:1049B0009A4202D90948FFF77BFB019A33689A4271
:1049C00006D1A869214602B0BDE87040FBF770BC73
:1049D000FCF7F6FDB02A002000080020000F0108B7
:1049E00010B50F4C82B023680193FFF7F9FCFFF775
:1049F000CFFC0C4B1A689B6992689B689A42019A9B
:104A0000236803D89A4208D102B010BD9A4204D15B
:104A100002B0BDE81040FFF7A3BFFCF7D1FD00BF17
:104A200000080020B02A0020000000000000000064
:104A300000B50E4A0E4B9269196892F8232083B094
:104A4000019142B1019A1B689A420DD103B05DF801
:104A500004EBFFF785BF019A1B689A4204D103B0AB
:104A60005DF804EBFFF744BFFCF7AAFDB02A002075
:104A7000000800200000000000000000000000000E
:104A8000F0B51A4A1A4D02610446816083B01423BE
:104A900050692E68616484F82330022700230121C5
:104AA000278484F82210C4E90F3304F16801A3615C
:104AB000019604F12C07636204F1500604F13003FF
:104AC00060610461C4E90C33E1613046E76254611E
:104AD00000F0B6FA304600F0D3FA019A2B689A42F9
:104AE00002D1204603B0F0BDFCF76AFDB02A0020D9
:104AF000000800200000000000000000000000008E
:104B000010B5094B82B01C680194884203D200F8AA
:104B1000012B8142FBD1019A1B689A4201D102B05C
:104B200010BDFCF74DFD00BF000800200000000094
:104B30002DE9F043184E83B0346801940546DDF842
:104B400028900C4617469846FFF722FC15B1B4F59D
:104B5000BC7F19D21148FFF7ABFAA4F164012944D4
:104B6000E960C1F84080EB68019AC3F8449033686B
:104B7000E9680B4808669A420CD13946284603B0CA
:104B8000BDE8F043FFF77CBF7F2FE3D8B8F1000FFB
:104B9000E3D1DFE7FCF714FD00080020500F010807
:104BA000C902000800000000000000000000000032
:104BB0002DE9F04FDFF8A48087B0D8F80040DDF889
:104BC0004090059407468A46934600F168060446DD
:104BD000FF2504F8015BA642FBD107EB0A05A542BD
:104BE00004D9552604F8016BA542FBD1039320227A
:104BF00082F3118800F03CFBFFF7FAFA039BCDF833
:104C000000905A4651463846FFF792FF002104466D
:104C1000FFF7FEFDFFF70CFB00F042FB0D4B1A689F
:104C20009A4204D0996993688A689A420BD3002308
:104C300083F31188059AD8F800309A42204606D1AD
:104C400007B0BDE8F08F0448FFF732FAEFE7FCF752
:104C5000B7FC00BFB02A0020100F01080008002098
:104C600030B5184C83B0236801930546202383F3A5
:104C7000118800F0FDFAFFF7BBFA15B91248FFF7EB
:104C800017FA29460820FFF78BFDFFF7D1FA00F04D
:104C900007FB0E4B1A689A4204D0996993688A6898
:104CA0009A4208D3002383F31188019A23689A4219
:104CB00005D103B030BD0648FFF7FAF9F2E7FCF77B
:104CC0007FFC00BF00080020200F0108B02A002050
:104CD000100F0108000000000000000000000000AC
:104CE000F0B51C4F83B03B68019304460E46202369
:104CF00083F31188184D00F0BBFAFFF779FAA96A1F
:104D0000331B0C1B9C4219D3FFF792FA00F0C8FA30
:104D10002B68AB4204D0AA699B6892689A4209D377
:104D2000002383F31188019A3B689A4230460FD1E1
:104D300003B0F0BD0948FFF7BBF9F1E7741A02D1DF
:104D40000748FFF7B5F921460820FFF729FDDBE703
:104D5000FCF736FC00080020B02A0020100F0108E4
:104D6000200F01080000000000000000000000000B
:104D700070B5164B164E9C693268E36AA06282B029
:104D800004F12C05AB42019207D01A68E262184682
:104D9000FFF746FCE36AAB42F7D194F821309B075A
:104DA00005D1D4E904231A61D4E904325A610F20F1
:104DB000FFF7B6FC019A33689A4205D1054802B064
:104DC000BDE87040FFF774B9FCF7FAFBB02A002089
:104DD00000080020600F0108000000000000000033
:104DE00030B50C4C83B0236801930546202383F330
:104DF000118800F03DFAFFF7FBF9019A23689A4207
:104E000005D1284603B0BDE83040FFF7B1BFFCF73D
:104E1000D7FB00BF000800200000000000000000D9
:104E2000F0B50D4D0D4E03682A68B76983B004468E
:104E3000019213B10A48FFF73BF927600320BC62D7
:104E4000FFF76EFC019A2B68B1699A42886A01D11A
:104E500003B0F0BDFCF7B4FB00080020B02A00202E
:104E6000700F0108000000000000000000000000BA
:104E7000F0B5124D0368124A83B0044628680190C9
:104E80000E46976913B10F48FFF712F966B1276014
:104E9000019A2B68BC629A420ED13146032003B0BE
:104EA000BDE8F040FFF77CBC019A2B689A424FF0B6
:104EB000FF3001D103B0F0BDFCF782FB00080020F9
:104EC000B02A0020800F0108000000000000000050
:104ED000F0B5124D04682B6883B00193B4B194F817
:104EE0002030032B06460F460CD100233360019A75
:104EF0002B68A7629A420FD1204603B0BDE8F0406C
:104F0000FFF78EBB0648FFF7D3F8EEE7019A2B6850
:104F10009A4201D103B0F0BDFCF752FB000800201B
:104F2000A00F0108000000000000000000000000C9
:104F300030B5104A83B01368019381B10E4B019DC7
:104F40009B69186044685C60236012684360954206
:104F50000DD1042003B0BDE83040FFF721BC01991A
:104F6000136899424FF0FF3001D103B030BDFCF718
:104F700027FB00BF00080020B02A0020000000002E
:104F800070B5124D04682B6882B0A042019315D011
:104F900023680360586094F82030042B0E4602D03A
:104FA0000B48FFF785F8019A2B68A6629A420BD14D
:104FB000204602B0BDE87040FFF732BB019A2B6873
:104FC0009A4201D102B070BDFCF7FAFA0008002045
:104FD000300F010800000000000000000000000089
:104FE0002DE9F041DFF850800468D8F8003082B035
:104FF000A042019313D00F4F05460E4623682B6045
:105000005D6094F82030042B02D03846FFF750F84A
:10501000A6622046FFF704FB2C68A542EED1019A58
:10502000D8F800309A4202D102B0BDE8F081FCF716
:10503000C7FA00BF300F0108000800200000000080
:1050400030B50B4B83B01A6801924FF0FF3202600B
:1050500001991A680024002300259142C0E9044503
:10506000C0E90133C36001D103B030BDFCF7A8FA39
:105070000008002000000000000000000000000008
:1050800000B5084B084A196883B001915168019A2C
:105090001B6881609A4202D103B05DF804FBFCF703
:1050A0008FFA00BF00080020001000E000000000A0
:1050B000F0B51449144B0A68846883B00192134A0E
:1050C0005B68D2F8A864C2681B1BD0E904450132B2
:1050D0009B1BC26042688360E61845F1000793425B
:1050E000C0E9046709D80268934238BF0360019A97
:1050F0000B689A4203D103B0F0BD4360F7E7FCF7B9
:105100005FFA00BF00080020001000E0B02A002075
:1051100030B5114D114C2B6889B04FF0FF3107931A
:10512000002300226846C4F8A834CDE90133039374
:105130000023CDE904230091FFF7A2FF6846FFF7A3
:10514000B7FF079A2B680299C4F8A8149A4201D1B4
:1051500009B030BDFCF734FA00080020B02A002066
:105160002DE97048134E144B326883B001925B688E
:105170008B60D0E902411B1BD0E90445426814EB67
:10518000030B45F1000C01319342C0E90231C0E943
:1051900004BC0AD80268934238BF0360019A33689E
:1051A0009A4204D103B0BDE870884360F6E7FCF78B
:1051B00007FA00BF00080020001000E00000000017
:1051C00030B50D4D0D4C2B6883B004F597600193FD
:1051D0000023C4F8B034C4F8B434FFF731FF019AA7
:1051E0002B689A4206D104F59A6003B0BDE83040BE
:1051F000FFF726BFFCF7E4F900080020B02A0020E2
:1052000000B50949094A0B6883B001930198D2F8A7
:10521000B034096801338842C2F8B03402D103B017
:105220005DF804FBFCF7CCF900080020B02A002050
:1052300070B50D4C0D4A236882B00193019DD2F8E0
:10524000B43424680133A542C2F8B43409D10E46FF
:1052500000F1500106F1500002B0BDE87040FFF7C8
:105260007FBFFCF7ADF900BF00080020B02A002086
:1052700000B5084B83B01A680192019A1B689A42E4
:1052800005D1054803B05DF804EBFFF7F9BEFCF764
:1052900097F900BF00080020682F002000000000E0
:1052A00000B5084B83B01A680192019A1B689A42B4
:1052B00005D1054803B05DF804EBFFF7F9BEFCF734
:1052C0007FF900BF00080020682F002000000000C8
:1052D00000B5084B83B01A680192019A1B689A4284
:1052E00005D1054803B05DF804EBFFF7C9BEFCF734
:1052F00067F900BF00080020802F00200000000098
:1053000000B5084B83B01A680192019A1B689A4253
:1053100005D1054803B05DF804EBFFF7C9BEFCF703
:105320004FF900BF00080020802F0020000000007F
:1053300070B51B4D82B004462B680193FFF750F8FF
:1053400044B3A3682268002B10DBA24203D01548A7
:10535000FEF7AEFEA368013B002BA3600CDB002030
:10536000019A2B689A4219D102B070BDA242EED0C8
:10537000013B002BA360F2DA0B4EB3699C621C6008
:1053800062685A60052013606360FFF7C9F9B3696A
:10539000986AE5E70348FEF78BFED2E7FCF710F9C1
:1053A00000080020E00F0108B02A002000000000E3
:1053B00030B5164C83B0236801930546202383F350
:1053C0001188FFF755FFFEF713FF2846FFF7B0FFE0
:1053D0000546FEF72DFFFFF763FF0D4B1A689A4253
:1053E00004D0996993688A689A4209D3002383F3A9
:1053F0001188019A23689A42284605D103B030BD2E
:105400000448FEF755FEF1E7FCF7DAF80008002043
:10541000B02A0020D00F01080000000000000000AA
:1054200030B51C4D83B004462B680193FEF7B0FFE6
:105430004CB3A3682268002B0FDBA24203D01648AE
:10544000FEF736FEA3680133002BA3600BDD019A43
:105450002B689A421BD103B030BDA242EFD001337A
:10546000002BA360F3DC20680199036823602A689D
:105470005C6091424FF00003836208D103B0BDE845
:105480003040FFF7CDB80448FEF712FED1E7FCF735
:1054900097F800BF00080020F00F0108000000008E
:1054A00030B50B4D83B02B680193044650B1246096
:1054B00001992A68646000239142A360236105D1A9
:1054C00003B030BD0348FEF7F3FDF0E7FCF778F8D2
:1054D000000800201010010800000000000000007B
:1054E000F0B55D4E5D4B32689D6983B00446019214
:1054F000FEF776FF002C00F08480A0682369002866
:1055000043D0002B40F39780854276D0AA68836809
:105510009A4208D990F820308260062B40D0072BA1
:1055200073D0002B5DD02746234603E09968AA6814
:10553000914233D31B689C42F8D12F607B686B602B
:1055400006201D607D60AC62FFF7EAF8A368AB42FD
:1055500002D04348FEF7ACFD2B6CA34202D040487A
:10556000FEF7A6FD2369012B05D1019A33689A4203
:105570006FD103B0F0BD019A33689A4269D13848BF
:1055800003B0BDE8F040FEF793BD002B58D10133C6
:10559000A56023612B6CE3602C64E6E71F46CCE733
:1055A000D0E900231A60D0E900325A60876A3B468E
:1055B00003E099688268914247D31B689F42F8D103
:1055C00007607B68436018607860836AAA6898689F
:1055D00083689342A7D290F820308260062B9ED138
:1055E000DEE7D0E90023012180F820101A60D0E91D
:1055F00000325A60FFF714F895E7236901332361FD
:10560000B3E71748FEF754FD77E7D0E900231A60A7
:10561000D0E900325A60876A3B4603E099688268A5
:10562000914214D31B689F42F8D107607B684360A6
:105630001860786077E70A48FEF73AFDA06863E7EC
:105640000748FEF735FD2369A1E71F46B8E71F4667
:10565000EBE7FBF7B5FF00BF00080020B02A0020F1
:105660002010010800000000000000000000000001
:1056700030B5154C83B0236801930546202383F38E
:105680001188FFF7F5FDFEF7B3FD2846FFF728FF69
:10569000FEF7CEFDFFF704FE0C4B1A689A4204D0C9
:1056A000996993688A689A4208D3002383F3118822
:1056B000019A23689A4205D103B030BD0448FEF731
:1056C000F7FCF2E7FBF77CFF00080020B02A00207F
:1056D00000100108000000000000000000000000B1
:1056E0002DE9F043DFF800813C4FD8F80030BE6967
:1056F00083B005460193002864D0202383F31188EA
:10570000FFF7B6FDFEF774FD336C002B5ED09B688F
:10571000B34202D03248FEF7CBFC2B69002B49DDA7
:10572000013B2B615BBB336CAB4202D02C48FEF7D4
:10573000BFFCEB683364FEF753FE2B689D423ED0FE
:10574000D6E910495CB1FEF74BFE23689C4203D0BA
:105750009B68994538BF9946E468002CF3D1C6F898
:1057600008902B6801222A611A682A605560AB6094
:105770001A6CEA6018461D640021FFF749F8FEF72D
:1057800057FDFFF78DFD3B68BB4204D0BA699B68AB
:1057900092689A420AD3002383F31188019AD8F8B9
:1057A00000309A4217D103B0BDE8F0830D48FEF7F0
:1057B0007FFCF0E70A48FEF77BFC2B69B0E700238B
:1057C000AB60DCE70648FEF773FC96E70448FEF79B
:1057D0006FFC336C9BE7FBF7F3FE00BFB02A0020A1
:1057E000301001080010010800080020000000002F
:1057F0002DE9F041DFF8D880334BD8F800209E69BE
:1058000082B005460192FEF7EBFD002D4FD0336CC0
:10581000002B52D09B68B34202D02C48FEF748FCC4
:105820002B69002B3EDD013B2B61002B32D1336C09
:10583000AB4202D02548FEF73BFCEB683364FEF731
:10584000CFFD2B689D4223D0D6E910475CB1FEF70F
:10585000C7FD23689C4203D09B689F4238BF1F4608
:10586000E468002CF3D1B7602868019901232B610B
:1058700003682B60D8F800205D60A860036CEB60C3
:10588000914205641ED102B0BDE8F041FEF7C8BEEA
:105890000023AB60019AD8F800309A4212D102B0CE
:1058A000BDE8F0810948FEF703FC2B69BBE7074818
:1058B000FEF7FEFB336C002BACD10448FEF7F8FB7F
:1058C000336CA7E7FBF77CFEB02A002040100108EC
:1058D00000080020000000000000000000000000A0
:1058E00070B5114E82B0044633680193FEF750FD47
:1058F0009CB12068A0420AD06FF0010503682360C4
:105900005C60FEF78DFE85622068A042F6D1019AA8
:1059100033689A4205D102B070BD0448FEF7C8FB57
:10592000E7E7FBF74DFE00BF00080020601001080C
:1059300030B5164C83B0236801930546202383F3CA
:105940001188FFF795FCFEF753FC2846FFF7C8FFC8
:10595000FFF746F8FEF76CFCFFF7A2FC0C4B1A6849
:105960009A4204D0996993688A689A4208D30023BE
:1059700083F31188019A23689A4205D103B030BDA0
:105980000448FEF795FBF2E7FBF71AFE000800203B
:10599000B02A0020501001080000000000000000A4
:1059A0002DE9F0411E4F1F4E3B68B46982B0054699
:1059B0000193FEF715FD65B3236C33B3B369D3F8D8
:1059C00040804046FFF714FF2E46A5622B4603E0B9
:1059D0009968A268914216D31B689D42F8D126604F
:1059E0007368636007201C607460FEF799FE404690
:1059F000A46AFFF775FD019A3B689A4220460CD1D4
:105A000002B0BDE8F0811E46E9E70748FEF750FB0B
:105A1000D4E70548FEF74CFBCEE7FBF7D1FD00BF0E
:105A200000080020B02A00208010010800000000BB
:105A300030B5164C83B0236801930546202383F3C9
:105A40001188FFF715FCFEF7D3FB2846FFF7A8FFE8
:105A50000546FEF7EDFBFFF723FC0D4B1A689A4253
:105A600004D0996993688A689A4209D3002383F322
:105A70001188019A23689A42284605D103B030BDA7
:105A80000448FEF715FBF1E7FBF79AFD000800203C
:105A9000B02A0020501001080000000000000000A3
:105AA00070B5184E82B00446336801930D46FEF778
:105AB0006FFC0CB3E16B94F8203029430A2BE163AF
:105AC00016D00B2B05D0019A33689A4218D102B038
:105AD00070BDA36A8B43F6D1019A336800219A42C4
