:020000040800F2
:1000000000040020C10100086145000861450008A6
:100010000137000861450008614500086145000896
:1000200061450008614500086145000861670008F6
:1000300061450008614500086145000841CA0008A3
:1000400061450008E19D0008719F0008C19F0008FC
:100050006145000861450008219B0008719B00086C
:10006000C19B0008119C0008619C0008F18D0008EC
:10007000418E0008918E0008E18E0008318F000843
:10008000818F0008D18F00086198000861A10008E5
:10009000D1A1000881A2000831A30008B19C00088A
:1000A0006145000861450008A1C4000861450008D9
:1000B00001C6000841C6000881C6000831AF00082B
:1000C00071B00008614500086145000861450008FD
:1000D00061450008614500086145000801CB000842
:1000E000419D0008319E0008819E0008E1C400087F
:1000F000614500086145000861450008219000083D
:1001000061450008C1A40008C1C600086145000897
:10011000614500086145000861C4000861450008A8
:1001200071900008C19000081191000861910008C9
:10013000B191000861450008D19E000861450008A2
:10014000614500086145000861450008F1BE0008EE
:100150000192000851920008A19200086145000830
:1001600061450008614500086145000861450008D7
:10017000219F000861450008012D00086145000825
:1001800061450008614500086145000861450008B7
:1001900061450008614500086145000861450008A7
:1001A0006145000861450008614500086145000897
:1001B0006145000861450008614500086145000887
:1001C00072B62E4880F3098840F20000CCF200009D
:1001D0004EF63471CEF20001086040F20000C0F229
:1001E000F0004EF68851CEF2000108604FF000009A
:1001F000E1EE100A4EF63C71CEF2000108600620D6
:1002000080F31488BFF36F8F0CF0C2FD4FF05530B0
:100210001B491C4A91423CBF41F8040BFAE71A49BA
:10022000164A91423CBF41F8040BFAE71749184AB5
:10023000184B9A423EBF51F8040B42F8040BF8E702
:1002400000201549154A91423CBF41F8040BFAE7DA
:1002500004F06EF9124C134DAC4203DA54F8041B4F
:100260008847F9E702F0E4F80F4C104DAC4203DA8E
:1002700054F8041B8847F9E704F06AB90008002025
:10028000000000200004002000040020F8560108AF
:10029000000800209415002098150020500E012021
:1002A000C0010008C0010008C0010008C00100082A
:1002B0002DE9F04F2DED108AC1F80CD0D0F80CD0FC
:1002C000BDEC108ABDE8F08F04F08AFA05F090FAD0
:1002D000002383F311882846A047002005F058F832
:1002E00005F06EFA04F05CFA04F07AFE04F078FA95
:1002F00005F07EFA00DFFEE70000000000000000CD
:100300002DE9F843544B80461A68544882422DED3B
:10031000028B1BD052490B68DA0405D40A6842F4F8
:1003200080530B60012000E000204E4A4E491160CE
:1003300013684A4A934208D147490B6030B1484894
:10034000036823F48052026000E0FEE798ED018A22
:10035000B5EE408A0021F1EE10FAC8F81C10C8F87A
:100360001810C8F81410C8F81010C8F82810C8F8E9
:100370002410C8F8201029D0DFED3C7A28EE270A97
:1003800010EE100A01F038F8044618EE100A0D4677
:1003900001F032F80646B8F800000F4601F01AF8EE
:1003A0002BA3D3E9002301F0ADF902460B463046FA
:1003B000394600F0C3FE02460B462046294601F0AE
:1003C000A1F901F0B5FAA8F82C0001E0A8F82C106A
:1003D00098ED028AB5EE408AF1EE10FA26D0B8F810
:1003E00000904FEA092000F0F5FF044618EE100ACD
:1003F0000D4601F001F816A3D3E9002301F058F8E7
:10040000064648460F4600F0E5FF02460B463046DA
:10041000394600F093FE02460B462046294601F07D
:1004200071F901F085FAA8F82E0002E00020A8F882
:100430002E00B8F800204FF47A73B2FBF3F1A8F85D
:100440003010BDEC028BBDE8F88300BFAFF3008035
:100450001F85EB51B81E194098150020CDB5E8B5A1
:100460003038024000300240C2A507F4000080434B
:100470002DE9F04F9BB083461992A94A1891A948DB
:100480001168814200D0FEE79E6AB3F80CC09F69F4
:100490009A8DD98D039603261C6A5D6A059706928C
:1004A00006FB0CF74FEA8C0206264FEA4C000B9134
:1004B0000E97052106FB0CF70F9207220294049574
:1004C0000D90119701FB0CF04FEACC0602FB0CF1EA
:1004D00000271D695C69D3F81CA010901291179633
:1004E0000197188EDDF80490814580F20A818E48CC
:1004F0009BF800601BF80C7010F80690C25DA144D8
:100500008419511994F8008194F8002201EB4808ED
:10051000CDF81C80DDF834801BF80860855DC719B4
:10052000A9180E9A97F800411BF8022097F800725C
:1005300001EB4405815C0895CC1981190F9E91F857
:10054000008191F8007204EB48081BF80640CDF8D2
:1005500024808218055D92F8006192F80022E91962
:1005600001EB460505EB0807DDF8408015971BF801
:1005700008700A950419C15D94F8005194F800427E
:10058000DDF81C808E1806EB4501119D089A1BF8BA
:1005900005508E18C719425D1696161997F8002156
:1005A00006EB42029044CDF85080129C97F80072FE
:1005B0001BF804604519845DE41995F8007195F8FD
:1005C0000052801904EB47044FF01C0804EB0907A4
:1005D00090F80061139708FB09AADDF81C800C94C1
:1005E0000AEB0209152705EB460490F8005207FBB9
:1005F0000890099FDDF820900A2606FB070A0F27BE
:1006000007FB09A04FF00308DDF8289008FB010064
:100610004FF0060A0AFB0900009015984FF03009C8
:1006200009FB00FADDF858902E2000FB09A0824655
:100630000598824413984FF0240909FB00AA1498E6
:100640004FF02A0909FB00AA0898DDF8249008FB5E
:1006500000F8062000FB0988DDF81C9008EB090073
:1006600007FB01010A9F0C98DDF8009006FB0718B4
:100670001C2606FB008115270B9807FB021205922A
:10068000A9F5003868B1029E049FCDF8108006EBF2
:100690000801CE1B46434FF4807296FBF2F00290A5
:1006A0008046069961B1039E08FB01F8C1F5807789
:1006B00006FB07894FF4807299FBF2F003908046A5
:1006C000199901FB08F7002F02DD0837381103E004
:1006D000083F102697FBF6F047F6BC72019E1349BF
:1006E000189FDDF85C809042A8BF1046DA897243FB
:1006F0008842A8BF0146013627F81210C34401966C
:10070000EFE61D615C61029D059C1D629C61039D7D
:10071000049CC3F81CA05C629D621BB0BDE8F08F16
:1007200098150020CDB5E8B5000800204480FFFFF3
:100730002DE9F04FA1B0C74C1F92C74A1E91116816
:10074000A14200D0FEE79F6A9A69998DDC8D0497DB
:100750009F89069207910F940322052106241D6AA2
:100760005E6A03957A4379437C43129214911594FF
:10077000072209210A24794305964FEA47084FEAE0
:1007800087097A434FEAC70A7C431E695D69D3F83B
:100790001CB01891CDF84480CDF84C901692CDF84D
:1007A0005CA01D94002102911A8E0299914280F260
:1007B0005981AA4A047812F80490A944C55D111918
:1007C00012F8058091F8004191F800A2464406EB2A
:1007D0004406119C0896045D5519165D95F800C1F4
:1007E00095F8005206EB0A0808EB4C0ADDF8488041
:1007F000CDF824A010F80810DDF84C80565C1419D0
:1008000006EB050A10F8085094F800C1565D94F8FC
:10081000004251180AEB4C0C361991F800A1149CB7
:1008200091F80012CDF828C006EB4A08065DCDF815
:100830002C80945DDDF85480551904EB010A95F87D
:10084000004195F800520AEB44010C9110F8081091
:100850009619545C641996F8005104EB45040D9404
:10086000169D96F80062DDF824A0DDF85C80A444B3
:10087000445DCDF86CC0155D5118AD1991F800615B
:1008800091F8001205EB460505EB0A060E9510F8E7
:1008900008501C961419565DDDF860A0711894F884
:1008A000006194F8004201EB460C08990CEB01063C
:1008B0001A9610F80A605519915D9219091995F860
:1008C000004192F8006195F8005201EB44012D249B
:1008D00001EB090804FB09BB10910899CDF864806D
:1008E0000BEB0C09DDF8288005EB460592F8006259
:1008F000242202FB019A152404FB08A9DDF824A098
:100900000C994FF01C0B0BFB0A994FF00A08DDF80D
:100910002CA008FB01994FF00F0B0E990BFB0A99C5
:100920004FF00308DDF834A008FB01994FF0060BE7
:100930000BFB0A99CDF80490DDF82CA00C994FF030
:100940004B0B51440BFB01F91B994FF0490A0AFB71
:10095000019B0699DDF868900BEB010A4FF03F0B05
:100960001C990BFB09AA4FF0450BDDF864900BFBBB
:1009700001AA4FF0370B0BFB09ABDDF824A00A9955
:1009800008FB0AF84FF00609DDF820A009FB0188F2
:100990000C99D0444FF00F09DDF82CA009FB018819
:1009A0000A21DDF8389001FB0A884FF01C0A0D99E6
:1009B0000AFB098804FB018A109C0F994FF02D094E
:1009C00009FB04A8DDF804A002FB0C820692AAF53C
:1009D0007A3971B1039C0599CDF8149004EB0902A2
:1009E000541A0F9A4FF48071544394FBF1F403941A
:1009F000A146079961B1049CC1F5807209FB01FC15
:100A000004FB02C94FF4807199FBF1F20492914604
:100A10001F9C04FB09F1002902DD10314C1103E099
:100A20001039202291FBF2F447F6BC718C42A8BF2A
:100A30000C46DA890299DDF874804A4308498C42F1
:100A4000A8BF21461E9C24F81210029A4044511C53
:100A5000A9E600BFCDB5E8B5981500200008002034
:100A60004480FFFF05981E615D61039E069D049C06
:100A700058629D61C3F81CB01E629C62104621B092
:100A8000BDE8F08F2DE9F04F95B0994C1392994A3B
:100A900012911168A14200D0FEE75E6A1D6A9F6A4A
:100AA0009A69998DB3F82E800C964FF00009D3F80F
:100AB00010C05E69D3F81CB00195029709920A91A3
:100AC000CDF83480CDF80C908B4904780D190C5D6D
:100AD00095F8007295F8008106EB070A067ACDF8C2
:100AE0002CA08F198E5D97F8002202EB4805AC44CC
:100AF000057C97F80081CDF810C04A194D5D92F839
:100B0000009292F8002109EB040A0AEB480C90F8D5
:100B100018A090F82090CDF814C001EB0A0494F8C6
:100B2000007294F80041BF1907EB420801EB09027B
:100B3000CDF8188092F8006292F80021771907EB3F
:100B4000440606EB080C90F8288011F80A70079606
:100B500001EB0805CDF840C095F8004295F800512A
:100B6000E619059F06EB4204E619119690F83060ED
:100B700008948C1911F8097094F80022D219049F76
:100B800002EB4502BD180F9590F8385011F8089007
:100B900094F80041DDF82C808E5D4F1997F800A283
:100BA00097F800710AEB090C0CEB4404DDF818A06F
:100BB00011F805C000941C2505FB082944440A21AE
:100BC000DDF8148001FB0A9906EB4706DDF820A04A
:100BD0000F2707FB0899032101FB0A99DDF81CA0E8
:100BE0004FF0060808FB0A99DDF810A0152101FB5B
:100BF0000A99CB44DDF84490CDF82CB04FF02E0A82
:100C00000AFB09FADDF840904FF0300B0BFB09AA04
:100C10004FF0240B0BFB04A90F9C4FF02A0A0AFB90
:100C2000049B099CDDF81890DDF810A0A344059CF6
:100C300008FB09A8DDF820A04FF0030909FB048890
:100C4000079C07FB0A890A2707FB0498DDF8009038
:100C5000DDF82CA00C9F05FB098501FB02520199D0
:100C60000992AAF500328C180D99DDF82880E51B51
:100C70004D434FF4807195FBF1F40194019F44467C
:100C80007C43029FC8EB010507FB054595FBF1F18D
:100C90000291139C6143002902DD0831091103E030
:100CA0000839102791FBF7F147F6BC75134C129FDA
:100CB0000C92A942A8BF2946039DA142B8BF214674
:100CC00079530C354030C02D03957FF4FDAE099863
:100CD000019C029D9861C3F810C05E61C3F81CB00E
:100CE0001C625A629D62102015B0BDE8F08F00BFF3
:100CF000CDB5E8B598150020000800204480FFFF1E
:100D00002DE9F04FA1B084461F92BE4A1E91BE4805
:100D10001168814200D0FEE79E6A9F6905969E8910
:100D2000D98D01967000079703277E431190019893
:100D30009A8D0F9112960521019E08924843B200A8
:100D40001490019E01980199139206277E43072271
:100D5000C700514315961797019E019F1C6A5D6A53
:100D6000169109220A2156434F434FF0000804947C
:100D700006955C691D69D3F81CB018961D97CDF8CF
:100D80000C80188EDDF80C90814580F25A819F49C5
:100D90009CF80000DDF804900F181CF8096097F823
:100DA00000A297F80021085CA2448C198E5D94F88B
:100DB000008294F80041454405EB4207119D0997D4
:100DC0001CF805504A194D5D92F8007292F80081A6
:100DD0003F18129807EB44091CF80040CDF8289002
:100DE00008190C5D90F8007290F80001BF1907EB2C
:100DF0004809DDF84C80CDF82C901CF8089001EBE8
:100E00000902CDF8089092F8006292F80021771953
:100E1000149E1CF80690159E07EB400801EB090094
:100E2000CDF8308090F8005290F800012F1907EBB0
:100E300042081CF80670029DCDF83480CA194E5D38
:100E400092F80042A41904EB40050295DDF82C80CD
:100E5000169E92F80021CF5DA844CDF86C801CF856
:100E6000068011F80950DDF8609001EB080011F8D8
:100E7000088090F8004290F8000166190A9D06EB80
:100E80004204179A0E9466191C961CF802608C197D
:100E90008E5D94F8002294F80041D519099F05EB66
:100EA0004002D5191A951CF809504F194D5D97F855
:100EB000000297F80071404400EB44002D2100EB44
:100EC0000A0401FB0ABB1090099819940BEB020A63
:100ED00006EB470424210B9F01FB00A94FF01508E6
:100EE000DDF828A00D9808FB07964FF01C0B0BFBB4
:100EF0000A69DDF830800A2606FB009A0F27DDF824
:100F0000389007FB08AB4FF0030808FB09BADDF87F
:100F100008B0062000FB0BA9CDF80090DDF834A046
:100F2000DDF830B04FF04B090AEB0B0009FB00FA7B
:100F30001B984FF0490B0BFB00A9079809EB000A1F
:100F4000DDF868901C984FF03F0B0BFB09AA4FF09F
:100F5000450BDDF864900BFB00AA4FF0370B0BFB41
:100F600009ABDDF828A00B9808FB0AF84FF006093A
:100F7000DDF824A009FB00880D9808EB0A0907FB9F
:100F800000980C9FDDF83890029806FB07864FF01A
:100F90001C0A0AFB0968152707FB008610980F9F9B
:100FA0004FF02D0909FB006A01FB02A2DDF800A049
:100FB0000792AAF57A386FB10499069ECDF8188089
:100FC00001EB0800811B79434FF4807291FBF2F72B
:100FD0000497B846089860B1059908FB00F8C0F579
:100FE000807601FB06894FF4807299FBF2F7059732
:100FF000B8461F9800FB08F6002E09DD1036771161
:101000000AE000BF98150020CDB5E8B50008002023
:10101000103E202196FBF1F7039ED8891049DDF898
:10102000748047F6BC729742A8BF17468F42A8BF8C
:10103000394670431E9F721C27F81010C444039257
:101040009FE65C61079C049A9C61059E069C1D615D
:10105000C3F81CB01A625C629E6221B0BDE8F08FDA
:101060004480FFFFAFF3008000000000000000009C
:101070004B1C012B98BF70472DE9F003911C9B0876
:10108000B1F80480B1F802900A8831F802CC8044AB
:10109000814402448444D9F80070D8F8006015688F
:1010A000DCF80040C9F80060C8F80070CCF80050C7
:1010B0001460D9F80470D8F804605568DCF804406E
:1010C000C9F80460C8F80470CCF8045054600831C2
:1010D000013BD5D1BDE8F00370474B1C012B98BFF5
:1010E00070472DE9F003911C9B08B1F80480B1F81A
:1010F00002900A8831F802CC00EB580800EB59093D
:1011000000EB520200EB5C0CD9F80070D8F80060DC
:101110001568DCF80040C9F80060C8F80070CCF829
:10112000005014600831013BDFD1BDE8F003704787
:1011300081F0004102E000BF83F0004330B54FEA88
:1011400041044FEA430594EA050F08BF90EA020FF5
:101150001FBF54EA000C55EA020C7FEA645C7FEA88
:10116000655C00F0E2804FEA5454D4EB5555B8BFAB
:101170006D420CDD2C4480EA020281EA030382EA1C
:10118000000083EA010180EA020281EA0303362DAE
:1011900088BF30BD11F0004F4FEA01314FF4801C81
:1011A0004CEA113102D0404261EB410113F0004F93
:1011B0004FEA03334CEA133302D0524263EB43034A
:1011C00094EA050F00F0A780A4F10104D5F1200EE8
:1011D0000DDB02FA0EFC22FA05F2801841F1000143
:1011E00003FA0EF2801843FA05F359410EE0A5F117
:1011F00020050EF1200E012A03FA0EFC28BF4CF048
:10120000020C43FA05F3C01851EBE37101F00045FD
:1012100007D54FF0000EDCF1000C7EEB00006EEB0A
:101220000101B1F5801F1BD3B1F5001F0CD3490894
:101230005FEA30004FEA3C0C04F101044FEA4452EB
:1012400012F5800F80F09A80BCF1004F08BF5FEA72
:10125000500C50F1000041EB045141EA050130BD52
:101260005FEA4C0C404141EB010111F4801FA4F1F5
:101270000104E9D191F0000F04BF01460020B1FA4A
:1012800081F308BF2033A3F10B03B3F120020CDA82
:101290000C3208DD02F1140CC2F10C0201FA0CF060
:1012A00021FA02F10CE002F11402D8BFC2F1200CC5
:1012B00001FA02F120FA0CFCDCBF41EA0C0190407B
:1012C000E41AA2BF01EB0451294330BD6FEA0404C4
:1012D0001F3C1CDA0C340EDC04F11404C4F12002AF
:1012E00020FA04F001FA02F340EA030021FA04F3C1
:1012F00045EA030130BDC4F10C04C4F1200220FA18
:1013000002F001FA04F340EA0300294630BD21FA55
:1013100004F0294630BD94F0000F83F4801306BF1B
:1013200081F480110134013D4EE77FEA645C18BF0F
:101330007FEA655C29D094EA050F08BF90EA020FA6
:1013400005D054EA000C04BF1946104630BD91EA9E
:10135000030F1EBF0021002030BD5FEA545C05D1A1
:101360004000494128BF41F0004130BD14F58004E0
:101370003CBF01F5801130BD01F0004545F0FE4154
:1013800041F470014FF0000030BD7FEA645C1ABF89
:10139000194610467FEA655C1CBF0B46024650EAC0
:1013A000013406BF52EA033591EA030F41F40021EC
:1013B00030BD00BF90F0000F04BF0021704730B572
:1013C0004FF4806404F132044FF000054FF0000147
:1013D00050E700BF90F0000F04BF0021704730B508
:1013E0004FF4806404F1320410F0004548BF4042DD
:1013F0004FF000013EE700BF42004FEAE2014FEA32
:1014000031014FEA02701FBF12F07F4393F07F4F0C
:1014100081F06051704732F07F4208BF704793F00F
:101420007F4F04BF41F40021704730B54FF4607422
:1014300001F0004521F000411CE700BF50EA010225
:1014400008BF704730B54FF000050AE050EA0102CE
:1014500008BF704730B511F0004502D5404261EB3E
:1014600041014FF4806404F132045FEA915C3FF47F
:10147000D8AE4FF003025FEADC0C18BF03325FEA1C
:10148000DC0C18BF033202EBDC02C2F1200300FACD
:1014900003FC20FA02F001FA03FE40EA0E0021FAF2
:1014A00002F11444BDE600BF00000000000000008F
:1014B00070B54FF0FF0C4CF4E06C1CEA11541DBFEA
:1014C0001CEA135594EA0C0F95EA0C0F00F0DEF8B5
:1014D0002C4481EA030621EA4C5123EA4C5350EA9A
:1014E000013518BF52EA033541F4801143F48013EB
:1014F00038D0A0FB02CE4FF00005E1FB02E506F07C
:101500000042E0FB03E54FF00006E1FB03569CF0D0
:10151000000F18BF4EF0010EA4F1FF04B6F5007FD6
:1015200064F5407404D25FEA4E0E6D4146EB060648
:1015300042EAC62141EA55514FEAC52040EA5E50D1
:101540004FEACE2EB4F1FD0C88BFBCF5E06F1ED87B
:10155000BEF1004F08BF5FEA500E50F1000041EBB2
:10156000045170BD06F0004646EA010140EA02005F
:1015700081EA0301B4EB5C04C2BFD4EB0C0541EA81
:10158000045170BD41F480114FF0000E013C00F396
:10159000AB8014F1360FDEBF002001F0004170BDBA
:1015A000C4F10004203C35DA0C341BDC04F11404D3
:1015B000C4F1200500FA05F320FA04F001FA05F25F
:1015C00040EA020001F0004221F0004110EBD3702C
:1015D00021FA04F642EB06015EEA430E08BF20EA58
:1015E000D37070BDC4F10C04C4F1200500FA04F3FB
:1015F00020FA05F001FA04F240EA020001F000418D
:1016000010EBD37041F100015EEA430E08BF20EAFF
:10161000D37070BDC4F1200500FA05F24EEA020E47
:1016200020FA04F301FA05F243EA020321FA04F076
:1016300001F0004121FA04F220EA020000EBD3702D
:101640005EEA430E08BF20EAD37070BD94F0000F2D
:101650000FD101F00046400041EB010111F4801F61
:1016600008BF013CF7D041EA060195F0000F18BF12
:10167000704703F00046520043EB030313F4801F4E
:1016800008BF013DF7D043EA0603704794EA0C0F08
:101690000CEA135518BF95EA0C0F0CD050EA41061E
:1016A00018BF52EA4306D1D181EA030101F000419B
:1016B0004FF0000070BD50EA410606BF10461946C3
:1016C00052EA430619D094EA0C0F02D150EA0136CF
:1016D00013D195EA0C0F05D152EA03361CBF104610
:1016E00019460AD181EA030101F0004141F0FE41AF
:1016F00041F470014FF0000070BD41F0FE4141F433
:10170000780170BD70B54FF0FF0C4CF4E06C1CEA32
:1017100011541DBF1CEA135594EA0C0F95EA0C0FE7
:1017200000F0A7F8A4EB050481EA030E52EA0335A2
:101730004FEA013100F088804FEA03334FF08055C3
:1017400045EA131343EA12634FEA022245EA1115F0
:1017500045EA10654FEA00260EF000419D4208BFA1
:10176000964244F1FD0404F5407402D25B084FEA4E
:101770003202B61A65EB03055B084FEA32024FF4FA
:1017800080104FF4002CB6EB020E75EB030E22BF57
:10179000B61A754640EA0C005B084FEA3202B6EB17
:1017A000020E75EB030E22BFB61A754640EA5C00C6
:1017B0005B084FEA3202B6EB020E75EB030E22BF56
:1017C000B61A754640EA9C005B084FEA3202B6EB57
:1017D000020E75EB030E22BFB61A754640EADC0016
:1017E00055EA060E18D04FEA051545EA16754FEA78
:1017F00006164FEAC30343EA52734FEAC2025FEA96
:101800001C1CC0D111F4801F0BD141EA00014FF024
:1018100000004FF0004CB6E711F4801F04BF0143F5
:101820000020B4F1FD0C88BFBCF5E06F3FF6AFAE11
:10183000B5EB030C04BFB6EB020C5FEA500C50F1A1
:10184000000041EB045170BD0EF0004E4EEA113124
:1018500014EB5C04C2BFD4EB0C0541EA045170BD2B
:1018600041F480114FF0000E013C90E645EA060E6F
:101870008DE60CEA135594EA0C0F08BF95EA0C0F9D
:101880003FF43BAF94EA0C0F0AD150EA01347FF4E5
:1018900034AF95EA0C0F7FF425AF104619462CE7BC
:1018A00095EA0C0F06D152EA03353FF4FDAE10461F
:1018B000194622E750EA410618BF52EA43067FF470
:1018C000C5AE50EA41047FF40DAF52EA43057FF400
:1018D000EBAE12E700000000000000000000000076
:1018E0004FEA410212F5001215D211D56FF4787348
:1018F000B3EB625212D94FEAC12343F0004343EAEB
:10190000505311F0004F23FA02F018BF40427047C5
:101910004FF00000704750EA013005D111F000404F
:1019200008BF6FF0004070474FF00000704700BFE5
:101930004A0011D212F5001211D20DD56FF478734E
:10194000B3EB62520ED44FEAC12343F0004343EAA3
:10195000505323FA02F070474FF00000704750EAEE
:10196000013002D14FF0FF3070474FF00000704758
:101970004FEA4102B2F1E04324BFB3F5001CDCF1B1
:10198000FE5C0DD901F0004C4FEAC0024CEA5070E9
:10199000B2F1004F40EB830008BF20F00100704718
:1019A00011F0804F21D113F13872BCBF01F000401B
:1019B000704741F480114FEA5252C2F11802C2F14D
:1019C000200C10FA0CF320FA02F018BF40F00100CE
:1019D0004FEAC1234FEAD32303FA0CFC40EA0C0080
:1019E00023FA02F34FEA4303CCE77FEA625307D1BD
:1019F00050EA01331EBF4FF0FE4040F440007047F4
:101A000001F0004040F0FE4040F40000704700BF8D
:101A100053B94AB9002908BF00281CBF4FF0FF3155
:101A20004FF0FF3000F074B9ADF1080C6DE904CE51
:101A300000F006F8DDF804E0DDE9022304B07047A9
:101A40002DE9F047089E04468846002B4BD18A4278
:101A5000154667D9B2FA82F24AB1C2F1200701FAFB
:101A600002F320FA07F7954047EA030894404FEA4B
:101A7000154E230CB8FBFEF71FFA85FC0EFB1788EA
:101A800043EA084307FB0CF1994209D9EB1807F127
:101A9000FF3080F01B81994240F21881023F2B44B5
:101AA0005B1AA4B2B3FBFEF00EFB103344EA03440E
:101AB00000FB0CFCA44509D92C1900F1FF3380F080
:101AC0000781A44540F2048102382C4440EA0740D3
:101AD000A4EB0C0400271EB1D4400023C6E9004348
:101AE0003946BDE8F0878B4209D9002E00F0EB8023
:101AF0000027C6E9000138463946BDE8F087B3FA49
:101B000083F7002F47D18B4202D3824200F2FA8042
:101B1000841A61EB030301209846002EE0D0C6E949
:101B20000048DDE702B9FFDEB2FA82F2002A40F097
:101B30008F80491B4FEA154E1FFA85F80127B1FB2C
:101B4000FEFC230C0EFB1C1143EA014308FB0CF1C5
:101B5000994207D9EB180CF1FF3002D2994200F2FA
:101B6000CD808446591AA3B2B1FBFEF00EFB1014CF
:101B700043EA044408FB00F8A04507D92C1900F1FA
:101B8000FF3302D2A04500F2B6801846A4EB080449
:101B900040EA0C409FE7C7F1200CBB4022FA0CFE44
:101BA0004EEA030E01FA07F420FA0CF521FA0CF3C1
:101BB0004FEA1E482543B3FBF8F92C0C08FB1933F8
:101BC0001FFA8EFA44EA034309FB0AF49C4202FA24
:101BD00007F200FA07F10BD91EEB030309F1FF30FE
:101BE00080F087809C4240F28480A9F1020973440E
:101BF0001B1BADB2B3FBF8F008FB103345EA0344FE
:101C000000FB0AFAA24508D91EEB040400F1FF33D9
:101C10006BD2A24569D90238744440EA0940A0FB5E
:101C20000289A4EB0A044C45C2464B4654D351D01A
:101C3000002E69D0B1EB0A0564EB030404FA0CFC36
:101C4000FD40FC404CEA0505C6E90054002747E783
:101C5000C2F1200320FA03F7954001FA02F021FABD
:101C600003F34FEA154E3843010CB3FBFEF71FFA9E
:101C700085F80EFB173341EA034107FB08F38B425B
:101C800004FA02F407D9691807F1FF3C2FD28B42FE
:101C90002DD9023F2944CB1A81B2B3FBFEF00EFBD3
:101CA000103341EA034100FB08F38B4207D969185E
:101CB00000F1FF3C17D28B4215D902382944C91ACA
:101CC00040EA07473BE73746304609E70746E7E67D
:101CD0001846FBE64145ABD2B8EB020A69EB0E02AF
:101CE00001381346A4E76046E9E7184695E76746DA
:101CF000D1E781467CE702382C4447E7ACF1020C7F
:101D00002B442FE7384608E73746E9E60000000095
:101D1000704700BF0000000000000000000000004D
:101D2000844641EA000313F003036DD1403A41D3E6
:101D300051F8043B40F8043B51F8043B40F8043BA5
:101D400051F8043B40F8043B51F8043B40F8043B95
:101D500051F8043B40F8043B51F8043B40F8043B85
:101D600051F8043B40F8043B51F8043B40F8043B75
:101D700051F8043B40F8043B51F8043B40F8043B65
:101D800051F8043B40F8043B51F8043B40F8043B55
:101D900051F8043B40F8043B51F8043B40F8043B45
:101DA00051F8043B40F8043B51F8043B40F8043B35
:101DB000403ABDD2303211D351F8043B40F8043BD5
:101DC00051F8043B40F8043B51F8043B40F8043B15
:101DD00051F8043B40F8043B103AEDD20C3205D3E5
:101DE00051F8043B40F8043B043AF9D2043208D0DD
:101DF000D2071CBF11F8013B00F8013B01D30B884F
:101E000003806046704700BF082A13D38B078DD02C
:101E100010F003038AD0C3F10403D21ADB071CBFFE
:101E200011F8013B00F8013B80D331F8023B20F868
:101E3000023B7BE7043AD9D3013A11F8013B00F8A1
:101E4000013BF9D20B7803704B7843708B78837029
:101E50006046704700000000000000000000000025
:101E6000A2EB0300704700BF02780B78012A28BF5D
:101E70009A42F5D16DE9044540EA0104CDE90267D3
:101E80006FF0000C4FEA447212B380EA010414F0C0
:101E9000070F6AD100F0070420F0070004F00305E3
:101EA00021F007014FEAC505F0E8042314F0040F00
:101EB000F1E804670CFA05F462EA040266EA040633
:101EC0000AD063EA0403624667EA0407664603E051
:101ED000F0E80423F1E8046782FA4CF582EA06048C
:101EE000A4FA8CF46CBB83FA4CF583EA0705A5FAD7
:101EF0008CF595B950E9022351E9026782FA4CF555
:101F000082EA0604A4FA8CF483FA4CF583EA070506
:101F1000A5FA8CF52543DBD09CB92DBAB5FA85F42A
:101F200024F0070427FA04F1DDE9026723FA04F339
:101F300003F0FF0001F0FF01FDE80445A0EB010004
:101F4000704724BAB4FA84F424F0070426FA04F1A2
:101F5000DDE9026722FA04F202F0FF0001F0FF015E
:101F6000FDE80445A0EB0100704714F0030F3CD1DD
:101F700010F0030428D150F8082B51F8083B82FADE
:101F80004CF582EA0305A5FA8CF55DB950F8042CEE
:101F900051F8043C82FA4CF582EA0305A5FA8CF567
:101FA000002DE8D02DBAB5FA85F424F0070423FA01
:101FB00004F122FA04F202F0FF0001F0FF01FDE853
:101FC0000445A0EB010070474FEAC40420F0030071
:101FD00050F8082B21F0030151F8083B0CFA04F4E7
:101FE00062EA040263EA0403C9E710F003041AD0AA
:101FF000A1EB040120F00300E40750F8042B06D005
:102000000FD28B785FFAA2F4E41A06D12BB1CB7809
:102010005FFAB2F4E41A00D11BB920465DF8104B08
:10202000704701F1040150F8042BCC0721F00301A3
:1020300051F8043B48D824D222F07F4482FA4CF570
:1020400094EA1325A5FA8CF50AD165B951F8043B39
:1020500084EA0204B4EB036F0ED150F8042BEBE7D3
:102060004FEA132355E035F07F454DD10878FDE860
:102070000445C0F1000070474FEA126203F0FF030D
:1020800047E002EA1C4482FA4CF594EA1345A5FAAB
:102090008CF50AD165B951F8043B84EA0204B4EB2B
:1020A000034F0CD150F8042BEBE74FEA134330E019
:1020B00015EA1C4528D10B884FEA124229E04FEA65
:1020C000124203EA1C4324E002F0FF0482FA4CF5BA
:1020D00094EA1365A5FA8CF50AD165B951F8043B69
:1020E00084EA0204B4EB032F09D150F8042BEBE788
:1020F0004FEA13630DE015F0FF0F05D10B684FEAAF
:10210000122223F07F4304E04FF00000FDE8044575
:10211000704712BA1BBA82FA4CF482EA0304A4FA9A
:102120008CF5B5FA85F402FA04F203FA04F34FEAE7
:102130001260FDE80445A0EB13607047000000004A
:1021400090F800F06DE9024520F007016FF0000CF7
:1021500010F0070491F820F040F049804FF000049F
:102160006FF00700D1E9002391F840F000F108007A
:1021700082FA4CF2A4FA8CF283FA4CF3A2FA8CF3B2
:102180004BBBD1E9022382FA4CF200F10800A4FA19
:102190008CF283FA4CF3A2FA8CF3E3B9D1E904236D
:1021A00082FA4CF200F10800A4FA8CF283FA4CF3A4
:1021B000A2FA8CF37BB9D1E9062301F1200182FA5E
:1021C0004CF200F10800A4FA8CF283FA4CF3A2FA64
:1021D0008CF3002BC6D0002A04BF04301A4612BA72
:1021E000B2FA82F2FDE8024500EBD2007047D1E975
:1021F000002304F00305C4F100004FEAC50514F004
:10220000040F91F840F00CFA05F562EA05021CBFD4
:1022100063EA050362464FF00004A9E700000000EE
:1022200001F0FF01102A2BDB10F0070F08D010F887
:10223000013B013A8B422DD010F0070F42B3F6D18B
:10224000F0B441EA012141EA014122F007047FF0A4
:1022500000070023F0E80256083C85EA010586EAFB
:10226000010685FA47F5A3FA87F586FA47F6A5FA37
:1022700087F68EB9EED1F0BC01F0FF0102F0070243
:1022800032B110F8013B013A83EA010313B1F8D1EE
:102290000020704701387047002D06BF35460338CF
:1022A000073815F0010F07D1013015F4807F02BF08
:1022B000013015F4C03F0130F0BC0138704700BF59
:1022C0004FF0FF3C06E000BF4FF0010C02E000BF02
:1022D0004FF0010C4DF804CD4FEA410C7FEA6C5CE5
:1022E0004FEA430C18BF7FEA6C5C1BD001B050EA88
:1022F000410C0CBF52EA430C91EA030F02BF90EA73
:10230000020F0020704710F1000F91EA030F58BF31
:10231000994208BF90422CBFD8176FEAE37040F093
:10232000010070474FEA410C7FEA6C5C02D150EA31
:10233000013C07D14FEA430C7FEA6C5CD6D152EAEC
:10234000033CD3D05DF8040B704700BF84461046B1
:1023500062468C461946634600E000BF01B5FFF7B0
:10236000B7FF002848BF10F1000F01BD4DF808ED80
:10237000FFF7F4FF0CBF012000205DF808FB00BF51
:102380004DF808EDFFF7EAFF34BF012000205DF8AB
:1023900008FB00BF4DF808EDFFF7E0FF94BF0120F8
:1023A00000205DF808FB00BF4DF808EDFFF7CEFFF9
:1023B00094BF012000205DF808FB00BF4DF808ED38
:1023C000FFF7C4FF34BF012000205DF808FB00BF09
:1023D0004FEA410C7FEA6C5C02D150EA013C0AD121
:1023E0004FEA430C7FEA6C5C02D152EA033C02D113
:1023F0004FF0000070474FF00100704700000000F0
:1024000000B5074B07491A68087083B00192019A1A
:102410001B689A4202D103B05DF804FB00F040F85B
:10242000000B0020A81500200000000000000000A4
:1024300000B5134B134C1B6883B0019304F0F0F903
:1024400002F0A6F801F004F90F49104805F040FC2D
:1024500001F076FE01F0D4FB0D480E4A0E4901F062
:1024600067FF01F0BDFD0D4800F0EAFD237823B9B8
:1024700000F05EF92378002BFAD000F021FAF5E79E
:10248000000B0020A8150020200B0020A40D012027
:102490009C150020040B00200C0B00204125000897
:1024A00000B5084B83B01A680192019A1B689A42E2
:1024B00005D1054803B05DF804EB02F0D1B8FFF791
:1024C000EFFF00BF000B0020C01701080000000054
:1024D00010B5164C9FED167A236882B02830019310
:1024E0004FF0FF320A23F0EC017AF4EEC77AF1EEF6
:1024F00010FAC8BF1AB203F10103C8BFB0EE677A81
:10250000812BF0D1A2F13F039BB2022B05D8012011
:10251000FFF776FF074B00221A70019A23689A4250
:1025200001D102B010BDFFF7BBFF00BF000B0020C0
:1025300000401C46A915002000000000000000001B
:102540002DE9F04F684E694F33683A8883B00193A4
:10255000002900F09380DFF89C91DFF8A081DFF87C
:10256000A4E1DFF89CC1DFED627A002504E00435C8
:10257000ADB2A94240F2B58030F9153007EE103AFD
:102580009400B8EEC77A09EB040A00EB45038AED24
:10259000007AB3F902A007EE10AAB8EEC77A08EBEA
:1025A000040A8AED007AB3F904A007EE10AAB8EE87
:1025B000C77A0EEB040A8AED007AB3F9063007EE0B
:1025C000103A531C9BB2B8EEC77A02329B006444A7
:1025D00092B284ED007A09EB030B08EB030A0EEBD1
:1025E0000304B2F5006F6344CBED007ACAED007AC4
:1025F000C4ED007AC3ED007AB9D33A803D493E4C30
:102600004FF4806000F0ACF83C494FF4806000F07B
:10261000A7F83B494FF4806000F0A2F839494FF425
:10262000806000F09DF84FF48062374931480BF02C
:1026300027F84FF48062354930480BF021F84FF409
:10264000806233492E480BF01BF84FF48062314909
:102650002C480BF015F82378082B19D80133DBB27E
:1026600001993268237091424FF000033B8036D1CC
:10267000264803B0BDE8F04FFFF72ABFB2F5006F60
:10268000BCD2019A33689A4229D103B0BDE8F08FD9
:10269000202383F3118803F093F802F081F802F00D
:1026A0004FF91D488368002B16DD02F071FC02F023
:1026B00097F803F09DF8194B1A689A4207D0996968
:1026C00093688A689A4202D2154801F0C9FF002334
:1026D00083F311880123C3E703F06AF9E5E7FFF705
:1026E000DFFE3A80CDE700BF000B0020AED5002012
:1026F00000000000ACA50020ACD50020AC75002087
:10270000AC450020AC150020ACC50020AC950020E5
:10271000AC650020AC3500202C0B002070FF0020A1
:10272000E0170108000000000000000000000000A9
:1027300000B5084B83B01A680192019A1B689A424F
:1027400005D1054803B05DF804EB03F0F9B8FFF7D5
:10275000A7FE00BF000B00202C0B00200000000093
:1027600000B50D4B83B01A680192B0F5806F019AE5
:102770001B6804D09A420CD103B05DF804FB9A4266
:1027800007D106480123002203B05DF804EB0AF0EC
:10279000F7BEFFF785FE00BF000B0020F017010811
:1027A0002DE9F041404C414EA369414A9A61A2B0E3
:1027B000336840494048219301F02AFE2023074610
:1027C00083F3118802F0FCFF01F0EAFFA56A02F032
:1027D00007F803F00DF82368A34204D0A2699B68B0
:1027E00092689A425AD3002383F3118800F0A0F82C
:1027F00010B900F0B5F838B300F082F8C0F5727384
:1028000001339BB2122B47D9C0F5707424B2139BCD
:10281000D3B9169BC3B9C4EB8478C4EB880840F2E3
:102820004C430522984414FB023409E0404601F071
:10283000CFF9204601F0B4F9139B2BB9169B1BB9B5
:1028400000F0A6F80028F1D001A93846802201F056
:1028500047FE119C189A129B1798C2EBC232C4EB28
:10286000C434C3EB4404C0EB420004F24C4400F215
:102870004C4000B224B201F0ABF9204601F090F9CF
:1028800005F10A01284602F003FD219A33689A42B5
:1028900008D122B0BDE8F0810024B8E7074801F074
:1028A000DFFEA0E7FFF7FCFD70FF0020000B00201B
:1028B00010180108001801089C15002020180108B4
:1028C00010B50A4C0A4B22680A4884B040F67811C9
:1028D000039200220092402202F042FC039A2368F5
:1028E0009A4201D104B010BDFFF7DAFD000B0020C1
:1028F000A1270008B0D50020000000000000000063
:1029000000B5074B07491A68088883B00192019AFD
:102910001B689A4202D103B05DF804FBFFF7C0FDCB
:10292000000B0020380B0020000000000000000019
:1029300000B5074B07491A68087883B00192019ADD
:102940001B689A4202D103B05DF804FBFFF7A8FDB3
:10295000000B002029DF0020000000000000000024
:1029600000B5074B07491A68087883B00192019AAD
:102970001B689A4202D103B05DF804FBFFF790FD9B
:10298000000B00202ADF00200000000000000000F3
:1029900000B5074B07491A68087883B00192019A7D
:1029A0001B689A4202D103B05DF804FBFFF778FD83
:1029B000000B002028DF00200000000000000000C5
:1029C00030B54368174D1A68296883B004460191F1
:1029D00012B304220270DA681B6852081146984745
:1029E0002378042B18D0202383F3118802F018FFDA
:1029F00001F016FF04F10800002102F011FD01F0C2
:102A00002FFF02F025FF002383F31188019A2B6822
:102A10009A4204D103B030BD02232370E3E7FFF7ED
:102A20003FFD00BF000B0020000000000000000080
:102A300070B5194D82B02B68019311F00C0F0C4644
:102A4000064622D114F0200109D0019A2B689A423F
:102A50001FD1304602B0BDE87040FFF7B1BFE306BA
:102A60000DD57268136853B1019C2868844210D157
:102A7000D2683046520802B0BDE870401847019A4B
:102A80002B689A4205D102B070BD044801F0E8FD00
:102A9000D8E7FFF705FD00BF000B00205018010824
:102AA00070B5194D82B02B68019311F00C0F0C46D4
:102AB000064622D114F0200109D0019A2B689A42CF
:102AC0001FD1304602B0BDE87040FFF779BFE30682
:102AD0000DD57268136853B1019C2868844210D1E7
:102AE000D2683046520802B0BDE870401847019ADB
:102AF0002B689A4205D102B070BD044801F0B0FDC8
:102B0000D8E7FFF7CDFC00BF000B002050180108EC
:102B100030B50F4D0F4C2A680F4B83B02046019201
:102B20004FF6FF721A8000F05BF90C4B01992A688E
:102B30000B480C4D2562636203F1240591420A4B58
:102B40002363C4E90A5001D103B030BDFFF7A8FCEC
:102B5000000B002044DF00202CDF00202823010888
:102B60001E010100003C0040460001000000000082
:102B700070B52C4D03782A6882B0012B044601926F
:102B800024D06368E26A5989236B22F4F04223F46B
:102B9000F043090544BF42F4205243F42053C4E9F2
:102BA0000B23236A00221A606268236A52891A6022
:102BB000236A03225A60226A136843F040031360B9
:102BC000019A2B689A422BD102B070BD164EB042CA
:102BD0000AD0D4E9083212680C339360A26A236ADF
:102BE00012680C339360CCE70346104A406A0A210E
:102BF00006F0B6FB80B9B06A0B4B0D4A0A2106F00D
:102C0000AFFB28B90B4A136C43F400431364E0E7AD
:102C1000094801F025FDF5E7074801F021FDEAE745
:102C2000FFF73EFC000B002044DF0020A12A000833
:102C3000312A000800380240301801080000000066
:102C400070B5456A174C2D68266882B00196EB6016
:102C5000436A1B685960456AC36A2D6843F4806300
:102C60002B60836A1B68DA60836A1B685960826A1A
:102C7000036B126843F480631360436A1A68136835
:102C800043F001031360836A1A68136843F0010379
:102C90001360019A23689A4201D102B070BDFFF718
:102CA000FFFB00BF000B0020000000000000000040
:102CB00030B5104D81682B680F4A83B001930B68C3
:102CC00023F001030B608168946A03E0936A1B1B85
:102CD000C72B09D8086810F00100F7D1019A2B68BA
:102CE0009A4204D103B030BD4FF0FF30F6E7FFF752
:102CF000D7FB00BF000B002070FF00200000000089
:102D0000F0B5284D83B02B68019302F021FD01F04E
:102D1000C7FD254B1E69F20715D55A69234C42F0B1
:102D200001025A612778BB1F012B2AD9052263684B
:102D300022701B680BB120469847042F27D0022F22
:102D400025D003232370B30710D5174A174C5369B6
:102D500043F0020353612378032B1DD063689B6803
:102D60000622227013B101211048984701F0C0FDDE
:102D7000019A2B689A4213D103B0BDE8F04003F0EA
:102D80000FBD019A2B689A420AD103B0F0BD02230D
:102D90002370B307EAD5D8E72046FFF789FFDDE7C0
:102DA000FFF77EFB000B00200000055030DF002005
:102DB00000B5074B83B01A680192019A1B689A42CA
:102DC00004D103B05DF804EBFFF7A2BEFFF768FB88
:102DD000000B0020000000000000000000000000C8
:102DE00000B50A4B83B01A68019201220270019962
:102DF0001A6800239142C0E9013305D10C3003B0B9
:102E00005DF804EB02F014BEFFF74AFB000B002054
:102E100070B51E4D82B02B6801930E46044670B308
:102E200069B3202383F3118802F0CAFC01F0B8FCD7
:102E30002378013B012B02D9154801F011FC2046F3
:102E40006660FFF795FE0223237001F0C9FC02F0D3
:102E5000CFFC104B1A689A4204D0996993688A682B
:102E60009A4208D3002383F31188019A2B689A426F
:102E700009D102B070BD084801F0F2FBF2E7044846
:102E800001F0EEFBCDE7FFF70BFB00BF000B0020CE
:102E90007018010870FF0020601801080000000091
:102EA0002DE9F041214D82B02C6801940E469046E8
:102EB0001F46044600B171BB1D4801F0D1FB202321
:102EC00083F3118802F07CFC01F06AFC2378022B6A
:102ED00002D0174801F0C4FB03203B46424631466E
:102EE00020702046FFF7ACFE01F07AFC02F080FC77
:102EF000104B1A689A4204D0996993688A689A427A
:102F00000ED3002383F31188019A2B689A420BD1C8
:102F100002B0BDE8F081002BCED0002ACFD1CBE7A4
:102F2000054801F09DFBECE7FFF7BAFA000B002023
:102F30008018010870FF00206018010800000000E0
:102F40002DE9F04F394A3A4B126883B001240192BF
:102F50001C70002963D04FF00008364CC246C346AF
:102F6000C1464746C446434647F6FF7E1DE0AB4593
:102F7000A8BFAB46024432F9026CB2F90450B44225
:102F8000B8BF3446B645A8BFB6464D4545DCA84552
:102F9000A8BFA846B2F90220BA420EDC043392451B
:102FA0009BB2A8BF924699420CD95D1C6A0030F9C9
:102FB00015506545DBDDAC46DCE704339BB2994236
:102FC0001746F2D8A4EB0E04ACEB0B0CA7EB0A07E8
:102FD000A9EB0808A4B21FFA8CFCBFB21FFA88F84C
:102FE000154A12491480019C0968144BA2F802C0CA
:102FF0009780B0F8F8C4B0F8FA64A2F80680B0F888
:10300000FC54B0F8FE24A3F800C08C425E809D8082
:10301000DA8008D103B0BDE8F08FA946BAE7884648
:103020000F468C46DCE7FFF73BFA00BF000B0020A1
:1030300078DF00200080FFFF84DF00207CDF00209D
:1030400070B53F4B3F4C1A78236882B0012A019338
:1030500005D0019A23689A4270D102B070BD3A49F6
:103060003A4B4D6C45F480354D644E6A002546F46C
:1030700080364E624D621D61DD60196A21F00101EA
:103080001962996921F003019961996941F001017F
:103090009961996921F0F0019961196A21F00A0199
:1030A0001962996921F00C019961996821F0700108
:1030B0009960996841F050019960996821F48031D4
:1030C00021F007019960996841F00701996019683A
:1030D00021F440711960DA629D625A61196A21F027
:1030E00010011962996921F440719961996921F07F
:1030F000807121F4E0419961996941F4C04199617D
:10310000196A21F0A00119629A639A6942F4006277
:103110009A611A6A22F480621A621A6A42F01102F3
:103120001A621A6842F001021A6020B100906846E3
:1031300000F076F98DE7064B0093F8E7FFF7B0F95A
:10314000AC0C0120000B0020003802400040014080
:10315000412F0008000000000000000000000000F7
:1031600070B5114C82B0236801930E46154620239A
:1031700083F3118802F054FB01F052FB0B4B0C4817
:10318000C3E9006502F014FC01F06AFB02F060FB89
:10319000002383F31188019A23689A4201D102B077
:1031A00070BDFFF77DF900BF000B0020A0F40020E8
:1031B0008CDF002000000000000000000000000084
:1031C00070B5114C82B0236801930E46154620233A
:1031D00083F3118802F024FB01F022FB0B4B0C4817
:1031E000C3E9006502F0E4FB01F03AFB02F030FBBA
:1031F000002383F31188019A23689A4201D102B017
:1032000070BDFFF74DF900BF000B002084F20020D5
:103210008CDF002000000000000000000000000023
:103220002DE9F04F624B63499A69634B916185B018
:103230001B6803935E4B9B6993F821305B0700F199
:10324000AD805E4802F07CFB5C4802F079FB584B95
:103250009B6993F8212012F0040240F09F80584DA2
:1032600058482B6801680446406805EB830304EB6B
:10327000810103F50279430001F10808019343D06D
:10328000DFF850B1504BDFF85CA1012018F8125064
:1032900018F8006019F8121019F8004005F0550CE4
:1032A000770806F0550613F80CC09E5D01F0550E28
:1032B0004CEA061649084FEA540C01F0550104F097
:1032C00055040CF0550C6D0813F80EE0595C1C5DAC
:1032D00013F80CC00BF8126005F0550507F0550700
:1032E00041EA0C114EEA041E0AF812E05D5D0AF88C
:1032F0000010DF5D0199013245EA071591420BF894
:10330000005000F10200C1D1304B31493148324DFB
:103310000422FDF7ADF8314B314932480422FDF764
:10332000A7F8314B314932480422FDF7A1F8314B5F
:10333000314932480422FDF79BF8DFF8D4C02868F1
:103340009CF80070224A264900EBC71302F14006A0
:1033500014881C8054885C804C889C80043231F82E
:10336000044BDC80964203F10803F1D1092F11D1FF
:10337000234B00221B688CF800204FF420719847E3
:103380002B68204A204993420B6006BF1F4B2B60DD
:103390002A604FE701378CF800704BE7064B039A21
:1033A0001B689A4202D105B0BDE8F08FFFF778F8AC
:1033B00070FF0020A0180108000B00208CDF002007
:1033C000A0F4002084F200203C0B00205CF00020E0
:1033D00018E5002058E50020BC0B0020C4F00020B8
:1033E0002CF100206CF1002090F000201AE5002064
:1033F00059E50020F8F000202EF100206DF10020AA
:103400006CF2002058E60020C00B002058EB002092
:1034100058F0002000000000000000000000000044
:103420002DE9F04F494A0168494B116085B00021F0
:103430000E461B684748039302F022FA4FF4AF612F
:10344000454B009641224548454DDFF84891454C93
:10345000DFF844A1444F01F083FE444B444A186016
:10346000136BC5F804A043F480534FF002184FF4D7
:103470007A5B13632846C5E90298A5F800B0FCF70B
:103480003FFF2046C4E901A9C4F80C80A4F800B0AD
:10349000FCF736FF05F13400C5E90EA9C5F84080F8
:1034A000A5F834B0FCF72CFF324DC4F8408004F18D
:1034B0003400C4E90EA9A4F834B0FCF721FF31466A
:1034C00040F20C4238460AF073FFDFF8D0902A4AE7
:1034D0006E604FF400634FF080082E812A606B818C
:1034E000264CC5F80C80C7F80894FFF761FC294604
:1034F0002348244DFFF78CFC07F5027307F10802FF
:103500004FF480711E48FFF7CBFC314620464FF444
:1035100003720AF04DFF1C4B1C4AC4F80892083491
:103520001A611946C3E900641948C3E9028503F02A
:10353000A7FC074B039A1B689A4205D1144805B0B3
:10354000BDE8F04F03F0E4BCFEF7AAFF6CF20020E8
:10355000000B00208CDF002021320008A0DF0020BB
:103560005CF00020C4F00020A0F4002098DF0020D0
:103570000038024090F400206131000884F20020FD
:1035800044DF0020C131000870F200202C03080045
:10359000AC0C0120000020410000FA45EFBEADDE7A
:1035A0002DE9F043254E83B034680194042A9DF838
:1035B0002890144605460F46984639D9B9F1000FB0
:1035C00014BF00224FF08052640002EB0863013CFC
:1035D0001C4405F00F0527F01F07202383F31188F3
:1035E00002F0EEF83D4301F0DBF8154B1035DD60DD
:1035F0001C6101F0F5F802F0FBF8124B1A689A42D0
:1036000004D0996993688A689A420DD3002383F3A2
:103610001188BFF36F8FBFF34F8F019A33689A42BF
:103620000AD103B0BDE8F083074801F019F8EDE7CF
:10363000064801F015F8C1E7FEF732FF000B002045
:1036400090ED00E070FF002030190108101901080A
:1036500030B5224D224C2B68224A85B00393636813
:1036600043F004036360536A43F4803353622023BE
:1036700083F3118802F0A4F801F092F817221A4B94
:10368000E260236101F0ACF802F0B2F8174B1A685F
:103690009A4204D0996993688A689A4218D30020A4
:1036A00080F31188BFF36F8FBFF34F8F03231D2269
:1036B00000904FF00051FFF773FF094A536843F041
:1036C00001035360039A2B689A4205D105B030BDBF
:1036D000074800F0C5FFE2E7FEF7E2FE000B00201E
:1036E00090ED00E000ED00E00900001070FF002008
:1036F0003019010800000000000000000000000078
:1037000070B51A4D1A4C1B4E0FCD0FC49EB02A68CF
:10371000336822801D93EFF30981682203A8FEF726
:10372000FFFA154B9D6AAA0714D4EB0708D5124B74
:1037300008995B6B114A00910D4880210AF088FEC0
:103740001D9A33689A420FD109481EB0BDE87040F7
:1037500000F086BF099A5B6B0092A4F11000084A42
:1037600080210AF075FEE0E7FEF79AFEF4180108E2
:10377000ACF80020000B002000ED00E0D01801089C
:10378000B018010800000000000000000000000068
:1037900000B51F4B0278196883B00191E2B11D4A50
:1037A0004FF4005111834278EAB11A4A4FF4805124
:1037B00011838278F2B1174A4FF480411183C278A5
:1037C000FAB9144A4FF400415183019A1B689A4296
:1037D0001CD103B05DF804FB0E4A4FF40051518335
:1037E0004278002AE1D10B4A4FF48051518382780C
:1037F000002AE0D1074A4FF480415183C278002A61
:10380000DFD0044A4FF400411183DEE7FEF748FEA3
:10381000000B00200010024000000000000000002B
:1038200000B51F4B0278196883B00191E2B11D4ABF
:103830004FF4007111834278EAB11A4A4FF4807153
:1038400011838278F2B1174A4FF400611183C27874
:10385000FAB9144A4FF480615183019A1B689A4265
:103860001CD103B05DF804FB0E4A4FF40071518384
:103870004278002AE1D10B4A4FF48071518382785B
:10388000002AE0D1074A4FF400615183C278002A30
:10389000DFD0044A4FF480611183DEE7FEF700FEBB
:1038A000000B00200010024000000000000000009B
:1038B00030B50C4A0C4B116883B04FF400550191A0
:1038C0004FF480544FF400414FF480405D835C839B
:1038D0005883598301991368994201D103B030BDCF
:1038E000FEF7DEFD000B002000100240000000008B
:1038F00030B50C4A0C4B116883B04FF40075019140
:103900004FF480744FF480614FF400605D835C83FA
:103910005883598301991368994201D103B030BD8E
:10392000FEF7BEFD000B002000100240000000006A
:1039300010B50B4C0B48236882B0992200210193EB
:1039400003F0F6FB019A23689A4206D1054800214C
:1039500002B0BDE8104003F0D3BCFEF7A1FD00BFEC
:10396000000B0020500D01200000000000000000AE
:1039700010B50B4C0B48236882B0992200210193AB
:1039800003F0D6FB019A23689A4206D1054800212C
:1039900002B0BDE8104003F0B3BCFEF781FD00BFEC
:1039A000000B00206C0D0120000000000000000052
:1039B00000B5084B83B01A680192019A1B689A42BD
:1039C00006D10548002103B05DF804EB03F000BC0C
:1039D000FEF766FD000B0020500D012000000000E6
:1039E00000B5084B83B01A680192019A1B689A428D
:1039F00006D10548002103B05DF804EB03F0E8BBF5
:103A0000FEF74EFD000B00206C0D012000000000B1
:103A100070B51A4C1A4E2378326882B0022B01928C
:103A2000A26811D165781748013505F0070500EB4C
:103A30008500904763686570013B6360019A336855
:103A40009A4219D102B070BD012B08D00199336898
:103A5000994211D10C4802B0BDE87040104765781A
:103A60000848013D05F0070500EB850090476368B5
:103A7000657001336360E1E7FEF712FD44F9002051
:103A8000000B0020D0190108C01901080000000037
:103A900070B51A4C1A4E2378326882B0012B01920D
:103AA000A26811D165781748013505F0070500EBCC
:103AB000850090476368657001336360019A3368DD
:103AC0009A4219D102B070BD022B08D00199336817
:103AD000994211D10C4802B0BDE87040104765789A
:103AE0000848013D05F0070500EB85009047636835
:103AF0006570013B6360E1E7FEF7D2FC2CF9002022
:103B0000000B0020D0190108C019010800000000B6
:103B100030B51F4D85B02B68039340F24C4399425A
:103B2000044626DCA3F69803994211DB4B00002BD8
:103B300029D10370036998474FF47A71039A2B686F
:103B40009A421ED1606905B0BDE8304003F0A8BAC2
:103B5000104B02225B42227040F2892293420E49AE
:103B600091FBF3F189B207DC0191E3689847019971
:103B7000E4E7012303702D210191236998470199FE
:103B8000DCE7FEF78DFCE4DD01220270E4E700BF14
:103B9000000B002068F7FFFFA08601000000000076
:103BA00000B5084B83B01A680192019A1B689A42CB
:103BB00006D10146044803B05DF804EBFFF7A8BF47
:103BC000FEF76EFC000B00202CF900200000000026
:103BD00000B5084B83B01A680192019A1B689A429B
:103BE00006D10146044803B05DF804EBFFF790BF2F
:103BF000FEF756FC000B002044F9002000000000F6
:103C000070B51D4E1D4A1E4B30681E491E4C9160FA
:103C100082B00021D46001901C4C1D481D4D9D6058
:103C2000117051705160106154611B481B4A1C4D4A
:103C3000D8601C48197059705960C3E90425FFF712
:103C4000A7FD1848FFF7ECFD1749204603F0D8F907
:103C5000204603F00DFB2846144903F0D1F9019AE0
:103C600033689A4205D1284602B0BDE8704003F09F
:103C7000FFBAFEF715FC00BF000B002044F900203E
:103C80002CF900209137000831390008500D01202F
:103C9000B13900082138000871390008E1390008FD
:103CA0006C0D0120C0190108801901084019010894
:103CB0000A490B4B09680B4A82B020200191402130
:103CC00058834FF4806559834FF400644FF480406B
:103CD00004215D835C8358835183FEE7000B002041
:103CE000000C024000040240000000000000000040
:103CF00010B51E491E4A0B78106882B0013B019036
:103D0000072B0AD8DFE803F012151C1F26290F0421
:103D100018480824012304830B7001991368994201
:103D200021D102B010BD08230B70F6E702230B70FF
:103D3000F3E711484FF48054032304830B70ECE73E
:103D400004230B70E9E70C484FF4804405230483F7
:103D50000B70E2E706230B70DFE706480424072315
:103D600004830B70D9E7FEF79BFB00BFD8FC002053
:103D7000000B002000100240000402400000000080
:103D800030B50C4B0C4918680C4A83B04FF4804591
:103D900001904FF480504883042408204D835483BD
:103DA0005083019A1B689A4201D103B030BDFEF7DF
:103DB00077FB00BF000B002000040240001002400F
:103DC0002DE9F04F4E4B4F4A9B694F499961A5B081
:103DD00007AE05AD80231768009331462A460024BC
:103DE0000CA84A4B2397CDE90766CDE90555CDE9E7
:103DF00009440B9400F0B4FA0CA9454A4548434CD9
:103E0000454DDFF83481DFF834B1DFF834A100F03C
:103E1000CFFA04F11C0604F16007A146504601F0F8
:103E20008FFD2A682B69226063602A6A2B6BA2606F
:103E3000E3606A686B69226163616A6A6B6BA261A5
:103E4000E361AA68AB6922626362AA6AAB6BA26291
:103E5000E362EA68EB6922636363EA6AEB6B2F490A
:103E6000A263E36351F8043F0A6AB142A3EB020381
:103E70000B64F7D1802249460CA800F0F1FA98F8BB
:103E80000030002BCAD09BF8003033B3012BC5D1D2
:103E9000DFF8B0C02248614650F8042B51F8043FC7
:103EA000B84213440B60F7D11E4A13780133DBB2DA
:103EB000642B1370B2D11C495CF8043F1B4A82FB8F
:103EC0000302DB17C3EB621341F8043B184B9C451C
:103ED000F2D1002388F80030A0E7194620221248CA
:103EE00003930AF065FA039B1248194620220AF050
:103EF0005FFA0C49039B0B7001228BF800208DE7C1
:103F000070FF0020000B0020F0190108E0F90020EC
:103F1000001801089C1500207CF90020DCF9002025
:103F200020FA0020BDF9002040FA00201F85EB5147
:103F3000DCF90020C0F90020BCF90020BEF9002007
:103F4000C40B0020BCF900200000000000000000AD
:103F500070B502691E4D52882B6882B006460C4629
:103F60001C480193920000210AF022FA33695B8811
:103F70005BB1184AA11E002331F8020F42F8040B6E
:103F80003069408801339842F6D8202383F31188A2
:103F900001F046FC00F044FC00F0D2FC0E488368BF
:103FA000002B0FDD00F05CFC01F052FC002383F3DA
:103FB0001188019A2B68094901209A42087004D19E
:103FC00002B070BD01F0F4FCECE7FEF769FA00BF47
:103FD000000B00207CF90020C40B0020D8FC00203E
:103FE00070B51F4D1F4C2E78236884B0012E0393AB
:103FF00005D0039A23689A422FD104B070BD0021E6
:10400000284602F025FD284602F0E2FD3346284608
:10401000154A164902F09CFD1549164802F0F0FFBA
:104020004FF496720021134803F082F800211148E2
:1040300003F066F90F4803F01BF931464FF4827222
:104040000C4803F075F80023009340220A4B0B48FC
:104050004FF41E7101F084F8CBE7FEF721FA00BFA0
:10406000CC060120000B00205CF90020001A01089A
:10407000301A0108340D0120C13D000860FA00200B
:1040800000B50F4B83B01868019002290CD00329AA
:104090000CD001290B4818BF0020019A1B689A42D6
:1040A0000BD103B05DF804FB0748F6E7032A96BF7F
:1040B0000648002000EBC200EFE7FEF7F1F900BF71
:1040C000000B0020501B0108F01A0108001C010819
:1040D00070B5154C82B02368019302291CD10D469E
:1040E0000646202383F3118801F09AFB00F098FB29
:1040F00030460E4A012104F08BFA29460C4A30461C
:1041000004F086FA0B4804F083F800F0A9FB01F0F4
:104110009FFB002383F31188019A23689A4201D1FF
:1041200002B070BDFEF7BCF9000B0020701A010848
:10413000A01A0108DCFC00200000000000000000C4
:1041400030B5134D134C2B68134883B0019303F023
:10415000D7FF1249104804F003F8226D936B23F443
:10416000002393634FF47A7001F052F820460C4913
:1041700004F0FEF9226D936B43F400239363019ADC
:104180002B689A4201D103B030BDFEF789F900BF18
:10419000000B0020300A0120DCFC0020D01A0108AE
:1041A000E01A01080000000000000000000000000C
:1041B00000B5084B83B01A680192019A1B689A42B5
:1041C00005D1054803B05DF804EB01F019BDFEF719
:1041D00067F900BF000B0020D00B0020000000009A
:1041E00000B5084B83B01A680192019A1B689A4285
:1041F00005D1054803B05DF804EB01F039BDFEF7C9
:104200004FF900BF000B0020D00B00200000000081
:1042100070B50D4C82B0236801930D1E06460DDD6E
:10422000284602F035FA18B90C2333604FF0FF30FE
:10423000019A23689A4205D102B070BD034800F08C
:104240000FFAEDE7FEF72CF9000B0020201C010807
:1042500000B5064B83B01A680192019A1B689A4216
:1042600002D103B05DF804FBFEF71AF9000B002041
:1042700000B5074B83B01A680192019A1B689A42F5
:1042800004D103B05DF804EB01F0BABCFEF708F905
:10429000000B0020000000000000000000000000F3
:1042A00000B5074B83B01A680192019A1B689A42C5
:1042B00004D103B05DF804EB01F0DABCFEF7F0F8CE
:1042C000000B0020000000000000000000000000C3
:1042D00000B5074B83B01A680192019A1B689A4295
:1042E00004D103B05DF804EB01F0EABDFEF7D8F8A5
:1042F000000B002000000000000000000000000093
:1043000000B5074B83B01A680192019A1B689A4264
:1043100004D103B05DF804EB01F052BEFEF7C0F823
:10432000000B002000000000000000000000000062
:1043300010B5084B82B01C68019400240460019CF5
:104340001B689C42C0E9011201D102B010BDFEF70A
:10435000A7F800BF000B00200000000000000000D4
:104360002DE9F0430E4D83B02C6801940446994624
:104370000F46164610304C220021DDF828800AF046
:1043800017F8C4F80090019A2B68E6609A42C4E9D5
:10439000018702D103B0BDE8F083FEF781F800BFCA
:1043A000000B0020000000000000000000000000E2
:1043B000F0B5144E83B001F1100317463268019234
:1043C0000446412218460D46002109F0F1FF394606
:1043D00040220AF085F86068FFF74AFF236803B1BE
:1043E000AB652560A068FFF773FF019A33689A42B6
:1043F00005D1606803B0BDE8F040FFF751BFFEF79C
:104400004FF800BF000B002000000000000000007B
:10441000F0B5124F83B006463B68406801930D46E5
:10442000FFF726FF346814B912E0A46D84B104F1DB
:1044300010012846FDF718FD0028F6D17068FFF737
:104440002FFF019A3B689A42204605D103B0F0BD88
:10445000B068FFF755FFE5E7FEF722F8000B0020F4
:10446000F0B51C4E436883B0054693423068019016
:1044700006D20020019A33689A4229D103B0F0BDD8
:1044800014460F46A868FFF7F3FE2246394628680F
:10449000FDF746FC012385F85130E868FFF718FF67
:1044A0006C6D84B123681868FFF7E2FE23689D6095
:1044B00023685868FFF70CFF23681868FFF7F0FEC1
:1044C0006468002CEED1A868FFF7EAFE0120D1E76E
:1044D000FDF7E6FF000B00200000000000000000D8
:1044E000F0B50F4D83B004462B68806801930E46EB
:1044F0001746FFF7BDFEE068FFF702FF3A46304679
:104500002168FDF70DFC019A2B689A4205D1A0683D
:1045100003B0BDE8F040FFF7C3BEFDF7C1FF00BF29
:10452000000B002000000000000000000000000060
:1045300000B5064B83B01A680192019A1B689A4233
:1045400002D103B05DF804FBFDF7AAFF000B0020C9
:10455000024B82B01B680193FEE700BF000B0020F6
:1045600000B5044B04481B6883B0019300F078F851
:10457000FEE700BF000B0020301C01080000000017
:10458000024B82B01B680193FEE700BF000B0020C6
:10459000F0B5294E294B3268294885B00024039292
:1045A0009C60D968274A4FF6FF0529400A43DA6024
:1045B000C2682549254D42F08072C2600A6842F007
:1045C00001020A6010202022D87783F8222000F010
:1045D000DFFA00F045FA01F043F802F031F802F09A
:1045E0009FF801F095F800F0FBF9402105F588608F
:1045F00000F01EFD0127164BC36180F82070A861F2
:1046000000F0A6F884F3118862B6AB69114A9A618A
:104610004FF4C4713A46104B009405F59D6000F0CC
:104620009FFD039A33680D4981619A4201D105B01B
:10463000F0BDFDF735FF00BF000B002000ED00E0EE
:10464000F0ED00E00003FA05001000E070FF00202C
:1046500000040020B01D010881450008501C01081D
:1046600000B5054B83B01B680193044672B6FFF793
:104670001FFB024BDC62FEE7000B002070FF0020F6
:104680002DE9F047DFF890A0224DDAF8003082B033
:10469000019300F055F9AB6993F8232012B1013A68
:1046A00083F823205A6ADFF8748001325A6200F0DE
:1046B00047F9AB6AEA6901334245AB6220D093689F
:1046C000013B9360EC69A668D6B94FF020092368D6
:1046D000E768E660C3F804802368EB6100F0C0F887
:1046E00001F0B6F886F311882069B84789F311887C
:1046F00001F096F800F094F8EC69A368002BE6D07E
:10470000019ADAF800309A4202D102B0BDE8F0878F
:10471000FDF7C6FE70FF0020000B00208CFF00207C
:1047200010B5094C094A236882B001935168536857
:104730005B1A9842FBD8019A23689A4201D102B0D1
:1047400010BDFDF7ADFE00BF000B0020001000E023
:1047500000B50E4A0E4B116B186883B0019009B971
:10476000526B4AB1019A1B689A420CD1094803B0B6
:104770005DF804EBFFF774BF019A1B689A4202D1FF
:1047800003B05DF804FBFDF78BFE00BF70FF002057
:10479000000B0020601C0108000000000000000069
:1047A00030B50B4C0B4D236B2A6883B001920BB9CB
:1047B000636B13B10848FFF753FF019A2B6801217F
:1047C0009A42616301D103B030BDFDF769FE00BFBD
:1047D00070FF0020000B0020901C0108000000006A
:1047E00030B50C4C0C4D236B2A6883B0019253B941
:1047F000636B002B07DD019A2B6800219A426163ED
:1048000005D103B030BD0548FFF72AFFF3E7FDF7F8
:1048100047FE00BF70FF0020000B0020B01C010805
:1048200030B50B4C0B4D236B2A6883B0002B0192E3
:1048300001DD636B13B10848FFF712FF019A2B6883
:1048400001219A42616301D103B030BDFDF728FE1A
:1048500070FF0020000B0020A01C010800000000D9
:1048600030B50C4C0C4D236B2A6883B0002B0192A1
:104870000ADD636B002B07DD019A2B6800219A4249
:10488000616305D103B030BD0448FFF7E9FEF3E7EB
:10489000FDF706FE70FF0020000B0020C01C010881
:1048A00030B50F4D83B02B680193202383F311881B
:1048B0000C4C236B002B01DB626B1AB10A48FFF72B
:1048C000CFFE236B01332363002383F31188019A06
:1048D0002B689A4201D103B030BDFDF7E1FD00BF66
:1048E000000B002070FF0020701C01080000000079
:1048F00030B50F4D83B02B680193202383F31188CB
:104900000C4C236B002B01DD626B1AB10A48FFF7D8
:10491000A7FE236B013B2363002383F31188019AD5
:104920002B689A4201D103B030BDFDF7B9FD00BF3D
:10493000000B002070FF0020801C01080000000018
:1049400000B50F4A0F4B116B186883B00029019016
:1049500009DB526B002A06DD019A1B689A420CD1D2
:1049600003B05DF804FB019A1B689A4205D1064822
:1049700003B05DF804EBFFF773BEFDF791FD00BFD8
:1049800070FF0020000B0020D01C01080000000078
:1049900000B50E4A0E4B116B186883B0019049B9EF
:1049A000526B002A06DD019A1B689A420CD103B0B3
:1049B0005DF804FB019A1B689A4205D1054803B0D3
:1049C0005DF804EBFFF74CBEFDF76AFD70FF0020B9
:1049D000000B0020E01C01080000000000000000A7
:1049E00010B5084A084B116882B040240191019922
:1049F000126818199142C3E90E4001D102B010BDEE
:104A0000FDF74EFD000B002070FF002000000000AD
:104A100010B51149114B0A6882B00192DA6B9C6A99
:104A20001460DA6B9C695460DA6B846A9460DA6BA8
:104A300090F820001073DA6B03F588601032824220
:104A400028BF03F14002DA63019A0B689A4201D150
:104A500002B010BDFDF724FD000B002070FF002008
:104A600010B50B4A0B4B116882B04FF0FF34019127
:104A700000219962019811685C6203F11C0288426E
:104A8000C3E9072201D102B010BDFDF709FD00BF47
:104A9000000B002070FF002000000000000000005C
:104AA0002DE9F041184E82B00546306801900C4661
:104AB00017469846FFF744FF05B3FFB1F4B1C5E9C7
:104AC00003781248C3699A68944204D91B68A41AEF
:104AD0009A68A242FAD32B605A686A6015605D60DA
:104AE000AC609968019D3268091B95424FF0FF3414
:104AF0009960446206D102B0BDE8F0810448FFF736
:104B0000AFFDDCE7FDF7CCFC000B002070FF0020C0
:104B1000F01C010800000000000000000000000080
:104B200030B5164D83B004462B680193FFF708FF9C
:104B3000ECB1E368BBB12268A068936801990344B3
:104B40009360D4E900231A6020682B680C4A6568DA
:104B5000456099424FF000054FF0FF30E56050622C
:104B600009D103B030BD0748FFF77AFDE3E70548F8
:104B7000FFF776FDDDE7FDF793FC00BF000B00209B
:104B800070FF0020001D0108000000000000000070
:104B900000B50A4A0A4B11681B6083B000200191DE
:104BA000019912685B609142C3E90433986002D1B5
:104BB00003B05DF804FBFDF773FC00BF000B0020A1
:104BC00070FF002000000000000000000000000056
:104BD00030B5164D83B004462B680193FFF7B0FE45
:104BE000ECB194F82030B3B10F2B14D00022A1689F
:104BF0000F4B84F820201B689A688A42FBD22360FE
:104C00005A686260146001992A685C60914220468B
:104C100009D103B030BD0748FFF722FDE6E705489C
:104C2000FFF71EFDDDE7FDF73BFC00BF000B00209A
:104C300070FF0020101D01080000000000000000AF
:104C400070B5204D82B02B6801930446202383F376
:104C5000118800F0E5FDFFF7E3FD94F82030072B05
:104C600011D8DFE803F0161010230A04100AA66A10
:104C7000FFF766FEB3680133B360D4E900231A601E
:104C8000D4E900325A604FF0FF33A3622046FFF7A9
:104C90009FFFFFF7E5FD00F0DBFD002383F31188A4
:104CA000019A2B689A420BD102B070BDA36A002210
:104CB0001A604FF0FF33A3622046FFF789FFE8E751
:104CC000FDF7EEFB000B00200000000000000000DC
:104CD000F0B5194E194C336883B007460193FFF7BE
:104CE00057FEA569236885F82070142285F82320D3
:104CF0001A68226001215460284683F82010A361BD
:104D0000FFF786FE2946A06900F03AFDEFF309831C
:104D1000EA69643B9A4202D90948FFF7A1FC019A6B
:104D200033689A4206D1A069294603B0BDE8F04035
:104D3000FBF7BEBAFDF7B4FB000B002070FF0020AC
:104D4000201D01080000000000000000000000001D
:104D5000F0B5154C87B0236805930E460746FFF75C
:104D600017FE731C18D0114D114AAB6931466846C5
:104D7000FFF796FE3846FFF7ABFFFFF7E1FD039B19
:104D800013B16846FFF7CCFE059A2368A9699A42D9
:104D9000886A06D107B0F0BD3846FFF799FF034D8A
:104DA000F2E7FDF77DFB00BF000B002070FF002045
:104DB000414C00080000000000000000000000005E
:104DC000F0B51E4D1E4E2B6883B0044601930F466E
:104DD000FFF7DEFDB069A7628368A2689A421DD919
:104DE000FFF7F6FE0123074684F82030B461FFF791
:104DF0000FFE3946204600F0C3FCEFF30983FA6941
:104E0000643B9A4214D8019A2B689A4214D13946CD
:104E1000204603B0BDE8F040FBF74ABA019A2B6880
:104E20009A4209D1204603B0BDE8F040FFF7D0BE5A
:104E30000448FFF715FCE6E7FDF732FB000B002006
:104E400070FF0020201D010800000000000000008D
:104E500010B50E490E4B8A69086892F823101C6839
:104E60008068926882B0019449B9904234BF0020B2
:104E70000120019A1B689A4206D102B010BD9042EF
:104E800094BF00200120F4E7FDF70AFB70FF00202B
:104E9000000B0020000000000000000000000000E7
:104EA00070B5184C184E2368A5691A6822605460C2
:104EB000012283F8202082B01422316885F8232053
:104EC0002846A3610191FFF783FE2846FFF7A0FD66
:104ED0002946A06900F054FCEFF30983EA69643BBA
:104EE0009A4202D90948FFF7BBFB019A33689A42FC
:104EF00006D1A069294602B0BDE87040FBF7D8B9D9
:104F0000FDF7CEFA70FF0020000B0020201D0108E5
:104F100070B51C4D1C4E2A68AC6913682B600121CA
:104F200082B05D60002082F82010AA613268A1681A
:104F300084F82000019200E01B689A688A42FBD83E
:104F400023605A686260204614605C60FFF760FD71
:104F50002146A86900F014FCEFF30983E269643B81
:104F60009A4202D90948FFF77BFB019A33689A42BB
:104F700006D1A869214602B0BDE87040FBF798B998
:104F8000FDF78EFA70FF0020000B0020201D0108A5
:104F900010B50F4C82B023680193FFF7F9FCFFF7BF
:104FA000CFFC0C4B1A689B6992689B689A42019AE5
:104FB000236803D89A4208D102B010BD9A4204D1A6
:104FC00002B0BDE81040FFF7A3BFFDF769FA00BFCC
:104FD000000B002070FF0020000000000000000017
:104FE00000B50E4A0E4B9269196892F8232083B0DF
:104FF000019142B1019A1B689A420DD103B05DF84C
:1050000004EBFFF785BF019A1B689A4204D103B0F5
:105010005DF804EBFFF744BFFDF742FA70FF002094
:10502000000B002000000000000000000000000055
:10503000F0B51A4A1A4D02610446816083B0142308
:1050400050692E68616484F823300227002301210F
:10505000278484F82210C4E90F3304F16801A361A6
:10506000019604F12C07636204F1500604F1300349
:1050700060610461C4E90C33E1613046E762546168
:1050800000F086FA304600F0A3FA019A2B689A42A3
:1050900002D1204603B0F0BDFDF702FA70FF0020F8
:1050A000000B0020000000000000000000000000D5
:1050B00010B5094B82B01C680194884203D200F8F5
:1050C000012B8142FBD1019A1B689A4201D102B0A7
:1050D00010BDFDF7E5F900BF000B00200000000047
:1050E0002DE9F043184E83B0346801940546DDF88D
:1050F00028900C4617469846FFF722FC15B1B4F5E8
:10510000BC7F19D21148FFF7ABFAA4F1640129441E
:10511000E960C1F84080EB68019AC3F844903368B5
:10512000E9680B4808669A420CD13946284603B014
:10513000BDE8F043FFF77CBF7F2FE3D8B8F1000F45
:10514000E3D1DFE7FDF7ACF9000B0020701D01088B
:10515000C90200080000000000000000000000007C
:105160002DE9F04FDFF8A48087B0D8F80040DDF8D3
:105170004090059407468A46934600F16806044627
:10518000FF2504F8015BA642FBD107EB0A05A54207
:1051900004D9552604F8016BA542FBD103932022C4
:1051A00082F3118800F00CFBFFF7FAFA039BCDF8AD
:1051B00000905A4651463846FFF792FF00210446B8
:1051C000FFF7FEFDFFF70CFB00F012FB0D4B1A681A
:1051D0009A4204D0996993688A689A420BD3002353
:1051E00083F31188059AD8F800309A42204606D1F8
:1051F00007B0BDE8F08F0448FFF732FAEFE7FDF79C
:105200004FF900BF70FF0020301D0108000B002087
:1052100030B5184C83B0236801930546202383F3EF
:10522000118800F0CDFAFFF7BBFA15B91248FFF765
:1052300017FA29460820FFF78BFDFFF7D1FA00F097
:10524000D7FA0E4B1A689A4204D0996993688A6813
:105250009A4208D3002383F31188019A23689A4263
:1052600005D103B030BD0648FFF7FAF9F2E7FDF7C4
:1052700017F900BF000B0020401D010870FF00203F
:10528000301D0108000000000000000000000000C8
:10529000F0B51C4F83B03B68019304460E462023B3
:1052A00083F31188184D00F08BFAFFF779FAA96A99
:1052B000331B0C1B9C4219D3FFF792FA00F098FAAB
:1052C0002B68AB4204D0AA699B6892689A4209D3C2
:1052D000002383F31188019A3B689A4230460FD12C
:1052E00003B0F0BD0948FFF7BBF9F1E7741A02D12A
:1052F0000748FFF7B5F921460820FFF729FDDBE74E
:10530000FDF7CEF8000B002070FF0020301D0108D3
:10531000401D010800000000000000000000000027
:1053200070B5164B164E9C693268E36AA06282B073
:1053300004F12C05AB42019207D01A68E2621846CC
:10534000FFF746FCE36AAB42F7D194F821309B07A4
:1053500005D1D4E904231A61D4E904325A610F203B
:10536000FFF7B6FC019A33689A4205D1054802B0AE
:10537000BDE87040FFF774B9FDF792F870FF0020A8
:10538000000B0020801D010800000000000000004C
:1053900030B50C4C83B0236801930546202383F37A
:1053A000118800F00DFAFFF7FBF9019A23689A4281
:1053B00005D1284603B0BDE83040FFF7B1BFFDF787
:1053C0006FF800BF000B002000000000000000008C
:1053D000F0B50D4D0D4E03682A68B76983B00446D9
:1053E000019213B10A48FFF73BF927600320BC6222
:1053F000FFF76EFC019A2B68B1699A42886A01D165
:1054000003B0F0BDFDF74CF8000B002070FF00204A
:10541000901D0108000000000000000000000000D6
:10542000F0B5124D04682B6883B00193B4B194F8C1
:105430002030032B06460F460CD100233360019A1F
:105440002B68A7629A420FD1204603B0BDE8F04016
:10545000FFF7BEBB0648FFF703F9EEE7019A2B689A
:105460009A4201D103B0F0BDFDF71AF8000B0020FD
:10547000A01D010800000000000000000000000066
:1054800030B5104A83B01368019381B10E4B019D72
:105490009B69186044685C602360126843609542B1
:1054A0000DD1042003B0BDE83040FFF751BC019995
:1054B000136899424FF0FF3001D103B030BDFCF7C3
:1054C000EFFF00BF000B002070FF00200000000075
:1054D00070B5124D04682B6882B0A042019315D0BC
:1054E00023680360586094F82030042B0E4602D0E5
:1054F0000B48FFF7B5F8019A2B68A6629A420BD1C8
:10550000204602B0BDE87040FFF762BB019A2B68ED
:105510009A4201D102B070BDFCF7C2FF000B00201F
:10552000501D010800000000000000000000000005
:105530002DE9F041DFF850800468D8F8003082B0DF
:10554000A042019313D00F4F05460E4623682B60EF
:105550005D6094F82030042B02D03846FFF780F8C5
:10556000A6622046FFF734FB2C68A542EED1019AD3
:10557000D8F800309A4202D102B0BDE8F081FCF7C1
:105580008FFF00BF501D0108000B0020000000002D
:1055900030B50B4B83B01A6801924FF0FF320260B6
:1055A00001991A680024002300259142C0E90445AE
:1055B000C0E90133C36001D103B030BDFCF770FF17
:1055C000000B0020000000000000000000000000B0
:1055D00000B5084B084A196883B001915168019AD7
:1055E0001B6881609A4202D103B05DF804FBFCF7AE
:1055F00057FF00BF000B0020001000E0000000007B
:10560000F0B51449144B0A68846883B00192134AB8
:105610005B68D2F8A864C2681B1BD0E9044501325C
:105620009B1BC26042688360E61845F10007934205
:10563000C0E9046709D80268934238BF0360019A41
:105640000B689A4203D103B0F0BD4360F7E7FCF763
:1056500027FF00BF000B0020001000E070FF0020BB
:1056600030B5114D114C2B6889B04FF0FF310793C5
:10567000002300226846C4F8A834CDE9013303931F
:105680000023CDE904230091FFF7A2FF6846FFF74E
:10569000B7FF079A2B680299C4F8A8149A4201D15F
:1056A00009B030BDFCF7FCFE000B002070FF0020AD
:1056B0002DE97048134E144B326883B001925B6839
:1056C0008B60D0E902411B1BD0E90445426814EB12
:1056D000030B45F1000C01319342C0E90231C0E9EE
:1056E00004BC0AD80268934238BF0360019A336849
:1056F0009A4204D103B0BDE870884360F6E7FCF736
:10570000CFFE00BF000B0020001000E000000000F2
:1057100030B50D4D0D4C2B6883B004F597600193A7
:105720000023C4F8B034C4F8B434FFF731FF019A51
:105730002B689A4206D104F59A6003B0BDE8304068
:10574000FFF726BFFCF7ACFE000B002070FF002027
:1057500000B50949094A0B6883B001930198D2F852
:10576000B034096801338842C2F8B03402D103B0C2
:105770005DF804FBFCF794FE000B002070FF002096
:1057800070B50D4C0D4A236882B00193019DD2F88B
:10579000B43424680133A542C2F8B43409D10E46AA
:1057A00000F1500106F1500002B0BDE87040FFF773
:1057B0007FBFFCF775FE00BF000B002070FF0020CC
:1057C00000B5084B83B01A680192019A1B689A428F
:1057D00005D1054803B05DF804EBFFF7F9BEFCF70F
:1057E0005FFE00BF000B0020280401200000000025
:1057F00000B5084B83B01A680192019A1B689A425F
:1058000005D1054803B05DF804EBFFF7F9BEFCF7DE
:1058100047FE00BF000B002028040120000000000C
:1058200000B5084B83B01A680192019A1B689A422E
:1058300005D1054803B05DF804EBFFF7C9BEFCF7DE
:105840002FFE00BF000B00204004012000000000DC
:1058500000B5084B83B01A680192019A1B689A42FE
:1058600005D1054803B05DF804EBFFF7C9BEFCF7AE
:1058700017FE00BF000B00204004012000000000C4
:1058800070B50C4D82B02B6801930E46044650B1A2
:10589000002908DB2460019A2B689A42C4E901467A
:1058A00005D102B070BD0448FEF7DAFEF2E7FCF75E
:1058B000F7FD00BF000B0020E01D01080000000004
:1058C00070B51B4D82B004462B680193FFF760F85A
:1058D00044B3A3682268002B10DBA24203D0154812
:1058E000FEF7BEFEA368013B002BA3600CDB00208B
:1058F000019A2B689A4219D102B070BDA242EED033
:10590000013B002BA360F2DA0B4EB3699C621C6072
:1059100062685A60052013606360FFF7D9F9B369C4
:10592000986AE5E70348FEF79BFED2E7FCF7B8FD6F
:10593000000B0020F01D010870FF00200000000097
:1059400030B5164C83B0236801930546202383F3BA
:105950001188FFF735FFFEF723FF2846FFF7B0FF5A
:105960000546FEF73DFFFFF743FF0D4B1A689A42CD
:1059700004D0996993688A689A4209D3002383F313
:105980001188019A23689A42284605D103B030BD98
:105990000448FEF765FEF1E7FCF782FD000B0020EE
:1059A00070FF0020D01D0108000000000000000072
:1059B00030B51C4D83B004462B680193FEF7C0FF41
:1059C0004CB3A3682268002B0FDBA24203D0164819
:1059D000FEF746FEA3680133002BA3600BDD019A9E
:1059E0002B689A421BD103B030BDA242EFD00133E5
:1059F000002BA360F3DC20680199036823602A6808
:105A00005C6091424FF00003836208D103B0BDE8AF
:105A10003040FFF7DDB80448FEF722FED1E7FCF77F
:105A20003FFD00BF000B0020001E01080000000029
:105A300030B50B4D83B02B680193044650B1246000
:105A400001992A68646000239142A360236105D113
:105A500003B030BD0348FEF703FEF0E7FCF720FD7E
:105A6000000B0020201E01080000000000000000C4
:105A7000F0B55D4E5D4B32689D6983B0044601927E
:105A8000FEF786FF002C00F08480A06823690028C0
:105A900043D0002B40F39780854276D0AA68836874
:105AA0009A4208D990F820308260062B40D0072B0C
:105AB00073D0002B5DD02746234603E09968AA687F
:105AC000914233D31B689C42F8D12F607B686B6096
:105AD00006201D607D60AC62FFF7FAF8A368AB4258
