:020000040800F2
:1000000000040020C1010008415F0008415F0008B2
:10001000E1500008415F0008415F0008415F0008AF
:10002000415F0008415F0008415F0008A1810008AE
:10003000415F0008415F0008415F000811EE0008C1
:10004000415F000891BB000821BD000871BD000898
:10005000415F0008415F0008D1B8000821B90008DD
:1000600071B90008C1B9000811BA000821AB000835
:1000700071AB0008C1AB000811AC000861AC00080E
:10008000B1AC000801AD000811B6000811BF0008AE
:1000900081BF000831C00008E1C0000861BA000853
:1000A000415F0008415F000871E80008415F0008F7
:1000B000D1E9000811EA000851EA0008A1CE0008C1
:1000C000E1CF0008415F0008415F0008415F000880
:1000D000415F0008415F0008415F0008D1EE000861
:1000E000F1BA0008E1BB000831BC0008B1E8000823
:1000F000415F0008415F0008415F000851AD000802
:10010000415F000871C2000891EA0008415F0008E1
:10011000415F0008415F000831E80008415F0008C6
:10012000A1AD0008F1AD000841AE000891AE000895
:10013000E1AE0008415F000881BC0008415F000893
:10014000415F0008415F0008415F0008C1E200080C
:1001500031AF000881AF0008D1AF0008415F00084F
:10016000415F0008415F0008415F0008415F0008EF
:10017000D1BC0008415F000821370008415F00083A
:10018000415F0008415F0008415F0008415F0008CF
:10019000415F0008415F0008415F0008415F0008BF
:1001A000415F0008415F0008415F0008415F0008AF
:1001B000415F0008415F0008415F0008415F00089F
:1001C00072B62E4880F3098840F20000CCF200009D
:1001D0004EF63471CEF20001086040F20000C0F229
:1001E000F0004EF68851CEF2000108604FF000009A
:1001F000E1EE100A4EF63C71CEF2000108600620D6
:1002000080F31488BFF36F8F0EF0AAFF4FF05530C4
:100210001B491C4A91423CBF41F8040BFAE71A49BA
:10022000164A91423CBF41F8040BFAE71749184AB5
:10023000184B9A423EBF51F8040B42F8040BF8E702
:1002400000201549154A91423CBF41F8040BFAE7DA
:1002500005F05EFE124C134DAC4203DA54F8041B59
:100260008847F9E702F02CF90F4C104DAC4203DA45
:1002700054F8041B8847F9E705F05ABE000800202F
:10028000000000200004002000040020588F010816
:1002900000080020C4150020C81500209816012071
:1002A000C0010008C0010008C0010008C00100082A
:1002B0002DE9F04F2DED108AC1F80CD0D0F80CD0FC
:1002C000BDEC108ABDE8F08F05F07AFF06F0B0FFB4
:1002D000002383F311882846A047002006F048FD3C
:1002E00006F08EFF05F04CFF06F06AFB05F068FF94
:1002F00006F09EFF00DFFEE70000000000000000A7
:100300002DE9F843544B80461A68544882422DED3B
:10031000028B1BD052490B68DA0405D40A6842F4F8
:1003200080530B60012000E000204E4A4E491160CE
:1003300013684A4A934208D147490B6030B1484894
:10034000036823F48052026000E0FEE798ED018A22
:10035000B5EE408A0021F1EE10FAC8F81C10C8F87A
:100360001810C8F81410C8F81010C8F82810C8F8E9
:100370002410C8F8201029D0DFED3C7A28EE270A97
:1003800010EE100A01F038F8044618EE100A0D4677
:1003900001F032F80646B8F800000F4601F01AF8EE
:1003A0002BA3D3E9002301F0ADF902460B463046FA
:1003B000394600F0C3FE02460B462046294601F0AE
:1003C000A1F901F055FBA8F82C0001E0A8F82C10C9
:1003D00098ED028AB5EE408AF1EE10FA26D0B8F810
:1003E00000904FEA092000F0F5FF044618EE100ACD
:1003F0000D4601F001F816A3D3E9002301F058F8E7
:10040000064648460F4600F0E5FF02460B463046DA
:10041000394600F093FE02460B462046294601F07D
:1004200071F901F025FBA8F82E0002E00020A8F8E1
:100430002E00B8F800204FF47A73B2FBF3F1A8F85D
:100440003010BDEC028BBDE8F88300BFAFF3008035
:100450001F85EB51B81E1940C8150020CDB5E8B571
:100460003038024000300240C2A507F4000080434B
:100470002DE9F04F9BB083461992A94A1891A948DB
:100480001168814200D0FEE79E6AB3F80CC09F69F4
:100490009A8DD98D039603261C6A5D6A059706928C
:1004A00006FB0CF74FEA8C0206264FEA4C000B9134
:1004B0000E97052106FB0CF70F9207220294049574
:1004C0000D90119701FB0CF04FEACC0602FB0CF1EA
:1004D00000271D695C69D3F81CA010901291179633
:1004E0000197188EDDF80490814580F20A818E48CC
:1004F0009BF800601BF80C7010F80690C25DA144D8
:100500008419511994F8008194F8002201EB4808ED
:10051000CDF81C80DDF834801BF80860855DC719B4
:10052000A9180E9A97F800411BF8022097F800725C
:1005300001EB4405815C0895CC1981190F9E91F857
:10054000008191F8007204EB48081BF80640CDF8D2
:1005500024808218055D92F8006192F80022E91962
:1005600001EB460505EB0807DDF8408015971BF801
:1005700008700A950419C15D94F8005194F800427E
:10058000DDF81C808E1806EB4501119D089A1BF8BA
:1005900005508E18C719425D1696161997F8002156
:1005A00006EB42029044CDF85080129C97F80072FE
:1005B0001BF804604519845DE41995F8007195F8FD
:1005C0000052801904EB47044FF01C0804EB0907A4
:1005D00090F80061139708FB09AADDF81C800C94C1
:1005E0000AEB0209152705EB460490F8005207FBB9
:1005F0000890099FDDF820900A2606FB070A0F27BE
:1006000007FB09A04FF00308DDF8289008FB010064
:100610004FF0060A0AFB0900009015984FF03009C8
:1006200009FB00FADDF858902E2000FB09A0824655
:100630000598824413984FF0240909FB00AA1498E6
:100640004FF02A0909FB00AA0898DDF8249008FB5E
:1006500000F8062000FB0988DDF81C9008EB090073
:1006600007FB01010A9F0C98DDF8009006FB0718B4
:100670001C2606FB008115270B9807FB021205922A
:10068000A9F5003868B1029E049FCDF8108006EBF2
:100690000801CE1B46434FF4807296FBF2F00290A5
:1006A0008046069961B1039E08FB01F8C1F5807789
:1006B00006FB07894FF4807299FBF2F003908046A5
:1006C000199901FB08F7002F02DD0837381103E004
:1006D000083F102697FBF6F047F6BC72019E1349BF
:1006E000189FDDF85C809042A8BF1046DA897243FB
:1006F0008842A8BF0146013627F81210C34401966C
:10070000EFE61D615C61029D059C1D629C61039D7D
:10071000049CC3F81CA05C629D621BB0BDE8F08F16
:10072000C8150020CDB5E8B5000800204480FFFFC3
:100730002DE9F04FA1B0C74C1F92C74A1E91116816
:10074000A14200D0FEE79F6A9A69998DDC8D0497DB
:100750009F89069207910F940322052106241D6AA2
:100760005E6A03957A4379437C43129214911594FF
:10077000072209210A24794305964FEA47084FEAE0
:1007800087097A434FEAC70A7C431E695D69D3F83B
:100790001CB01891CDF84480CDF84C901692CDF84D
:1007A0005CA01D94002102911A8E0299914280F260
:1007B0005981AA4A047812F80490A944C55D111918
:1007C00012F8058091F8004191F800A2464406EB2A
:1007D0004406119C0896045D5519165D95F800C1F4
:1007E00095F8005206EB0A0808EB4C0ADDF8488041
:1007F000CDF824A010F80810DDF84C80565C1419D0
:1008000006EB050A10F8085094F800C1565D94F8FC
:10081000004251180AEB4C0C361991F800A1149CB7
:1008200091F80012CDF828C006EB4A08065DCDF815
:100830002C80945DDDF85480551904EB010A95F87D
:10084000004195F800520AEB44010C9110F8081091
:100850009619545C641996F8005104EB45040D9404
:10086000169D96F80062DDF824A0DDF85C80A444B3
:10087000445DCDF86CC0155D5118AD1991F800615B
:1008800091F8001205EB460505EB0A060E9510F8E7
:1008900008501C961419565DDDF860A0711894F884
:1008A000006194F8004201EB460C08990CEB01063C
:1008B0001A9610F80A605519915D9219091995F860
:1008C000004192F8006195F8005201EB44012D249B
:1008D00001EB090804FB09BB10910899CDF864806D
:1008E0000BEB0C09DDF8288005EB460592F8006259
:1008F000242202FB019A152404FB08A9DDF824A098
:100900000C994FF01C0B0BFB0A994FF00A08DDF80D
:100910002CA008FB01994FF00F0B0E990BFB0A99C5
:100920004FF00308DDF834A008FB01994FF0060BE7
:100930000BFB0A99CDF80490DDF82CA00C994FF030
:100940004B0B51440BFB01F91B994FF0490A0AFB71
:10095000019B0699DDF868900BEB010A4FF03F0B05
:100960001C990BFB09AA4FF0450BDDF864900BFBBB
:1009700001AA4FF0370B0BFB09ABDDF824A00A9955
:1009800008FB0AF84FF00609DDF820A009FB0188F2
:100990000C99D0444FF00F09DDF82CA009FB018819
:1009A0000A21DDF8389001FB0A884FF01C0A0D99E6
:1009B0000AFB098804FB018A109C0F994FF02D094E
:1009C00009FB04A8DDF804A002FB0C820692AAF53C
:1009D0007A3971B1039C0599CDF8149004EB0902A2
:1009E000541A0F9A4FF48071544394FBF1F403941A
:1009F000A146079961B1049CC1F5807209FB01FC15
:100A000004FB02C94FF4807199FBF1F20492914604
:100A10001F9C04FB09F1002902DD10314C1103E099
:100A20001039202291FBF2F447F6BC718C42A8BF2A
:100A30000C46DA890299DDF874804A4308498C42F1
:100A4000A8BF21461E9C24F81210029A4044511C53
:100A5000A9E600BFCDB5E8B5C81500200008002004
:100A60004480FFFF05981E615D61039E069D049C06
:100A700058629D61C3F81CB01E629C62104621B092
:100A8000BDE8F08F2DE9F04F95B0994C1392994A3B
:100A900012911168A14200D0FEE75E6A1D6A9F6A4A
:100AA0009A69998DB3F82E800C964FF00009D3F80F
:100AB00010C05E69D3F81CB00195029709920A91A3
:100AC000CDF83480CDF80C908B4904780D190C5D6D
:100AD00095F8007295F8008106EB070A067ACDF8C2
:100AE0002CA08F198E5D97F8002202EB4805AC44CC
:100AF000057C97F80081CDF810C04A194D5D92F839
:100B0000009292F8002109EB040A0AEB480C90F8D5
:100B100018A090F82090CDF814C001EB0A0494F8C6
:100B2000007294F80041BF1907EB420801EB09027B
:100B3000CDF8188092F8006292F80021771907EB3F
:100B4000440606EB080C90F8288011F80A70079606
:100B500001EB0805CDF840C095F8004295F800512A
:100B6000E619059F06EB4204E619119690F83060ED
:100B700008948C1911F8097094F80022D219049F76
:100B800002EB4502BD180F9590F8385011F8089007
:100B900094F80041DDF82C808E5D4F1997F800A283
:100BA00097F800710AEB090C0CEB4404DDF818A06F
:100BB00011F805C000941C2505FB082944440A21AE
:100BC000DDF8148001FB0A9906EB4706DDF820A04A
:100BD0000F2707FB0899032101FB0A99DDF81CA0E8
:100BE0004FF0060808FB0A99DDF810A0152101FB5B
:100BF0000A99CB44DDF84490CDF82CB04FF02E0A82
:100C00000AFB09FADDF840904FF0300B0BFB09AA04
:100C10004FF0240B0BFB04A90F9C4FF02A0A0AFB90
:100C2000049B099CDDF81890DDF810A0A344059CF6
:100C300008FB09A8DDF820A04FF0030909FB048890
:100C4000079C07FB0A890A2707FB0498DDF8009038
:100C5000DDF82CA00C9F05FB098501FB02520199D0
:100C60000992AAF500328C180D99DDF82880E51B51
:100C70004D434FF4807195FBF1F40194019F44467C
:100C80007C43029FC8EB010507FB054595FBF1F18D
:100C90000291139C6143002902DD0831091103E030
:100CA0000839102791FBF7F147F6BC75134C129FDA
:100CB0000C92A942A8BF2946039DA142B8BF214674
:100CC00079530C354030C02D03957FF4FDAE099863
:100CD000019C029D9861C3F810C05E61C3F81CB00E
:100CE0001C625A629D62102015B0BDE8F08F00BFF3
:100CF000CDB5E8B5C8150020000800204480FFFFEE
:100D00002DE9F04FA1B084461F92BE4A1E91BE4805
:100D10001168814200D0FEE79E6A9F6905969E8910
:100D2000D98D01967000079703277E431190019893
:100D30009A8D0F9112960521019E08924843B200A8
:100D40001490019E01980199139206277E43072271
:100D5000C700514315961797019E019F1C6A5D6A53
:100D6000169109220A2156434F434FF0000804947C
:100D700006955C691D69D3F81CB018961D97CDF8CF
:100D80000C80188EDDF80C90814580F25A819F49C5
:100D90009CF80000DDF804900F181CF8096097F823
:100DA00000A297F80021085CA2448C198E5D94F88B
:100DB000008294F80041454405EB4207119D0997D4
:100DC0001CF805504A194D5D92F8007292F80081A6
:100DD0003F18129807EB44091CF80040CDF8289002
:100DE00008190C5D90F8007290F80001BF1907EB2C
:100DF0004809DDF84C80CDF82C901CF8089001EBE8
:100E00000902CDF8089092F8006292F80021771953
:100E1000149E1CF80690159E07EB400801EB090094
:100E2000CDF8308090F8005290F800012F1907EBB0
:100E300042081CF80670029DCDF83480CA194E5D38
:100E400092F80042A41904EB40050295DDF82C80CD
:100E5000169E92F80021CF5DA844CDF86C801CF856
:100E6000068011F80950DDF8609001EB080011F8D8
:100E7000088090F8004290F8000166190A9D06EB80
:100E80004204179A0E9466191C961CF802608C197D
:100E90008E5D94F8002294F80041D519099F05EB66
:100EA0004002D5191A951CF809504F194D5D97F855
:100EB000000297F80071404400EB44002D2100EB44
:100EC0000A0401FB0ABB1090099819940BEB020A63
:100ED00006EB470424210B9F01FB00A94FF01508E6
:100EE000DDF828A00D9808FB07964FF01C0B0BFBB4
:100EF0000A69DDF830800A2606FB009A0F27DDF824
:100F0000389007FB08AB4FF0030808FB09BADDF87F
:100F100008B0062000FB0BA9CDF80090DDF834A046
:100F2000DDF830B04FF04B090AEB0B0009FB00FA7B
:100F30001B984FF0490B0BFB00A9079809EB000A1F
:100F4000DDF868901C984FF03F0B0BFB09AA4FF09F
:100F5000450BDDF864900BFB00AA4FF0370B0BFB41
:100F600009ABDDF828A00B9808FB0AF84FF006093A
:100F7000DDF824A009FB00880D9808EB0A0907FB9F
:100F800000980C9FDDF83890029806FB07864FF01A
:100F90001C0A0AFB0968152707FB008610980F9F9B
:100FA0004FF02D0909FB006A01FB02A2DDF800A049
:100FB0000792AAF57A386FB10499069ECDF8188089
:100FC00001EB0800811B79434FF4807291FBF2F72B
:100FD0000497B846089860B1059908FB00F8C0F579
:100FE000807601FB06894FF4807299FBF2F7059732
:100FF000B8461F9800FB08F6002E09DD1036771161
:101000000AE000BFC8150020CDB5E8B500080020F3
:10101000103E202196FBF1F7039ED8891049DDF898
:10102000748047F6BC729742A8BF17468F42A8BF8C
:10103000394670431E9F721C27F81010C444039257
:101040009FE65C61079C049A9C61059E069C1D615D
:10105000C3F81CB01A625C629E6221B0BDE8F08FDA
:101060004480FFFFAFF3008000000000000000009C
:101070004B1C012B98BF70472DE9F003911C9B0876
:10108000B1F80480B1F802900A8831F802CC8044AB
:10109000814402448444D9F80070D8F8006015688F
:1010A000DCF80040C9F80060C8F80070CCF80050C7
:1010B0001460D9F80470D8F804605568DCF804406E
:1010C000C9F80460C8F80470CCF8045054600831C2
:1010D000013BD5D1BDE8F00370474B1C012B98BFF5
:1010E00070472DE9F003911C9B08B1F80480B1F81A
:1010F00002900A8831F802CC00EB580800EB59093D
:1011000000EB520200EB5C0CD9F80070D8F80060DC
:101110001568DCF80040C9F80060C8F80070CCF829
:10112000005014600831013BDFD1BDE8F003704787
:1011300081F0004102E000BF83F0004330B54FEA88
:1011400041044FEA430594EA050F08BF90EA020FF5
:101150001FBF54EA000C55EA020C7FEA645C7FEA88
:10116000655C00F0E2804FEA5454D4EB5555B8BFAB
:101170006D420CDD2C4480EA020281EA030382EA1C
:10118000000083EA010180EA020281EA0303362DAE
:1011900088BF30BD11F0004F4FEA01314FF4801C81
:1011A0004CEA113102D0404261EB410113F0004F93
:1011B0004FEA03334CEA133302D0524263EB43034A
:1011C00094EA050F00F0A780A4F10104D5F1200EE8
:1011D0000DDB02FA0EFC22FA05F2801841F1000143
:1011E00003FA0EF2801843FA05F359410EE0A5F117
:1011F00020050EF1200E012A03FA0EFC28BF4CF048
:10120000020C43FA05F3C01851EBE37101F00045FD
:1012100007D54FF0000EDCF1000C7EEB00006EEB0A
:101220000101B1F5801F1BD3B1F5001F0CD3490894
:101230005FEA30004FEA3C0C04F101044FEA4452EB
:1012400012F5800F80F09A80BCF1004F08BF5FEA72
:10125000500C50F1000041EB045141EA050130BD52
:101260005FEA4C0C404141EB010111F4801FA4F1F5
:101270000104E9D191F0000F04BF01460020B1FA4A
:1012800081F308BF2033A3F10B03B3F120020CDA82
:101290000C3208DD02F1140CC2F10C0201FA0CF060
:1012A00021FA02F10CE002F11402D8BFC2F1200CC5
:1012B00001FA02F120FA0CFCDCBF41EA0C0190407B
:1012C000E41AA2BF01EB0451294330BD6FEA0404C4
:1012D0001F3C1CDA0C340EDC04F11404C4F12002AF
:1012E00020FA04F001FA02F340EA030021FA04F3C1
:1012F00045EA030130BDC4F10C04C4F1200220FA18
:1013000002F001FA04F340EA0300294630BD21FA55
:1013100004F0294630BD94F0000F83F4801306BF1B
:1013200081F480110134013D4EE77FEA645C18BF0F
:101330007FEA655C29D094EA050F08BF90EA020FA6
:1013400005D054EA000C04BF1946104630BD91EA9E
:10135000030F1EBF0021002030BD5FEA545C05D1A1
:101360004000494128BF41F0004130BD14F58004E0
:101370003CBF01F5801130BD01F0004545F0FE4154
:1013800041F470014FF0000030BD7FEA645C1ABF89
:10139000194610467FEA655C1CBF0B46024650EAC0
:1013A000013406BF52EA033591EA030F41F40021EC
:1013B00030BD00BF90F0000F04BF0021704730B572
:1013C0004FF4806404F132044FF000054FF0000147
:1013D00050E700BF90F0000F04BF0021704730B508
:1013E0004FF4806404F1320410F0004548BF4042DD
:1013F0004FF000013EE700BF42004FEAE2014FEA32
:1014000031014FEA02701FBF12F07F4393F07F4F0C
:1014100081F06051704732F07F4208BF704793F00F
:101420007F4F04BF41F40021704730B54FF4607422
:1014300001F0004521F000411CE700BF50EA010225
:1014400008BF704730B54FF000050AE050EA0102CE
:1014500008BF704730B511F0004502D5404261EB3E
:1014600041014FF4806404F132045FEA915C3FF47F
:10147000D8AE4FF003025FEADC0C18BF03325FEA1C
:10148000DC0C18BF033202EBDC02C2F1200300FACD
:1014900003FC20FA02F001FA03FE40EA0E0021FAF2
:1014A00002F11444BDE600BF00000000000000008F
:1014B00070B54FF0FF0C4CF4E06C1CEA11541DBFEA
:1014C0001CEA135594EA0C0F95EA0C0F00F0DEF8B5
:1014D0002C4481EA030621EA4C5123EA4C5350EA9A
:1014E000013518BF52EA033541F4801143F48013EB
:1014F00038D0A0FB02CE4FF00005E1FB02E506F07C
:101500000042E0FB03E54FF00006E1FB03569CF0D0
:10151000000F18BF4EF0010EA4F1FF04B6F5007FD6
:1015200064F5407404D25FEA4E0E6D4146EB060648
:1015300042EAC62141EA55514FEAC52040EA5E50D1
:101540004FEACE2EB4F1FD0C88BFBCF5E06F1ED87B
:10155000BEF1004F08BF5FEA500E50F1000041EBB2
:10156000045170BD06F0004646EA010140EA02005F
:1015700081EA0301B4EB5C04C2BFD4EB0C0541EA81
:10158000045170BD41F480114FF0000E013C00F396
:10159000AB8014F1360FDEBF002001F0004170BDBA
:1015A000C4F10004203C35DA0C341BDC04F11404D3
:1015B000C4F1200500FA05F320FA04F001FA05F25F
:1015C00040EA020001F0004221F0004110EBD3702C
:1015D00021FA04F642EB06015EEA430E08BF20EA58
:1015E000D37070BDC4F10C04C4F1200500FA04F3FB
:1015F00020FA05F001FA04F240EA020001F000418D
:1016000010EBD37041F100015EEA430E08BF20EAFF
:10161000D37070BDC4F1200500FA05F24EEA020E47
:1016200020FA04F301FA05F243EA020321FA04F076
:1016300001F0004121FA04F220EA020000EBD3702D
:101640005EEA430E08BF20EAD37070BD94F0000F2D
:101650000FD101F00046400041EB010111F4801F61
:1016600008BF013CF7D041EA060195F0000F18BF12
:10167000704703F00046520043EB030313F4801F4E
:1016800008BF013DF7D043EA0603704794EA0C0F08
:101690000CEA135518BF95EA0C0F0CD050EA41061E
:1016A00018BF52EA4306D1D181EA030101F000419B
:1016B0004FF0000070BD50EA410606BF10461946C3
:1016C00052EA430619D094EA0C0F02D150EA0136CF
:1016D00013D195EA0C0F05D152EA03361CBF104610
:1016E00019460AD181EA030101F0004141F0FE41AF
:1016F00041F470014FF0000070BD41F0FE4141F433
:10170000780170BD70B54FF0FF0C4CF4E06C1CEA32
:1017100011541DBF1CEA135594EA0C0F95EA0C0FE7
:1017200000F0A7F8A4EB050481EA030E52EA0335A2
:101730004FEA013100F088804FEA03334FF08055C3
:1017400045EA131343EA12634FEA022245EA1115F0
:1017500045EA10654FEA00260EF000419D4208BFA1
:10176000964244F1FD0404F5407402D25B084FEA4E
:101770003202B61A65EB03055B084FEA32024FF4FA
:1017800080104FF4002CB6EB020E75EB030E22BF57
:10179000B61A754640EA0C005B084FEA3202B6EB17
:1017A000020E75EB030E22BFB61A754640EA5C00C6
:1017B0005B084FEA3202B6EB020E75EB030E22BF56
:1017C000B61A754640EA9C005B084FEA3202B6EB57
:1017D000020E75EB030E22BFB61A754640EADC0016
:1017E00055EA060E18D04FEA051545EA16754FEA78
:1017F00006164FEAC30343EA52734FEAC2025FEA96
:101800001C1CC0D111F4801F0BD141EA00014FF024
:1018100000004FF0004CB6E711F4801F04BF0143F5
:101820000020B4F1FD0C88BFBCF5E06F3FF6AFAE11
:10183000B5EB030C04BFB6EB020C5FEA500C50F1A1
:10184000000041EB045170BD0EF0004E4EEA113124
:1018500014EB5C04C2BFD4EB0C0541EA045170BD2B
:1018600041F480114FF0000E013C90E645EA060E6F
:101870008DE60CEA135594EA0C0F08BF95EA0C0F9D
:101880003FF43BAF94EA0C0F0AD150EA01347FF4E5
:1018900034AF95EA0C0F7FF425AF104619462CE7BC
:1018A00095EA0C0F06D152EA03353FF4FDAE10461F
:1018B000194622E750EA410618BF52EA43067FF470
:1018C000C5AE50EA41047FF40DAF52EA43057FF400
:1018D000EBAE12E700000000000000000000000076
:1018E0004FF0FF3C06E000BF4FF0010C02E000BFEC
:1018F0004FF0010C4DF804CD4FEA410C7FEA6C5CCF
:101900004FEA430C18BF7FEA6C5C1BD001B050EA71
:10191000410C0CBF52EA430C91EA030F02BF90EA5C
:10192000020F0020704710F1000F91EA030F58BF1B
:10193000994208BF90422CBFD8176FEAE37040F07D
:10194000010070474FEA410C7FEA6C5C02D150EA1B
:10195000013C07D14FEA430C7FEA6C5CD6D152EAD6
:10196000033CD3D05DF8040B704700BF844610469B
:1019700062468C461946634600E000BF01B5FFF79A
:10198000B7FF002848BF10F1000F01BD4DF808ED6A
:10199000FFF7F4FF0CBF012000205DF808FB00BF3B
:1019A0004DF808EDFFF7EAFF34BF012000205DF895
:1019B00008FB00BF4DF808EDFFF7E0FF94BF0120E2
:1019C00000205DF808FB00BF4DF808EDFFF7CEFFE3
:1019D00094BF012000205DF808FB00BF4DF808ED22
:1019E000FFF7C4FF34BF012000205DF808FB00BFF3
:1019F0004FEA410C7FEA6C5C02D150EA013C0AD10B
:101A00004FEA430C7FEA6C5C02D152EA033C02D1FC
:101A10004FF0000070474FF00100704700000000D9
:101A20004FEA410212F5001215D211D56FF4787306
:101A3000B3EB625212D94FEAC12343F0004343EAA9
:101A4000505311F0004F23FA02F018BF4042704784
:101A50004FF00000704750EA013005D111F000400E
:101A600008BF6FF0004070474FF00000704700BFA4
:101A70004A0011D212F5001211D20DD56FF478730D
:101A8000B3EB62520ED44FEAC12343F0004343EA62
:101A9000505323FA02F070474FF00000704750EAAD
:101AA000013002D14FF0FF3070474FF00000704717
:101AB0004FEA4102B2F1E04324BFB3F5001CDCF170
:101AC000FE5C0DD901F0004C4FEAC0024CEA5070A8
:101AD000B2F1004F40EB830008BF20F001007047D7
:101AE00011F0804F21D113F13872BCBF01F00040DA
:101AF000704741F480114FEA5252C2F11802C2F10C
:101B0000200C10FA0CF320FA02F018BF40F001008C
:101B10004FEAC1234FEAD32303FA0CFC40EA0C003E
:101B200023FA02F34FEA4303CCE77FEA625307D17B
:101B300050EA01331EBF4FF0FE4040F440007047B2
:101B400001F0004040F0FE4040F40000704700BF4C
:101B500053B94AB9002908BF00281CBF4FF0FF3114
:101B60004FF0FF3000F074B9ADF1080C6DE904CE10
:101B700000F006F8DDF804E0DDE9022304B0704768
:101B80002DE9F047089E04468846002B4BD18A4237
:101B9000154667D9B2FA82F24AB1C2F1200701FABA
:101BA00002F320FA07F7954047EA030894404FEA0A
:101BB000154E230CB8FBFEF71FFA85FC0EFB1788A9
:101BC00043EA084307FB0CF1994209D9EB1807F1E6
:101BD000FF3080F01B81994240F21881023F2B4474
:101BE0005B1AA4B2B3FBFEF00EFB103344EA0344CD
:101BF00000FB0CFCA44509D92C1900F1FF3380F03F
:101C00000781A44540F2048102382C4440EA074091
:101C1000A4EB0C0400271EB1D4400023C6E9004306
:101C20003946BDE8F0878B4209D9002E00F0EB80E1
:101C30000027C6E9000138463946BDE8F087B3FA07
:101C400083F7002F47D18B4202D3824200F2FA8001
:101C5000841A61EB030301209846002EE0D0C6E908
:101C60000048DDE702B9FFDEB2FA82F2002A40F056
:101C70008F80491B4FEA154E1FFA85F80127B1FBEB
:101C8000FEFC230C0EFB1C1143EA014308FB0CF184
:101C9000994207D9EB180CF1FF3002D2994200F2B9
:101CA000CD808446591AA3B2B1FBFEF00EFB10148E
:101CB00043EA044408FB00F8A04507D92C1900F1B9
:101CC000FF3302D2A04500F2B6801846A4EB080408
:101CD00040EA0C409FE7C7F1200CBB4022FA0CFE03
:101CE0004EEA030E01FA07F420FA0CF521FA0CF380
:101CF0004FEA1E482543B3FBF8F92C0C08FB1933B7
:101D00001FFA8EFA44EA034309FB0AF49C4202FAE2
:101D100007F200FA07F10BD91EEB030309F1FF30BC
:101D200080F087809C4240F28480A9F102097344CC
:101D30001B1BADB2B3FBF8F008FB103345EA0344BC
:101D400000FB0AFAA24508D91EEB040400F1FF3398
:101D50006BD2A24569D90238744440EA0940A0FB1D
:101D60000289A4EB0A044C45C2464B4654D351D0D9
:101D7000002E69D0B1EB0A0564EB030404FA0CFCF5
:101D8000FD40FC404CEA0505C6E90054002747E742
:101D9000C2F1200320FA03F7954001FA02F021FA7C
:101DA00003F34FEA154E3843010CB3FBFEF71FFA5D
:101DB00085F80EFB173341EA034107FB08F38B421A
:101DC00004FA02F407D9691807F1FF3C2FD28B42BD
:101DD0002DD9023F2944CB1A81B2B3FBFEF00EFB92
:101DE000103341EA034100FB08F38B4207D969181D
:101DF00000F1FF3C17D28B4215D902382944C91A89
:101E000040EA07473BE73746304609E70746E7E63B
:101E10001846FBE64145ABD2B8EB020A69EB0E026D
:101E200001381346A4E76046E9E7184695E7674698
:101E3000D1E781467CE702382C4447E7ACF1020C3D
:101E40002B442FE7384608E73746E9E60000000054
:101E5000704700BF0000000000000000000000000C
:101E6000844641EA000313F003036DD1403A41D3A5
:101E700051F8043B40F8043B51F8043B40F8043B64
:101E800051F8043B40F8043B51F8043B40F8043B54
:101E900051F8043B40F8043B51F8043B40F8043B44
:101EA00051F8043B40F8043B51F8043B40F8043B34
:101EB00051F8043B40F8043B51F8043B40F8043B24
:101EC00051F8043B40F8043B51F8043B40F8043B14
:101ED00051F8043B40F8043B51F8043B40F8043B04
:101EE00051F8043B40F8043B51F8043B40F8043BF4
:101EF000403ABDD2303211D351F8043B40F8043B94
:101F000051F8043B40F8043B51F8043B40F8043BD3
:101F100051F8043B40F8043B103AEDD20C3205D3A3
:101F200051F8043B40F8043B043AF9D2043208D09B
:101F3000D2071CBF11F8013B00F8013B01D30B880D
:101F400003806046704700BF082A13D38B078DD0EB
:101F500010F003038AD0C3F10403D21ADB071CBFBD
:101F600011F8013B00F8013B80D331F8023B20F827
:101F7000023B7BE7043AD9D3013A11F8013B00F860
:101F8000013BF9D20B7803704B7843708B788370E8
:101F900060467047000000000000000000000000E4
:101FA000A2EB0300704700BF02780B78012A28BF1C
:101FB0009A42F5D16DE9044540EA0104CDE9026792
:101FC0006FF0000C4FEA447212B380EA010414F07F
:101FD000070F6AD100F0070420F0070004F00305A2
:101FE00021F007014FEAC505F0E8042314F0040FBF
:101FF000F1E804670CFA05F462EA040266EA0406F2
:102000000AD063EA0403624667EA0407664603E00F
:10201000F0E80423F1E8046782FA4CF582EA06044A
:10202000A4FA8CF46CBB83FA4CF583EA0705A5FA95
:102030008CF595B950E9022351E9026782FA4CF513
:1020400082EA0604A4FA8CF483FA4CF583EA0705C5
:10205000A5FA8CF52543DBD09CB92DBAB5FA85F4E9
:1020600024F0070427FA04F1DDE9026723FA04F3F8
:1020700003F0FF0001F0FF01FDE80445A0EB0100C3
:10208000704724BAB4FA84F424F0070426FA04F161
:10209000DDE9026722FA04F202F0FF0001F0FF011D
:1020A000FDE80445A0EB0100704714F0030F3CD19C
:1020B00010F0030428D150F8082B51F8083B82FA9D
:1020C0004CF582EA0305A5FA8CF55DB950F8042CAD
:1020D00051F8043C82FA4CF582EA0305A5FA8CF526
:1020E000002DE8D02DBAB5FA85F424F0070423FAC0
:1020F00004F122FA04F202F0FF0001F0FF01FDE812
:102100000445A0EB010070474FEAC40420F003002F
:1021100050F8082B21F0030151F8083B0CFA04F4A5
:1021200062EA040263EA0403C9E710F003041AD068
:10213000A1EB040120F00300E40750F8042B06D0C3
:102140000FD28B785FFAA2F4E41A06D12BB1CB78C8
:102150005FFAB2F4E41A00D11BB920465DF8104BC7
:10216000704701F1040150F8042BCC0721F0030162
:1021700051F8043B48D824D222F07F4482FA4CF52F
:1021800094EA1325A5FA8CF50AD165B951F8043BF8
:1021900084EA0204B4EB036F0ED150F8042BEBE792
:1021A0004FEA132355E035F07F454DD10878FDE81F
:1021B0000445C0F1000070474FEA126203F0FF03CC
:1021C00047E002EA1C4482FA4CF594EA1345A5FA6A
:1021D0008CF50AD165B951F8043B84EA0204B4EBEA
:1021E000034F0CD150F8042BEBE74FEA134330E0D8
:1021F00015EA1C4528D10B884FEA124229E04FEA24
:10220000124203EA1C4324E002F0FF0482FA4CF578
:1022100094EA1365A5FA8CF50AD165B951F8043B27
:1022200084EA0204B4EB032F09D150F8042BEBE746
:102230004FEA13630DE015F0FF0F05D10B684FEA6D
:10224000122223F07F4304E04FF00000FDE8044534
:10225000704712BA1BBA82FA4CF482EA0304A4FA59
:102260008CF5B5FA85F402FA04F203FA04F34FEAA6
:102270001260FDE80445A0EB136070470000000009
:1022800090F800F06DE9024520F007016FF0000CB6
:1022900010F0070491F820F040F049804FF000045E
:1022A0006FF00700D1E9002391F840F000F1080039
:1022B00082FA4CF2A4FA8CF283FA4CF3A2FA8CF371
:1022C0004BBBD1E9022382FA4CF200F10800A4FAD8
:1022D0008CF283FA4CF3A2FA8CF3E3B9D1E904232C
:1022E00082FA4CF200F10800A4FA8CF283FA4CF363
:1022F000A2FA8CF37BB9D1E9062301F1200182FA1D
:102300004CF200F10800A4FA8CF283FA4CF3A2FA22
:102310008CF3002BC6D0002A04BF04301A4612BA30
:10232000B2FA82F2FDE8024500EBD2007047D1E933
:10233000002304F00305C4F100004FEAC50514F0C2
:10234000040F91F840F00CFA05F562EA05021CBF93
:1023500063EA050362464FF00004A9E700000000AD
:1023600001F0FF01102A2BDB10F0070F08D010F846
:10237000013B013A8B422DD010F0070F42B3F6D14A
:10238000F0B441EA012141EA014122F007047FF063
:1023900000070023F0E80256083C85EA010586EABA
:1023A000010685FA47F5A3FA87F586FA47F6A5FAF6
:1023B00087F68EB9EED1F0BC01F0FF0102F0070202
:1023C00032B110F8013B013A83EA010313B1F8D1AD
:1023D0000020704701387047002D06BF354603388E
:1023E000073815F0010F07D1013015F4807F02BFC7
:1023F000013015F4C03F0130F0BC0138704700BF18
:1024000000B5074B07491A68087083B00192019A1A
:102410001B689A4202D103B05DF804FB00F098F803
:10242000000B0020D8150020000000000000000074
:1024300000B5074B07491A68087883B00192019AE2
:102440001B689A4202D103B05DF804FB00F080F8EB
:10245000000B0020D8150020000000000000000044
:1024600070B5124C124D23682A6884B00646ADF848
:1024700006101B680F4903922046052298472368DF
:1024800002221B680DF10601204698472368BDF81B
:1024900006201B68314620469847039A2B689A42CB
:1024A00001D104B070BD00F053F800BFEC1501205D
:1024B000000B0020E04D01080000000000000000BB
:1024C00000B5184B184C1B6883B0019305F0C8FE8B
:1024D00003F04EFD02F0ACFD1449154807F070FA08
:1024E00003F01EFB03F07CF802F032F802F008FC67
:1024F0001048114A114903F00BFC03F061FA00F097
:10250000AFFE00F0CDF90E4801F02AFD642004F082
:102510006FFB2378642013B900F08AF9F6E704F022
:1025200067FBF3E7000B0020D8150020200B0020EC
:10253000EC150120CC150020040B00200C0B002012
:10254000412600080000000000000000000000001C
:1025500000B5084B83B01A680192019A1B689A4231
:1025600005D1054803B05DF804EB03F069BDFFF742
:10257000EFFF00BF000B0020F04D0108000000003D
:1025800010B52A4C9FED2A7A236882B02830019337
:102590004FF0FF320A23F0EC017AF4EEC77AF1EE45
:1025A00010FAC8BF1AB203F10103C8BFB0EE677AD0
:1025B000812BF0D192B2A2F13903022B1AD9A2F1E8
:1025C0003C03022B08D9773A022A1ED9019A2368C4
:1025D0009A4218D102B010BD0120FFF711FF019AF5
:1025E00023689A4208BF02200DD102B0BDE8104016
:1025F00000F08EBE0120FFF703FF019A23689A4284
:1026000008BF0020F1D0FFF7A3FF0020FFF7F8FE7E
:10261000002002F0CDFF019A23689A42F3D10020F6
:1026200002B0BDE8104002F0ABBF00BF000B0020BD
:1026300000401C46000000000000000000000000F8
:102640002DE9F04F684E694F33683A8883B00193A3
:10265000002900F09380DFF89C91DFF8A081DFF87B
:10266000A4E1DFF89CC1DFED627A002504E00435C7
:10267000ADB2A94240F2B58030F9153007EE103AFC
:102680009400B8EEC77A09EB040A00EB45038AED23
:10269000007AB3F902A007EE10AAB8EEC77A08EBE9
:1026A000040A8AED007AB3F904A007EE10AAB8EE86
:1026B000C77A0EEB040A8AED007AB3F9063007EE0A
:1026C000103A531C9BB2B8EEC77A02329B006444A6
:1026D00092B284ED007A09EB030B08EB030A0EEBD0
:1026E0000304B2F5006F6344CBED007ACAED007AC3
:1026F000C4ED007AC3ED007AB9D33A803D493E4C2F
:102700004FF4806000F0ACF83C494FF4806000F07A
:10271000A7F83B494FF4806000F0A2F839494FF424
:10272000806000F09DF84FF48062374931480EF028
:10273000A7FA4FF48062354930480EF0A1FA4FF401
:10274000806233492E480EF09BFA4FF48062314983
:102750002C480EF095FA2378082B19D80133DBB2F8
:1027600001993268237091424FF000033B8036D1CB
:10277000264803B0BDE8F04FFFF702BFB2F5006F87
:10278000BCD2019A33689A4229D103B0BDE8F08FD8
:10279000202383F3118804F033FD03F0F1FC03F0F0
:1027A000BFFD1D488368002B16DD04F0E1F803F03F
:1027B00007FD04F03DFD194B1A689A4207D099694C
:1027C00093688A689A4202D2154803F039FC0023C4
:1027D00083F311880123C3E704F00AFEE5E7FFF75E
:1027E000B7FE3A80CDE700BF000B0020DED5002009
:1027F00000000000DCA50020DCD50020DC750020F6
:10280000DC450020DC150020DCC50020DC95002024
:10281000DC650020DC3500202C0B0020B8070120EF
:10282000104E010800000000000000000000000041
:1028300000B5084B83B01A680192019A1B689A424E
:1028400005D1054803B05DF804EB04F099BDFFF72E
:102850007FFE00BF000B00202C0B002000000000BA
:1028600000B50D4B83B01A680192B0F5806F019AE4
:102870001B6804D09A420CD103B05DF804FB9A4265
:1028800007D106480123002203B05DF804EB0EF0E7
:1028900077B9FFF75DFE00BF000B0020204E010856
:1028A00010B50A4C0A4B22680A4884B040F67811E9
:1028B000039200220092402204F042F9039A236816
:1028C0009A4201D104B010BDFFF742FE000B002078
:1028D00061290008E8D50020000000000000000089
:1028E00010B51E4C82B02368019300F029FD88B119
:1028F00000F026FD012818D000F022FD02281CD08F
:1029000000F01EFD0328019A236821D09A4212D1BB
:1029100002B010BD019A23689A4208BF01200AD173
:1029200002B0BDE8104000F0F3BC019A23689A425F
:1029300008BF0220F4D0FFF70BFE019A23689A42E9
:1029400008BF0320F7D102B0BDE8104000F0E0BCA2
:102950009A4208BF0020E3D0EDE700BF000B002043
:102960002DE9F041C64CC74DA369C74A9A61A2B090
:102970002B682193FFF75CFD38B9219A2B689A42A6
:1029800040F0ED8122B0BDE8F081C049C04803F0BD
:102990002FFA0023ADF800300746202383F3118877
:1029A00004F02EFC03F0ECFBA66A03F009FC04F033
:1029B0003FFC2368A34205D0A2699B6892689A42B3
:1029C000C0F05381002383F311888022384601A987
:1029D00003F076FA00F06CFC002840F0948000F0E0
:1029E0007FFC002840F08F8007461398FEF7F2FC2A
:1029F0009FEDA11B41EC100B0CF00AFC0022A54B33
:102A000051EC100BFEF754FDFFF70AF8042840F3D1
:102A10008C801698FEF7DEFC9FED971B41EC100BA7
:102A20000CF0F6FB00229B4B51EC100BFEF740FD27
:102A3000FEF7F6FF042878DD002FC0F266811398B8
:102A4000FEF7C8FC9FED8C1B41EC100B0CF0E0FB7B
:102A50000022904B51EC100BFEF72AFDFEF7E0FF31
:102A6000042840F39E801698FEF7B4FC9FED821B6D
:102A700041EC100B0CF0CCFB0022864B51EC100B00
:102A8000FEF716FDFEF7CCFF042840F38A80002FE6
:102A900080F20681202383F3118804F0B1FB03F058
:102AA0006FFBA76A03F08CFB04F0C2FB2368A34210
:102AB00007D0A2699B6892689A4202D2764803F0D6
:102AC000BFFA002383F31188119C189A129B179860
:102AD0007249C2EBC232C4EBC434C3EB4404C0EB52
:102AE000420004F24C4400F24C4000B224B20F60A9
:102AF00002F05EFD204602F043FD06F10A01304679
:102B000004F0B6F839E700F093FBBDF800301BB2D3
:102B1000002BB8BF5B42C0F5A070092B07B23FF78E
:102B200064AF0023ADF800305FE71398FEF752FC66
:102B30009FED511B41EC100B0CF06AFB0022554B32
:102B400051EC100BFEF7B4FCFEF76AFF042864DDBD
:102B50001198FEF73FFC9FED481B41EC100B0CF069
:102B600057FB00224B4B51EC100BFEF7A1FCFEF77C
:102B700057FF04287FF763AF1898FEF72BFC9FEDF3
:102B80003E1B41EC100B0CF043FB0022414B51EC7F
:102B9000100BFEF78DFCFEF743FF04283FF74CAF08
:102BA0004DE71398FEF716FC9FED331B41EC100B1D
:102BB0000CF02EFB0022374B51EC100BFEF778FC8B
:102BC000FEF72EFF04283CDD1198FEF703FC9FED75
:102BD0002A1B41EC100B0CF01BFB00222D4B51EC7F
:102BE000100BFEF765FCFEF71BFF04287FF752AFC2
:102BF0001898FEF7EFFB9FED201B41EC100B0CF03B
:102C000007FB0022234B51EC100BFEF751FCFEF7A3
:102C100007FF04283FF73BAF3CE71698FEF7DAFBC7
:102C20009FED151B41EC100B0CF0F2FA0022194B32
:102C300051EC100BFEF73CFCFEF7F2FE042887DC9B
:102C4000FDE61698FEF7C6FB9FED0B1B41EC100B43
:102C50000CF0DEFA00220F4B51EC100BFEF728FCB3
:102C6000FEF7DEFE0428AFDC14E70B4803F0E8F9BA
:102C7000A8E600BFAFF30080000000403333E3BF9D
:102C8000B8070120000B0020404E0108304E01081B
:102C9000CC15002000005940504E0108E0D500201E
:102CA000B720DFF8C48002F083FC40F24C4002F011
:102CB00067FCD8F80070AFB3F71BBFB2ADF8027075
:102CC000BDF80230B3F57A7F7FF617AF202383F388
:102CD000118804F095FA03F053FAA76A03F070FA2A
:102CE00004F0A6FA2368A34207D0A2699B68926801
:102CF0009A4202D21B4803F0A3F9002383F3118800
:102D0000C8F80070FFF7ECFDF7E640F24C40DFF842
:102D1000588002F04DFCB72002F032FCD8F8007069
:102D2000002FC9D1202383F3118804F069FA03F03E
:102D300027FAA76A03F044FA04F07AFA2368A34258
:102D400007D0A2699B6892689A4202D2054803F0B4
:102D500077F9002383F31188C8F80070ACE7FFF718
:102D6000F7FB00BF504E0108E0D500200000000036
:102D700080B5234C234AA36923491668996186B01C
:102D80000223202514220021009305964FF420737E
:102D9000CDE9015530201D4E1D4F01F059FD01F0C8
:102DA0005FFC002001F094FCB04601F0F9FB13E059
:102DB00003F0DEFD03F004FA04F03AFA2368A342BC
:102DC00007D0A2699B6892689A4202D2384603F003
:102DD00037F9002383F3118801F0BAFC01F020FCDD
:102DE00085F3118804F00CFA03F0CAF903F098FA9D
:102DF000B368002BDCDC404604F0FAFAD8E700BFE9
:102E0000B8070120000B0020604E01083C0B002099
:102E1000804E0108000000000000000000000000DB
:102E20002DE9F04FA34C83B0236801930022431E89
:102E300000F27F25ADF8022013F8011F9D420A44DD
:102E4000FAD19D4B90F84011A3FB0223A1F13D0262
:102E5000622A4FEA5323994A00F20C810121117032
:102E60000022DFF86CE2DFF860C2ADF80220154600
:102E7000904640F27A2103F114060127BDF80220A2
:102E8000914241D3BDF8022092B2825CB242BDF8B9
:102E9000022040F2D980024452799A4280F0D280D6
:102EA000BDF80250BDF802208CF80070013292B2D9
:102EB000ADF80220BDF802209142ADB23AD2BDF881
:102EC0000220B2F5207F75D3BDF80220B2F5207F35
:102ED00080F09080BDF80220B2F5207F00F2908053
:102EE000002D00F08D804FF0000A5246A946AAEB53
:102EF000090BBBF1130F53DCADF80220BDF8022023
:102F000091424FF00105BDD2002D64D1ADF80250C1
:102F1000BDF8022091420DD2BDF80220B2F5207F0B
:102F200080F0BC80DFF8A891BDF80230BDF8023017
:102F300068E00025BDF802209142C0F09380BDF802
:102F4000022092B2825C9A42BDF8022080F0818019
:102F500002445279B242BDF802207AD9BDF80290FB
:102F60008EF8007009F101091FFA89F9ADF8029095
:102F7000BDF802A0BAF5207F92B2F1467DD2D2B15F
:102F8000BDF802A0BAF5207F1DD2E5B98CF800503B
:102F90000125A9469246AAEB090BBBF1130FABDD45
:102FA000551B09EB0A034649464AA8B25B10088044
:102FB000138030E0F146002DB6D0BDF802208EF827
:102FC00000804FF42072BDF802A0BAF5207F19D816
:102FD0009246A9468BE7BDF802209142A9D2BDF8DE
:102FE0000220B2F5207F9DD3BDF80220B2F5207FEC
:102FF00059D30025BDF80220B2F5207F7FF670AFCF
:10300000DFF8CC9030482E4A2E49002303701088F8
:1030100089F800300B8007EE900ADFED2C6A019AE8
:103020002368F8EEE77A86EEA77AF3EE097AB4EE33
:10303000677AF1EE10FAC8BF3E209A4238D103B049
:10304000BDE8F08FBDF80220013292B2ADF8022047
:1030500014E7013292B2ADF80220BDF8022091428D
:10306000BFF46DAFBDF80220B2F5207FA2D3BDF84A
:1030700002202FE700211170F2E6BDF802A0BAF598
:10308000207F07D3BDF802A0BAF5207FBAD8002A66
:103090009ED125E7002A7FF478AF1BE7BDF8022018
:1030A000B2F5207FA6D2BDF80230DFF82490A9E760
:1030B000FFF74EFA000B0020CDCCCCCC60DF002017
:1030C00062DF0020480B002061DF00200040C44484
:1030D00066DF00200000000000000000000000008B
:1030E0002DE9F0474C4A4D4B92694D499161ADF540
:1030F000227D01AD1B68A19328464FF42072002168
:103100000EF066FCDFF82091DFF82081454F0126A4
:10311000384604F035F901F0F3FAD9F800300446E6
:10312000032B1ED8DFE803F0634E26024FF0000A9F
:1031300014F80A3004EB0A02DB00527803F038037B
:1031400003EB5213CAF34E029B000120AB540AF169
:10315000020A01F0CDFE012001F0EAFEBAF5A06FEF
:10316000E6D12846FFF75CFEA8F8000026BB86F0F3
:103170000106CDE74FF0000A14F80A3004EB0A020A
:10318000DB00527803F0380303EB5213CAF34E020C
:103190009B000120AB540AF1020A01F0A9FE0020B5
:1031A00001F0C6FEBAF5A06FE6D12846FFF738FE5B
:1031B000A8F80000002EDAD04FF420712846FFF75F
:1031C0004FF9D4E74FF0000A14F80A30CAF34E0260
:1031D00023F007030120AB540AF1020A01F0A8FE14
:1031E000012001F085FEBAF5A06FEDD1B9E74FF0EF
:1031F000000A14F80A30CAF34E0223F00703002035
:10320000AB540AF1020A01F073FE012001F090FEB6
:10321000BAF5A06FEDD1A4E7B8070120000B00209C
:10322000704E01083C0B0020380B002064DF0020AA
:1032300000B5074B07491A68088883B00192019AC4
:103240001B689A4202D103B05DF804FBFFF780F9D6
:10325000000B0020480B00200000000000000000D0
:1032600030B50E4C0E4B22680E4885B000250392F7
:103270004FF4AF614022009503F062FC0A4B0095C9
:1032800040220A484FF41E7103F05AFC039A236847
:103290009A4201D105B030BDFFF75AF9000B00206A
:1032A000E1300008E0E10020712D000868DF002017
:1032B00000B5074B07491A68087883B00192019A54
:1032C0001B689A4202D103B05DF804FBFFF740F996
:1032D000000B002061DF0020000000000000000063
:1032E00000B5074B07491A68087883B00192019A24
:1032F0001B689A4202D103B05DF804FBFFF728F97E
:10330000000B002066DF002000000000000000002D
:1033100000B5074B07491A68086083B00192019A0B
:103320001B689A4202D103B05DF804FBFFF710F965
:10333000000B0020380B00200000000000000000FF
:1033400000B5074B07491A68086883B00192019AD3
:103350001B689A4202D103B05DF804FBFFF7F8F84E
:10336000000B0020380B00200000000000000000CF
:1033700030B54368174D1A68296883B00446019137
:1033800012B304220270DA681B685208114698478B
:103390002378042B18D0202383F3118803F060FFD7
:1033A00002F02EFF04F10800002103F059FD02F0A5
:1033B00047FF03F06DFF002383F31188019A2B6808
:1033C0009A4204D103B030BD02232370E3E7FFF734
:1033D000BFF800BF000B002000000000000000004C
:1033E00070B5194D82B02B68019311F00C0F0C468B
:1033F000064622D114F0200109D0019A2B689A4286
:103400001FD1304602B0BDE87040FFF7B1BFE30600
:103410000DD57268136853B1019C2868844210D19D
:10342000D2683046520802B0BDE870401847019A91
:103430002B689A4205D102B070BD044802F000FE2C
:10344000D8E7FFF785F800BF000B0020B04E010859
:1034500070B5194D82B02B68019311F00C0F0C461A
:10346000064622D114F0200109D0019A2B689A4215
:103470001FD1304602B0BDE87040FFF779BFE306C8
:103480000DD57268136853B1019C2868844210D12D
:10349000D2683046520802B0BDE870401847019A21
:1034A0002B689A4205D102B070BD044802F0C8FDF5
:1034B000D8E7FFF74DF800BF000B0020B04E010821
:1034C00030B50F4D0F4C2A680F4B83B02046019248
:1034D0004FF6FF721A8000F013FC0C4B01992A681A
:1034E0000B480C4D2562636203F1240591420A4B9F
:1034F0002363C4E90A5001D103B030BDFFF728F8B7
:10350000000B002070E7002058E70020285B01082E
:103510001E010100003C00404600010000000000C8
:1035200070B52C4D03782A6882B0012B04460192B5
:1035300024D06368E26A5989236B22F4F04223F4B1
:10354000F043090544BF42F4205243F42053C4E938
:103550000B23236A00221A606268236A52891A6068
:10356000236A03225A60226A136843F040031360FF
:10357000019A2B689A422BD102B070BD164EB04210
:103580000AD0D4E9083212680C339360A26A236A25
:1035900012680C339360CCE70346104A406A0A2154
:1035A00007F076FD80B9B06A0B4B0D4A0A2107F08F
:1035B0006FFD28B90B4A136C43F400431364E0E732
:1035C000094802F03DFDF5E7074802F039FDEAE75A
:1035D000FEF7BEFF000B002070E70020513400080A
:1035E000E133000800380240904E0108000000005E
:1035F00070B5456A174C2D68266882B00196EB605D
:10360000436A1B685960456AC36A2D6843F4806346
:103610002B60836A1B68DA60836A1B685960826A60
:10362000036B126843F480631360436A1A6813687B
:1036300043F001031360836A1A68136843F00103BF
:103640001360019A23689A4201D102B070BDFEF75F
:103650007FFF00BF000B0020000000000000000002
:1036600030B5104D81682B680F4A83B001930B6809
:1036700023F001030B608168946A03E0936A1B1BCB
:10368000C72B09D8086810F00100F7D1019A2B6800
:103690009A4204D103B030BD4FF0FF30F6E7FEF799
:1036A00057FF00BF000B0020B807012000000000FA
:1036B00030B5184D83B02B68019311F00C0F044600
:1036C0000AD00378032B13D00622636822709A680D
:1036D0001AB100212046904763685B688BB101995D
:1036E0002A68914213D1204603B0BDE83040184704
:1036F000FFF7B6FF0622636822709A68002AE8D1B5
:10370000EBE7019A2B689A4201D103B030BDFEF776
:103710001FFF00BF000B00200000000000000000A1
:10372000F0B5284D83B02B68019303F031FD02F012
:10373000A7FD254B1E69F20715D55A69234C42F0A7
:1037400001025A612778BB1F012B2AD90522636821
:1037500022701B680BB120469847042F27D0022FF8
:1037600025D003232370B30710D5174A174C53698C
:1037700043F0020353612378032B1DD063689B68D9
:103780000622227013B101211048984702F0A0FDD3
:10379000019A2B689A4213D103B0BDE8F04004F0BF
:1037A0001FBD019A2B689A420AD103B0F0BD0223D3
:1037B0002370B307EAD5D8E72046FFF751FFDDE7CE
:1037C000FEF7C6FE000B0020000005505CE700205D
:1037D00030B50B4D0B4C2B6883B02046019300F0A5
:1037E0002FF9019A2B680848084D094921619A422E
:1037F000C4E9025001D103B030BDFEF7A9FE00BFFD
:10380000000B00205CE700207C5B010800000550F5
:103810001655020200000000000000000000000039
:103820002DE9F0412F4C0578266882B0012D0196D4
:1038300006D0019A23689A4252D102B0BDE8F081C5
:10384000294DA842F5D10E4690461F46274AE86802
:103850002B460C2107F01CFC002839D1D5E9023297
:10386000126828339360EB681A68042151611B6861
:10387000C3F80C80EB681A6817611B68B6085E60B5
:103880002B694FB343F480232B61E968184A096818
:103890000B60EB6819680B6843F001030B60536B16
:1038A00043F0010353630B214E2007F0D1F8D5E913
:1038B0000113DA6842F00102DA60DA6842F00202CB
:1038C000DA60CA6822F4804222F001021A60B0E78E
:1038D000084802F0B5FBC1E723F480232B61D4E74D
:1038E000FEF736FE000B00205CE70020B136000832
:1038F00000380240C04E0108000000000000000037
:1039000030B5184C0378226883B0022B019205D0A1
:10391000019A23689A4223D103B030BD124B9842DA
:103920000546F5D18168114A0B6823F4804323F0E2
:1039300001030B608168CB6823F00F03CB60536BEE
:1039400023F0010353634E2007F0AAF8019A23687D
:103950009A4205D1E86803B0BDE8304007F000BCEA
:10396000FEF7F6FD000B00205CE700200038024067
:1039700000B50F4B0278196883B0022A01910ED16D
:1039800081680A6842F002020A6081680A6842F4AB
:1039900080420A6081680A6842F001020A60019A66
:1039A0001B689A4202D103B05DF804FBFEF7D0FD1C
:1039B000000B0020000000000000000000000000DC
:1039C00000B50F4B0278196883B0022A01910ED11D
:1039D00081680A6822F002020A6081680A6842F47B
:1039E00080420A6081680A6842F001020A60019A16
:1039F0001B689A4202D103B05DF804FBFEF7A8FDF4
:103A0000000B00200000000000000000000000008B
:103A100000B5074B83B01A680192019A1B689A425D
:103A200004D103B05DF804EBFFF7D2BEFEF790FDC2
:103A3000000B00200000000000000000000000005B
:103A400000B5084B83B01A68019201220270019AF6
:103A50001B6800219A42416002D103B05DF804FB6B
:103A6000FEF776FD000B00200000000000000000C3
:103A70002DE9F043254D83B02C680194DDF82890A2
:103A80000F4616469846044618B111B1204B9A428B
:103A90002FD9204802F0D4FA202383F3118803F0B1
:103AA000AFFB02F06DFB2378012B02D0194802F026
:103AB000C7FA4246314620464B466760FFF7B0FEE4
:103AC0000223237002F07CFB03F0B2FB124B1A6856
:103AD0009A4204D0996993688A689A420FD3002366
:103AE00083F31188019A2B689A420CD103B0BDE888
:103AF000F0839307CDD1B8F1000FCDD1C9E70748C6
:103B000002F09EFAEBE7FEF723FD00BF000B00205A
:103B1000FCFF0300F04E0108B8070120E04E010849
:103B200030B51C4D83B02B680193044658B3202355
:103B300083F3118803F064FB02F022FB2378022B4D
:103B400002D0154802F07CFA2046FFF7D9FE012387
:103B5000237002F035FB03F06BFB104B1A689A429E
:103B600004D0996993688A689A4208D3002383F342
:103B70001188019A2B689A4209D103B030BD0848D8
:103B800002F05EFAF2E7044802F05AFACFE7FEF7D5
:103B9000DFFC00BF000B0020004F0108B807012028
:103BA000E04E0108000000000000000000000000DE
:103BB00030B51C4D83B02B680193044658B32023C5
:103BC00083F3118803F01CFB02F0DAFA2378022B4E
:103BD00002D0154802F034FA2046FFF7C9FE04234C
:103BE000237002F0EDFA03F023FB104B1A689A429F
:103BF00004D0996993688A689A4208D3002383F3B2
:103C00001188019A2B689A4209D103B030BD084847
:103C100002F016FAF2E7044802F012FACFE7FEF7D4
:103C200097FC00BF000B0020104F0108B8070120CF
:103C3000E04E01080000000000000000000000004D
:103C400030B51C4D83B02B680193044658B3202334
:103C500083F3118803F0D4FA02F092FA2378022B4E
:103C600002D0154802F0ECF92046FFF7A9FE032325
:103C7000237002F0A5FA03F0DBFA104B1A689A429F
:103C800004D0996993688A689A4208D3002383F321
:103C90001188019A2B689A4209D103B030BD0848B7
:103CA00002F0CEF9F2E7044802F0CAF9CFE7FEF7D6
:103CB0004FFC00BF000B0020304F0108B807012067
:103CC000E04E0108000000000000000000000000BD
:103CD00000B5074B83B01A680192019A1B689A429B
:103CE00004D103B05DF804EBFFF7EABBFEF730FC4C
:103CF000000B002000000000000000000000000099
:103D000000B50A4B83B01A68019201220270019932
:103D10001A6800239142C0E9013305D10C3003B089
:103D20005DF804EB03F0A4BBFEF712FC000B0020CF
:103D300070B51E4D82B02B6801930E46044670B3D9
:103D400069B3202383F3118803F05AFA02F018FABA
:103D50002378013B012B02D9154802F071F9204666
:103D60006660FFF7DDFB0223237002F029FA03F0FF
:103D70005FFA104B1A689A4204D0996993688A686E
:103D80009A4208D3002383F31188019A2B689A4240
:103D900009D102B070BD084802F052F9F2E70448B8
:103DA00002F04EF9CDE7FEF7D3FB00BF000B002079
:103DB000504F0108B8070120404F010800000000E3
:103DC0002DE9F041214D82B02C6801940E469046B9
:103DD0001F46044600B171BB1D4802F031F9202393
:103DE00083F3118803F00CFA02F0CAF92378022B4E
:103DF00002D0174802F024F903203B4642463146E0
:103E000020702046FFF7F4FB02F0DAF903F010FA15
:103E1000104B1A689A4204D0996993688A689A424A
:103E20000ED3002383F31188019A2B689A420BD199
:103E300002B0BDE8F081002BCED0002ACFD1CBE775
:103E4000054802F0FDF8ECE7FEF782FB000B0020CE
:103E5000604F0108B8070120404F01080000000032
:103E60002DE9F04F394A3A4B126883B00124019290
:103E70001C70002963D04FF00008364CC246C34680
:103E8000C1464746C446434647F6FF7E1DE0AB4564
:103E9000A8BFAB46024432F9026CB2F90450B442F6
:103EA000B8BF3446B645A8BFB6464D4545DCA84523
:103EB000A8BFA846B2F90220BA420EDC04339245EC
:103EC0009BB2A8BF924699420CD95D1C6A0030F99A
:103ED00015506545DBDDAC46DCE704339BB2994207
:103EE0001746F2D8A4EB0E04ACEB0B0CA7EB0A07B9
:103EF000A9EB0808A4B21FFA8CFCBFB21FFA88F81D
:103F0000154A12491480019C0968144BA2F802C09A
:103F10009780B0F8F8C4B0F8FA64A2F80680B0F858
:103F2000FC54B0F8FE24A3F800C08C425E809D8053
:103F3000DA8008D103B0BDE8F08FA946BAE7884619
:103F40000F468C46DCE7FEF703FB00BF000B0020AA
:103F5000A4E700200080FFFFB0E70020A8E70020D2
:103F600070B53F4B3F4C1A78236882B0012A019309
:103F700005D0019A23689A4270D102B070BD3A49C7
:103F80003A4B4D6C45F480354D644E6A002546F43D
:103F900080364E624D621D61DD60196A21F00101BB
:103FA0001962996921F003019961996941F0010150
:103FB0009961996921F0F0019961196A21F00A016A
:103FC0001962996921F00C019961996821F07001D9
:103FD0009960996841F050019960996821F48031A5
:103FE00021F007019960996841F00701996019680B
:103FF00021F440711960DA629D625A61196A21F0F8
:1040000010011962996921F440719961996921F04F
:10401000807121F4E0419961996941F4C04199614D
:10402000196A21F0A00119629A639A6942F4006248
:104030009A611A6A22F480621A621A6A42F01102C4
:104040001A621A6842F001021A6020B100906846B4
:1040500000F076F98DE7064B0093F8E7FEF778FA63
:10406000F4140120000B0020003802400040014001
:10407000613E000800000000000000000000000099
:1040800070B5114C82B0236801930E46154620236B
:1040900083F3118803F0E4F802F0B2F80B4B0C48FC
:1040A000C3E9006503F0A4F902F0CAF803F0F0F8E0
:1040B000002383F31188019A23689A4201D102B048
:1040C00070BDFEF745FA00BF000B0020C8FC0020C1
:1040D000B8E7002000000000000000000000000021
:1040E00070B5114C82B0236801930E46154620230B
:1040F00083F3118803F0B4F802F082F80B4B0C48FC
:10410000C3E9006503F074F902F09AF803F0C0F80F
:10411000002383F31188019A23689A4201D102B0E7
:1041200070BDFEF715FA00BF000B0020ACFA0020AE
:10413000B8E70020000000000000000000000000C0
:104140002DE9F04F624B63499A69634B916185B0E9
:104150001B6803935E4B9B6993F821305B0700F16A
:10416000AD805E4803F00CF95C4803F009F9584B48
:104170009B6993F8212012F0040240F09F80584D73
:1041800058482B6801680446406805EB830304EB3C
:10419000810103F50279430001F10808019343D03E
:1041A000DFF850B1504BDFF85CA1012018F8125035
:1041B00018F8006019F8121019F8004005F0550CB5
:1041C000770806F0550613F80CC09E5D01F0550EF9
:1041D0004CEA061649084FEA540C01F0550104F068
:1041E00055040CF0550C6D0813F80EE0595C1C5D7D
:1041F00013F80CC00BF8126005F0550507F05507D1
:1042000041EA0C114EEA041E0AF812E05D5D0AF85C
:104210000010DF5D0199013245EA071591420BF864
:10422000005000F10200C1D1304B31493148324DCC
:104230000422FCF71DF9314B314932480422FCF7C6
:1042400017F9314B314932480422FCF711F9314B4F
:10425000314932480422FCF70BF9DFF8D4C0286852
:104260009CF80070224A264900EBC71302F1400671
:1042700014881C8054885C804C889C80043231F8FF
:10428000044BDC80964203F10803F1D1092F11D1D0
:10429000234B00221B688CF800204FF420719847B4
:1042A0002B68204A204993420B6006BF1F4B2B60AE
:1042B0002A604FE701378CF800704BE7064B039AF2
:1042C0001B689A4202D105B0BDE8F08FFEF740F9B5
:1042D000B8070120804F0108000B0020B8E700203C
:1042E000C8FC0020ACFA00204C0B002084F8002011
:1042F00040ED002080ED0020CC0B0020ECF80020E9
:1043000054F9002094F90020B8F8002042ED002074
:1043100081ED002020F9002056F9002095F90020B9
:1043200094FA002080EE0020D00B002080F30020C3
:1043300080F80020000000000000000000000000E5
:104340002DE9F04F494A0168494B116085B00021C1
:104350000E461B684748039302F0B2FF4FF4AF616B
:10436000454B009641224548454DDFF84891454C64
:10437000DFF844A1444F02F0E3FB444B444A186089
:10438000136BC5F804A043F480534FF002184FF4A8
:104390007A5B13632846C5E90298A5F800B0FBF7DD
:1043A000AFFF2046C4E901A9C4F80C80A4F800B00E
:1043B000FBF7A6FF05F13400C5E90EA9C5F840805A
:1043C000A5F834B0FBF79CFF324DC4F8408004F1EF
:1043D0003400C4E90EA9A4F834B0FBF791FF3146CC
:1043E00040F20C4238460DF0F3FADFF8D0902A4A3A
:1043F0006E604FF400634FF080082E812A606B815D
:10440000264CC5F80C80C7F80894FFF761FC2946D4
:104410002348244DFFF78CFC07F5027307F10802CF
:104420004FF480711E48FFF7CBFC314620464FF415
:1044300003720DF0CDFA1C4B1C4AC4F808920834E4
:104440001A611946C3E900641948C3E9028504F0FA
:104450008FFB074B039A1B689A4205D1144805B09D
:10446000BDE8F04F04F0CCBBFEF772F894FA0020E0
:10447000000B0020B8E7002041410008C8E70020F9
:1044800084F80020ECF80020C8FC0020C4E70020DD
:1044900000380240B8FC002081400008ACFA00203F
:1044A00070E70020E140000898FA00202C03080083
:1044B000F4140120000020410000FA45EFBEADDEFB
:1044C00000B5064B83B01A680192019A1B689A42A4
:1044D00002D103B05DF804FBFEF73AF8000B0020B0
:1044E00000B5064B83B01A680192019A1B689A4284
:1044F00002D103B05DF804FBFEF72AF8000B0020A0
:1045000010B5104C104B226882B0019201221A7033
:10451000202383F3118802F0A3FE01F071FE0B4803
:1045200003F0C6F901F08CFE02F0B2FE002383F323
:104530001188019A23689A4201D102B010BDFEF79A
:1045400007F800BF000B0020E0000120D40B002082
:1045500030B50E4D0E4C2B6883B00193FFF758FA1F
:10456000206808B10CF06CFF4FF496400CF060FF2F
:1045700001992A682060B0FA80F35B099142C3F187
:10458000000001D103B030BDFDF7E2FF000B0020B9
:10459000D800012000000000000000000000000022
:1045A00030B5174D174C2B78226885B0012B03923C
:1045B00020D000F0D5FB144B1B78ABB9B0F5964F6B
:1045C00015D8124A124B12681B6812490092024613
:1045D0001148FFF74DFA01232B700020039A23683E
:1045E0009A420BD105B030BDB0F5165FE9D94FF056
:1045F000FF30F3E70848FFF793FADAE7FDF7A8FF83
:10460000D5000120000B0020D6000120DC00012095
:10461000D8000120904F01085CE700200000000056
:1046200010B50B4C0B48236882B0019303F008F8D7
:10463000094803F0E5F9019A23689A4205D1054833
:1046400002B0BDE8104003F033B8FDF781FF00BFB2
:10465000000B0020DC0B0020D40B00200000000029
:1046600030B5154D154C164B2268286883B0019261
:1046700001221A7008B10CF0E3FE4FF416500CF052
:10468000D7FE286098B10F4D286808B10CF0D8FE0D
:104690004FF416500CF0CCFEB0FA80F35B092860A2
:1046A0005842019A23689A4204D103B030BD4FF0BA
:1046B000FF30F6E7FDF74CFFD8000120000B00208B
:1046C000D6000120DC0001200000000000000000F6
:1046D00000B5074B07491A68087083B00192019A28
:1046E0001B689A4202D103B05DF804FBFDF730FF6E
:1046F000000B0020D400012000000000000000009A
:1047000000B50D4A0D4B1278196883B0019142B182
:104710000B4AD26812681268120302D4094A106860
:1047200001E0094A1068019A1B689A4202D103B05D
:104730005DF804FBFDF70CFFD6000120000B002004
:104740005CE70020DC000120D80001200000000010
:1047500000B50E4A0E4B1278196883B001914AB128
:10476000019A1B689A420FD10A4803B05DF804EB26
:10477000FFF766BA019A1B689A4205D1054803B053
:104780005DF804EBFFF714BAFDF7E2FED400012058
:10479000000B00205CE7002000000000000000008B
:1047A00070B5274D82B02B68019306460122032184
:1047B0006E2000F04DFB044630B1019A2B689A42FE
:1047C00020463AD102B070BD32464E216E2000F034
:1047D0003FFB04460028F0D1442E07D00246B72103
:1047E0006E2000F035FBB8B10446E6E70122B721A0
:1047F0006E2000F02DFB0028F6D1224603216E200A
:1048000000F026FB0028EFD1032211216E2000F0DA
:104810001FFB78B10446D0E7224603216E2000F04A
:1048200017FB0028E0D10A2211216E2000F010FBB6
:104830000028D9D1034B1E71BFE7FDF789FE00BFE9
:10484000000B0020E4000120000000000000000038
:104850002DE9F04F8FB0DFF80084DDF860C0D8F8A4
:1048600000400D940CF1FF355C1EB3F5207F9DF8E0
:1048700064909DF868B00C44154400F21282BCF5B7
:10488000F07F00F20E82B1F5207F0E4600F2128218
:10489000B2F5F07F174600F21082A14280F0048248
:1048A000B4F5207F00F20082AA4280F00082B5F5C4
:1048B000F07F00F2FC81B9F1400F824600F0B08138
:1048C000B9F1800F23D0B9F1200F00F09C810023B3
:1048D000CDE90033BBF1400F2FD0BBF1800F00F0CA
:1048E000CB81BBF1200F00F0B9810023CDE9023369
:1048F000002203216E2000F0ABFAA0B30D9AD8F885
:1049000000309A4240F0E2810FB0BDE8F08F9A0784
:1049100040F0D681CC4A8C085900661CA2FB0101EC
:10492000A2FB030204EB930406EBD2030093BBF15A
:10493000400F06EBD1030193CFD11CF0010F40F0E3
:10494000C281C14B7D084FEA4C026F1CA3FB0212CF
:10495000A3FB0C1307EB9303029307EB920305EB06
:104960005C050393C4E702465B216E2000F070FAF9
:104970000028C3D15046FFF713FF0028BED10246DE
:1049800003216E2000F064FA0028B7D1C6F3072394
:104990001A4608216E20049300F05AFA0028ADD17F
:1049A000F3B21A4609216E20059300F051FA00284F
:1049B000A4D1C7F307231A460A216E20069300F0FC
:1049C00047FA00289AD1FBB21A460B216E200793B2
:1049D00000F03EFA002891D1C4F307231A460C21B7
:1049E0006E20089300F034FA002887D1E3B21A460B
:1049F0000D216E20099300F02BFA00287FF47EAF82
:104A0000C5F307231A460E216E200A9300F020FA00
:104A100000287FF473AFEBB21A460F216E200B9380
:104A200000F016FA00287FF469AF049A35216E2051
:104A300000F00EFA00287FF461AF059A36216E204F
:104A400000F006FA00287FF459AF089A37216E204B
:104A500000F0FEF900287FF451AF099A38216E204A
:104A600000F0F6F900287FF449AF069A39216E204C
:104A700000F0EEF900287FF441AF079A3A216E204A
:104A800000F0E6F900287FF439AF0A9A3B216E2046
:104A900000F0DEF900287FF431AF0B9A3C216E2044
:104AA00000F0D6F900287FF429AF009B3D21C3F325
:104AB00007226E2000F0CCF900287FF41FAF9DF88C
:104AC00000203E216E2000F0C3F900287FF416AFCD
:104AD000019B3F21C3F307226E2000F0B9F90028A3
:104AE0007FF40CAF9DF8042040216E2000F0B0F957
:104AF00000287FF403AF029B4121C3F307226E20FD
:104B000000F0A6F900287FF4F9AE9DF808204221B4
:104B10006E2000F09DF900287FF4F0AE039B432146
:104B2000C3F307226E2000F093F900287FF4E6AE6D
:104B30009DF80C2044216E2000F08AF900287FF4B3
:104B4000DDAE012203216E2000F082F900287FF4FF
:104B5000D5AE4A4693216E2000F07AF900287FF402
:104B6000CDAE5A4694216E2000F072F900287FF4F1
:104B7000C5AE012203216E2000F06AF900287FF4FF
:104B8000BDAE0134A31B07EE103ADFED307AB8EE6C
:104B9000477ABAF1440F77EEC77A00F09980B0EE09
:104BA000006AF2EE006AE7EE066A77EEA77AB0EEE8
:104BB000667A67EE877ADFED266A87EEA67AFCEEE4
:104BC000C77ACDED007A009B9521C3F307226E20B2
:104BD00000F03EF900287FF491AE9DF80020962168
:104BE0006E2000F035F900287FF488AE194B0135AE
:104BF000EF1BA41B5F801C8083F804A083F8059042
:104C000083F806B07AE610495A00A1FB030306EBCD
:104C10005303A1FB0212009306EB5203019359E6E2
:104C2000D9074DD4084A74085900661CA2FB01013B
:104C3000A2FB030204EB530406EB9203009306EB82
:104C40009103019346E600BFABAAAAAA0000224442
:104C50000000A344E4000120000B0020244A4FEA96
:104C60004C03A2FB0C1CA2FB032307EB530307EB33
:104C70005C02029203933BE61CF0030F23D11C4B12
:104C8000BD084FEA4C026F1CA3FB0212A3FB0C13DE
:104C900007EBD303029307EBD20305EB9C050393C9
:104CA00026E66FF0070029E66FF0030026E66FF0B6
:104CB000040023E66FF0010020E66FF002001DE61D
:104CC0006FF005001AE66FF0060017E6FDF740FCEE
:104CD000F2EE006A37EE267ADFED066A67EE277A93
:104CE00087EEA67AFCEEC77ACDED007A6BE700BFBF
:104CF000ABAAAAAA000024440000000000000000A3
:104D000010B5114C86B02368059300F081F80F4967
:104D10000F4803F0EDFF012200210D4804F080F858
:104D200020237822CDE901330092A023B422F02180
:104D30000220FFF78DFD059A23689A4201D106B043
:104D400010BDFDF705FC00BF000B0020A04F0108BF
:104D5000D01501200000000000000000000000004D
:104D600010B50A4B0A4A1988146858881B7982B012
:104D7000442B019400FB01F00199136818BF400017
:104D8000994201D102B010BDFDF7E2FBE400012021
:104D9000000B0020000000000000000000000000E8
:104DA00070B5164E16483368154D82B005224FF483
:104DB0008071019307F094FF20246B6983F4807362
:104DC0006B61012001F014FF631E13F0FF04F4D1A6
:104DD0004FF4807140F206222983094807F080FFD2
:104DE000019A33689A4206D10649074802B0BDE8E5
:104DF000704003F035BDFDF7ABFB00BF000B00209A
:104E000000040240E04F01083812012000000000B9
:104E100000B50C4A0C4B1278196883B0012A019135
:104E2000019A1B6804D09A4209D103B05DF804FBD3
:104E30009A4204D103B05DF804EBFFF7B1BFFDF770
:104E400087FB00BF38120120000B0020000000008B
:104E5000F0B5214C214E89B03368079307460025F1
:104E600020468DF818108DF819208DF8145003F095
:104E70000FFE2378012B0CD0042205AB0195029282
:104E800000933946022306AA204603F091FD054609
:104E900048B9114803F01CFE0020079A33689A4273
:104EA00017D109B0F0BD204603F06AFD23780C4A03
:104EB000052B106004D0084803F00AFE68B2ECE746
:104EC000204603F015FD2378012BF4D1FFF768FF8E
:104ED000F1E7FDF73DFB00BF38120120000B002079
:104EE000EC000120000000000000000000000000B5
:104EF00000B50D4B83B01A68019201280BD90B49FC
:104F00004A6982F004024A61019A1B689A4209D1F7
:104F100003B05DF804FB054A042108B95183F3E7A7
:104F20001183F1E7FDF714FB000B002000040240A1
:104F300000B50E4B83B01A68019201280BD90C49B9
:104F40004A6982F480424A61019A1B689A420AD1F6
:104F500003B05DF804FB064A4FF4804108B9518361
:104F6000F2E71183F0E7FDF7F3FA00BF000B002032
:104F7000000C0240000000000000000000000000E3
:104F80002DE9F043254E83B034680194042A9DF83E
:104F90002890144605460F46984639D9B9F1000FB6
:104FA00014BF00224FF08052640002EB0863013C02
:104FB0001C4405F00F0527F01F07202383F31188F9
:104FC00002F01EF93D4301F0DBF8154B1035DD60B2
:104FD0001C6101F0F5F802F02BF9124B1A689A42A5
:104FE00004D0996993688A689A420DD3002383F3A9
:104FF0001188BFF36F8FBFF34F8F019A33689A42C6
:105000000AD103B0BDE8F083074801F019F8EDE7D5
:10501000064801F015F8C1E7FDF79AFA000B0020E9
:1050200090ED00E0B80701207050010850500108D1
:1050300030B5224D224C2B68224A85B00393636819
:1050400043F004036360536A43F4803353622023C4
:1050500083F3118802F0D4F801F092F817221A4B6A
:10506000E260236101F0ACF802F0E2F8174B1A6835
:105070009A4204D0996993688A689A4218D30020AA
:1050800080F31188BFF36F8FBFF34F8F03231D226F
:1050900000904FF00051FFF773FF094A536843F047
:1050A00001035360039A2B689A4205D105B030BDC5
:1050B000074800F0C5FFE2E7FDF74AFA000B0020C1
:1050C00090ED00E000ED00E009000010B8070120BD
:1050D0007050010800000000000000000000000007
:1050E00070B51A4D1A4C1B4E0FCD0FC49EB02A68D6
:1050F000336822801D93EFF30981682203A8FCF72F
:10510000AFFE154B9D6AAA0714D4EB0708D5124BC6
:1051100008995B6B114A00910D4880210CF0A8FCA6
:105120001D9A33689A420FD109481EB0BDE87040FD
:1051300000F086BF099A5B6B0092A4F11000084A48
:1051400080210CF095FCE0E7FDF702FA34500108ED
:10515000F0000120000B002000ED00E010500108DD
:10516000F04F0108000000000000000000000000F7
:1051700000B51F4B0278196883B00191E2B11D4A56
:105180004FF4005111834278EAB11A4A4FF480512A
:1051900011838278F2B1174A4FF480411183C278AB
:1051A000FAB9144A4FF400415183019A1B689A429C
:1051B0001CD103B05DF804FB0E4A4FF4005151833B
:1051C0004278002AE1D10B4A4FF480515183827812
:1051D000002AE0D1074A4FF480415183C278002A67
:1051E000DFD0044A4FF400411183DEE7FDF7B0F948
:1051F000000B002000100240000000000000000032
:1052000000B51F4B0278196883B00191E2B11D4AC5
:105210004FF4007111834278EAB11A4A4FF4807159
:1052200011838278F2B1174A4FF400611183C2787A
:10523000FAB9144A4FF480615183019A1B689A426B
:105240001CD103B05DF804FB0E4A4FF4007151838A
:105250004278002AE1D10B4A4FF480715183827861
:10526000002AE0D1074A4FF400615183C278002A36
:10527000DFD0044A4FF480611183DEE7FDF768F95F
:10528000000B0020001002400000000000000000A1
:1052900030B50C4A0C4B116883B04FF400550191A6
:1052A0004FF480544FF400414FF480405D835C83A1
:1052B0005883598301991368994201D103B030BDD5
:1052C000FDF746F9000B002000100240000000002E
:1052D00030B50C4A0C4B116883B04FF40075019146
:1052E0004FF480744FF480614FF400605D835C8301
:1052F0005883598301991368994201D103B030BD95
:10530000FDF726F9000B002000100240000000000D
:1053100010B50B4C0B48236882B0992200210193F1
:1053200003F07EFD019A23689A4206D105480021C8
:1053300002B0BDE8104003F05BBEFDF709F900BF05
:10534000000B002098150120000000000000000064
:1053500010B50B4C0B48236882B0992200210193B1
:1053600003F05EFD019A23689A4206D105480021A8
:1053700002B0BDE8104003F03BBEFDF7E9F800BF06
:10538000000B0020B4150120000000000000000008
:1053900000B5084B83B01A680192019A1B689A42C3
:1053A00006D10548002103B05DF804EB03F088BD89
:1053B000FDF7CEF8000B002098150120000000003A
:1053C00000B5084B83B01A680192019A1B689A4293
:1053D00006D10548002103B05DF804EB03F070BD71
:1053E000FDF7B6F8000B0020B41501200000000006
:1053F00070B51A4C1A4E2378326882B0022B019293
:10540000A26811D165781748013505F0070500EB52
:105410008500904763686570013B6360019A33685B
:105420009A4219D102B070BD012B08D0019933689E
:10543000994211D10C4802B0BDE870401047657820
:105440000848013D05F0070500EB850090476368BB
:10545000657001336360E1E7FDF77AF888010120A8
:10546000000B00201051010800510108000000004D
:1054700070B51A4C1A4E2378326882B0012B019213
:10548000A26811D165781748013505F0070500EBD2
:10549000850090476368657001336360019A3368E3
:1054A0009A4219D102B070BD022B08D0019933681D
:1054B000994211D10C4802B0BDE8704010476578A0
:1054C0000848013D05F0070500EB8500904763683B
:1054D0006570013B6360E1E7FDF73AF87001012078
:1054E000000B0020105101080051010800000000CD
:1054F00030B51F4D85B02B68039340F24C43994261
:10550000044626DCA3F69803994211DB4B00002BDE
:1055100029D10370036998474FF47A71039A2B6875
:105520009A421ED1606905B0BDE8304003F030BC3E
:10553000104B02225B42227040F2892293420E49B4
:1055400091FBF3F189B207DC0191E3689847019977
:10555000E4E7012303702D21019123699847019904
:10556000DCE7FCF7F5FFE4DD01220270E4E700BFB1
:10557000000B002068F7FFFFA0860100000000007C
:1055800000B5084B83B01A680192019A1B689A42D1
:1055900006D10146044803B05DF804EBFFF7A8BF4D
:1055A000FCF7D6FF000B0020700101200000000076
:1055B00000B5084B83B01A680192019A1B689A42A1
:1055C00006D10146044803B05DF804EBFFF790BF35
:1055D000FCF7BEFF000B0020880101200000000046
:1055E00070B51D4E1D4A1E4B30681E491E4C916001
:1055F00082B00021D46001901C4C1D481D4D9D605F
:10560000117051705160106154611B481B4A1C4D50
:10561000D8601C48197059705960C3E90425FFF718
:10562000A7FD1848FFF7ECFD1749204603F060FB83
:10563000204603F095FC2846144903F059FB019AD3
:1056400033689A4205D1284602B0BDE8704003F0A5
:1056500087BCFCF77DFF00BF000B00208801012004
:1056600070010120715100081153000898150120A4
:10567000915300080152000851530008C15300081B
:10568000B415012000510108C050010880500108E4
:105690000A490B4B09680B4A82B020200191402136
:1056A00058834FF4806559834FF400644FF4804071
:1056B00004215D835C8358835183FEE7000B002047
:1056C000000C024000040240000000000000000046
:1056D00010B51E491E4A0B78106882B0013B01903C
:1056E000072B0AD8DFE803F012151C1F26290F0428
:1056F00018480824012304830B7001991368994208
:1057000021D102B010BD08230B70F6E702230B7005
:10571000F3E711484FF48054032304830B70ECE744
:1057200004230B70E9E70C484FF4804405230483FD
:105730000B70E2E706230B70DFE70648042407231B
:1057400004830B70D9E7FCF703FF00BF200501209D
:10575000000B002000100240000402400000000086
:1057600030B50C4B0C4918680C4A83B04FF4804597
:1057700001904FF480504883042408204D835483C3
:105780005083019A1B689A4201D103B030BDFCF7E7
:10579000DFFE00BF000B00200004024000100240AA
:1057A0002DE9F04F4E4B4F4A9B694F499961A5B087
:1057B00007AE05AD80231768009331462A460024C2
:1057C0000CA84A4B2397CDE90766CDE90555CDE9ED
:1057D00009440B9400F0B4FA0CA9454A4548434CDF
:1057E000454DDFF83481DFF834B1DFF834A100F043
:1057F000CFFA04F11C0604F16007A146504601F0FF
:10580000BFFD2A682B69226063602A6A2B6BA26045
:10581000E3606A686B69226163616A6A6B6BA261AB
:10582000E361AA68AB6922626362AA6AAB6BA26297
:10583000E362EA68EB6922636363EA6AEB6B2F4910
:10584000A263E36351F8043F0A6AB142A3EB020387
:105850000B64F7D1802249460CA800F0F1FA98F8C1
:105860000030002BCAD09BF8003033B3012BC5D1D8
:10587000DFF8B0C02248614650F8042B51F8043FCD
:10588000B84213440B60F7D11E4A13780133DBB2E0
:10589000642B1370B2D11C495CF8043F1B4A82FB95
:1058A0000302DB17C3EB621341F8043B184B9C4522
:1058B000F2D1002388F80030A0E7194620221248D0
:1058C00003930CF085F8039B1248194620220CF034
:1058D0007FF80C49039B0B7001228BF800208DE7A9
:1058E000B8070120000B00203051010824020120DC
:1058F000304E0108CC150020C001012020020120FB
:105900006402012001020120840201201F85EB5165
:1059100020020120040201200002012002020120D5
:10592000F00B002000020120000000000000000039
:1059300070B502691E4D52882B6882B006460C462F
:105940001C480193920000210CF042F833695B88F7
:105950005BB1184AA11E002331F8020F42F8040B74
:105960003069408801339842F6D8202383F31188A8
:1059700001F076FC00F044FC00F0D2FC0E48836895
:10598000002B0FDD00F05CFC01F082FC002383F3B0
:105990001188019A2B68094901209A42087004D1A4
:1059A00002B070BD01F024FDECE7FCF7D1FD00BFB3
:1059B000000B0020C0010120F00B00202005012079
:1059C00070B51F4D1F4C2E78236884B0012E0393B1
:1059D00005D0039A23689A422FD104B070BD0021EC
:1059E000284602F055FD284602F012FE33462846AE
:1059F000154A164902F0CCFD1549164803F078F90E
:105A00004FF496720021134803F00AFA002111485E
:105A100003F0EEFA0F4803F0A3FA31464FF4827216
:105A20000C4803F0FDF90023009340220A4B0B4879
:105A30004FF41E7101F084F8CBE7FCF789FD00BF3D
:105A4000140F0120000B0020A0010120405101088B
:105A5000705101087C150120A1570008A8020120FF
:105A600000B50F4B83B01868019002290CD00329B0
:105A70000CD001290B4818BF0020019A1B689A42DC
:105A80000BD103B05DF804FB0748F6E7032A96BF85
:105A90000648002000EBC200EFE7FCF759FD00BF0D
:105AA000000B0020905201083052010840530108B9
:105AB00070B5154C82B02368019302291CD10D46A4
:105AC0000646202383F3118801F0CAFB00F098FBFF
:105AD00030460E4A012104F013FC29460C4A304698
